:020000040000fa
:080000000020040000000000d4
:020000040000fa
:104000002f0022000e7f24000e0188000000000017
:104010000c00070020a02800010020001f0007005e
:10402000000020000000e00002003200000002005a
:10403000000000005ce00200000000000040da0028
:104040000000fe004440a900a01f20000000e00086
:104050000300320000002000a00188004440a800b6
:1040600000000600f03fb1000180b10006003500fd
:10407000ee03090000000000403fb1000180b100e4
:10408000fbff3d001000b000203fb00002003500f3
:104090000080090000000000000006009101880077
:1040a000800078000000eb0015003700e28040003f
:1040b00032a0b4009101ba00e280400032a0b40006
:1040c0009102ba00e280400032a0b4000002eb008e
:1040d000472bde00f507b200602ce10004003a0037
:1040e0000059eb008301e900fdff3e0004003700aa
:1040f0006128e100010032000082eb0004000700ab
:104100001101ba000200e000e8ff3a0000000600da
:104110003159ba008301e9000c0032002159ba007c
:104120008301e900080032000400e00003003a00c7
:10413000e280400032a0b400f5ff370011d9ba0088
:104140008301e900faff3a008100e800e1804000c5
:1041500032a0b40000000600c4700400000000009b
:10416000587104000000000090740400000000007a
:10417000b8740400000000008ce20400000000009d
:10418000f6df04000000000024e00400000000004e
:104190002cd704000000000040d7040000000000fd
:1041a000b0d70400000000000040da000000fe006c
:1041b000839f68000100e00002003d0060001000e5
:1041c000e08018000300e00002003d0060011100e3
:1041d000e0811900460107004f00e00002003b00ab
:1041e00060001000e080180000000600889fbe00fc
:1041f0008a9fbe00010578000100e0000400350040
:1042000008003c000000e0002000320005003700fc
:1042100060001000e080180002003b0001f02c005c
:104220001a0037000004be006011b8006b092000be
:104230000982cf00020039000882cf000441b0009b
:10424000694252000e00320008003b00828171007a
:10425000610164008904d1000884d3008b05e80063
:104260000442e800f9ff3a00050037000804440062
:1042700089844c008b05e9000442e900fbff3a0009
:104280002b0107000af0a70001f0a0004f05be00b7
:104290004f04be0000000600889fbe008a9fbe003b
:1042a0008c1f7800480107004f01330003866c0023
:1042b0006450e100240032006420e1002700320055
:1042c0006150e100220032006120e1002100320053
:1042d0008b854200eb07b1000134b800003ab8000a
:1042e0000804420089844a00013ab8000030b8004e
:1042f0008880400009014a000400330000004000ab
:1043000081804800020149008b05e900c909dd00f0
:10431000830170000100320013002000c814de0089
:104320004814dd004709de001200b200c808de00b4
:1043300008847000fe00070001f0a1000cf0a70047
:1043400001f0a000310137006120e10033013200ab
:104350000801be000200be00f7ff37006150e10017
:10436000fcff3a002d01370003f0a200889fbe0039
:104370008a9fbe008c1f7800130107001a013300ca
:104380006450e1004f0032006420e100520032002e
:1043900003826c0007003b000905d0000306d00033
:1043a000820f54000c065d0002003900020032004a
:1043b00089017800030678008582550004003d00dd
:1043c0000003fd008103fd008502ea008b854200a9
:1043d000840f720002003b0060001000e0801800b3
:1043e0006011b8000005eb007a28e1000a003900ee
:1043f00006007800c75ddd00f707b2008780750012
:104400002d003700828171000a017800610560008b
:104410008180d1000080d3008502e900f9ff3b00d4
:10442000060440008784480002003b00600414003a
:10443000e0841c000988a300070032008a81710013
:1044400082817100610164008904d1000884d30075
:104450008b05e800170037000978a30013003a0025
:104460000b00e000130034008b05e9000804440051
:1044700089844c000a4474000978a3000d003a00b6
:104480000b00e000070034008b05e900080444003d
:1044900089844c0001003a000b0020000978a30039
:1044a000f7ff32000001eb0002003700828171004b
:1044b0000a0178009e0007000cf0a70001f0a000a0
:1044c000d20037006420e10002003a00838f6c00c4
:1044d000d20033000801be000200be00cb0037004e
:1044e000f4ff2f00d000370014002000ce0037006a
:1044f0000001be00e70007000470a70003f0a10060
:104500006509b100160032000d0035006828e10091
:1045100006003500f0ff2f00f1ff27000300e00048
:1045200013003b00010028000000050000004000cf
:10453000818048008502e900fcff3a00080037004e
:10454000f88f420002003c008000eb0000000500f4
:104550008100d1000080d3008502e800fcff3a0012
:104560000300e00002003b0060001000e080180043
:10457000000006000001be00c60007000470a7008e
:1045800003f0a10003f8a30013003a006509b1008d
:1045900010003200090035006928e10002003500f2
:1045a0000100280000000500000040008180480054
:1045b0008502e900fcff3a0000000600f88f420087
:1045c000050035008100d1000080d3008502e8009d
:1045d000fcff3a00000006008000eb000000050030
:1045e000889fbe008a9fbe008c1f7800760007005f
:1045f0007d00330003866c006450e1002e00320021
:104600006420e100330032006150e1002f003200ed
:104610006120e1003100320085855500eb07b000d4
:1046200009002000080420000500370008044400a9
:1046300089844c000a0031000603430087834b0045
:104640000001530081815b00f8ff33000203be00cc
:104650000800a0000804440089844c00f6ff3900db
:10466000c639dd0083017300010032001300200011
:104670008904d1000884d3000998a3000500320002
:104680000800a7000300a0008904d1000884d3001b
:104690008b05e8008904d1000884d3000001eb00f9
:1046a0000281d2002200070001f0a1000cf0a70057
:1046b00001f0a000550037006420e10057003200ef
:1046c0000801be000200be00f7ff37006120e100d4
:1046d000520032006000b800f3ff370000002000f5
:1046e00001f82700f0ff3700040020004e003700db
:1046f0006022b800060220000000d0008180d200b5
:104700000482d2008582d2000000a0000202520082
:1047100083825a00030031000202420083824a0071
:104720000000a1000603e900f3ff3a0000000600c4
:1047300081002000618055000b003d000b0020002f
:1047400061fe2f000100e1001d0034008281710034
:10475000610164008904d1000884d3000000e800ee
:10476000faff3a007100200061006400030070004d
:10477000020060000900320061044400e0844c0043
:104780000988a500050032008b05e8006808e100f3
:1047900002003a008904d1000884d300f20f2000ff
:1047a0000258e10005003d00c75ddd00f907b200d9
:1047b0008980750008007800000006000bf82700cb
:1047c0008b007800000005000004be0031000700e7
:1047d0000003be000405be000200be002d0007005d
:1047e000844f7500000006000200be006450e10026
:1047f000050036006420e100020036000968a300cd
:1048000001003a000800be000160a0004f067800d9
:104810004f05be004f04be0000000600f0ff2f0051
:10482000f1ff2700f9ff3700889fbe008a9fbe0076
:10483000841f7800e4ff07004f0078001100330068
:10484000f0ff2f00838f6c0006003b00040565001d
:104850000a00a7000800370009f0a6001000200099
:1048600008003700820f5400838f5c00030039007a
:104870001000200001003e000000200009f0a70009
:104880000000ea004f05be004f04be000000e0003b
:1048900000000600c70ade00f107b200f50fb20003
:1048a00008003200e1cf4200020032000170a00097
:1048b00024000500810f700001003200040805008b
:1048c00044000500810f700002003a00140005004a
:1048d0008502e9000000400081c04800fcff3b0069
:1048e0000170a0002400050076c2bf000008a300ec
:1048f000fdff3a0076c2bf000018a300faff3a009d
:1049000076c2bf000028a300f7ff3a0076c2bf00be
:104910000038a300f4ff3a0076c2bf000048a300ad
:10492000f1ff3a0079c2bf000068a300eeff3a0031
:10493000000006007602a800000006000080fb00d0
:104940009013880078c2bf0001c8b3000140600026
:104950000080fb000000e9004f00de000000e900dd
:10496000000006007642a80000000600a1108800a2
:10497000b01088000000060016c2bf000008a300a7
:10498000fdff3a0016c2bf000018a300faff3a006c
:1049900016c2bf000028a300f7ff3a0016c2bf00ee
:1049a0000038a300f4ff3a0016c2bf000048a3007d
:1049b000f1ff3a0019c2bf000068a300eeff3a0001
:1049c00000000600a1138800b01388000000060054
:1049d00006c2bf000008a300fdff3a0006c2bf00e8
:1049e0000018a300faff3a0006c2bf000028a30087
:1049f000f7ff3a0006c2bf000038a300f4ff3a00f8
:104a000006c2bf000048a300f1ff3a0009c2bf0080
:104a10000068a300eeff3a00000006000602a800ae
:104a2000000006000080fb001010880008c2bf00d4
:104a300001c8b300014060000080fb000000e900f5
:104a40004f00de000000e900000006000642a8005a
:104a5000000006000662a80006c2bf000038a300de
:104a6000fdff3a0008c2a900001080000080fb0092
:104a70000000060006a2a8000682a80000000600aa
:104a80001602a800000006000080fb0090108800bd
:104a900018c2bf0001c8b300014060000080fb00e5
:104aa0000000e9004f00de000000e9000000060001
:104ab0001642a800000006001662a80016c2bf0039
:104ac0000038a300fdff3a0018c2a9008010800042
:104ad0000080fb000000060016a2a8001682a800b5
:104ae000000006007662a80076c2bf000038a3006e
:104af000fdff3a0078c2a900801380000080fb000f
:104b00000000060076a2a8007682a8000000060039
:104b10001622a8000000060016a2a9001682a8000e
:104b2000000006007622a8000000060076a2a90078
:104b30007682a800000006008001eb00020037002a
:104b400061f079008301e800828f5100fcff3a0098
:104b5000000006000400fa00e0bf9f00e481570057
:104b6000812978000002eb000f0037006fb8970032
:104b7000904078007fb89700104078000402e80069
:104b800080cf5000040032008180fb000080fb00d9
:104b900000805000070037006fb897000000e80061
:104ba000e0bf9f009309e800820f5200efff3a0038
:104bb0000000eb000080fa00000006000002780010
:104bc000808f50000a00310082814000808f5100a8
:104bd00007003600020240008000eb0043627800cc
:104be0008100e800828f500007003200fbff370091
:104bf0000200e0000400320002814000315a7800d7
:104c0000828f5000fdff3a00000006008001eb009b
:104c100002003700817178008301e800828f510023
:084c2000fcff3a000000060051
:020000040000fa
:020000040005f5
:0457f8009e430000cc
:020000040000fa
:020000040005f5
:0457fc00f71e000094
:020000040000fa
:10000800d4200000d4200000d4200000d420000018
:10001800d4200000d4200000d4200000d420000008
:10002800d420000050e30000d420000092e2000039
:10003800d420000076e30000d4200000b8e20000dd
:10004800dee20000d4200000d42000005ae40000c2
:1000580080e4000034e40000d4200000d420000034
:10006800d4200000baa80000d4200000d42000004a
:10007800d4200000d4200000d4200000d4200000a8
:10008800d4200000d4200000d420000004e30000a5
:100098002ae30000d4200000d4200000d42000006f
:1000a800d4200000d4200000d4200000d420000078
:1000b800d42000009ce30000c2e30000e8e3000055
:1000c8000ee40000d4200000d4200000d42000005a
:1000d800d4200000d4200000d4200000d420000048
:1000e800d4200000d4200000eaa80000d42000009a
:1000f800d4200000d4200000d4200000d420000028
:10010800d4200000d4200000d4200000d420000017
:10011800d4200000d4200000d4200000d420000007
:10012800d4200000d4200000d4200000d4200000f7
:10013800d4200000d4200000d4200000d4200000e7
:10014800d4200000d4200000d4200000d4200000d7
:10015800d4200000d4200000d4200000d4200000c7
:10016800d4200000d4200000d4200000d4200000b7
:10017800d42000001aa900004a7d0000d420000005
:10018800d4200000d4200000d4200000d420000097
:10019800d4200000d4200000d4200000d420000087
:1001a800d4200000d4200000d4200000d420000077
:1001b800d4200000d4200000d4200000d420000067
:1001c800d4200000d4200000d4200000d420000057
:1001d800d4200000d4200000d4200000d420000047
:1001e800d4200000d4200000d4200000d420000037
:0801f800d4200000d420000017
:020000040000fa
:10020800d4200000d4200000d4200000d420000016
:10021800d4200000d4200000d4200000d420000006
:10022800d420000050e30000d420000092e2000037
:10023800d420000076e30000d4200000b8e20000db
:10024800dee20000d4200000d42000005ae40000c0
:1002580080e4000034e40000d4200000d420000032
:10026800d4200000baa80000d4200000d420000048
:10027800d4200000d4200000d4200000d4200000a6
:10028800d4200000d4200000d420000004e30000a3
:100298002ae30000d4200000d4200000d42000006d
:1002a800d4200000d4200000d4200000d420000076
:1002b800d42000009ce30000c2e30000e8e3000053
:1002c8000ee40000d4200000d4200000d420000058
:1002d800d4200000d4200000d4200000d420000046
:1002e800d4200000d4200000eaa80000d420000098
:1002f800d4200000d4200000d4200000d420000026
:10030800d4200000d4200000d4200000d420000015
:10031800d4200000d4200000d4200000d420000005
:10032800d4200000d4200000d4200000d4200000f5
:10033800d4200000d4200000d4200000d4200000e5
:10034800d4200000d4200000d4200000d4200000d5
:10035800d4200000d4200000d4200000d4200000c5
:10036800d4200000d4200000d4200000d4200000b5
:10037800d42000001aa900004a7d0000d420000003
:10038800d4200000d4200000d4200000d420000095
:10039800d4200000d4200000d4200000d420000085
:1003a800d4200000d4200000d4200000d420000075
:1003b800d4200000d4200000d4200000d420000065
:1003c800d4200000d4200000d4200000d420000055
:1003d800d4200000d4200000d4200000d420000045
:1003e800d4200000d4200000d4200000d420000035
:0803f800d4200000d420000015
:020000040000fa
:10a000004d61000079200000203700002032000060
:10a010003031000039000000313900003a300000d2
:10a02000313a000030330000000000000000000062
:10a03000524f0000424f00005445000058420000bb
:10a04000542d000037300000373900003143000044
:10a05000425400002d370000303700003931000035
:10a0600042420000422d000032350000393000002d
:10a07000424100005454000045520000593a00008b
:10a0800020200000424200002d320000353900003f
:10a09000300d00000a00000042410000545400004e
:10a0a00045520000593a00002020000042540000b0
:10a0b0002d3700003037000039310000420d00001c
:10a0c0000a000000424100005454000045520000c4
:10a0d000593a000020200000425400002d370000b3
:10a0e0003037000039310000430d00000a00000045
:10a0f000424100005454000045520000593a00000b
:10a1000020200000524f0000424f00005445000044
:10a11000580d00000a000000554e00004b4e000094
:10a120004f5700004e2000004241000054540000f0
:10a1300045520000590d00000a000000090200000d
:10a14000200000000101000000c0000032090000f2
:10a150000400000000020000ffff0000ff000000fc
:10a160000705000001010000ffff000001070000db
:10a170000581000001ff0000ff0100000403000052
:10a18000010000001a030000520000006f000000f0
:10a19000620000006f000000740000006500000015
:10a1a000580000002c0000002000000049000000c2
:10a1b0006e000000630000002c0300004d00000052
:10a1c0006100000079000000200000002000000075
:10a1d00037000000200000003200000030000000c6
:10a1e00031000000390000002000000031000000b4
:10a1f000390000003a00000030000000310000008b
:10a200003a000000300000003000000000000000b4
:10a210009ed00000bed00000c2d00000dcd0000004
:10a220000d0a00004d6f0000746f000072200000e6
:10a2300046690000726d00007761000072650000e1
:10a2400020620000756900006c6400003a20000084
:10a25000200000000d0a000000520000434f0000e3
:10a260004e200000202000002020000020200000c0
:10a27000202000002020000020200000200d0000f1
:10a280000a00000020200000202000002020000004
:10a2900020200000202000002020000020200000be
:10a2a0002020000020200000200a0000004c0000b8
:10a2b0006f6f0000702000002020000020200000b0
:10a2c0002020000020200000200d00000a000000d7
:10a2d000496e000069740000696100006c20000094
:10a2e0006d6f0000746f0000722000007665000042
:10a2f0006c6f000063690000746900006573000002
:10a30000206f000075740000206f000066200000c0
:10a31000626f0000756e000064730000210d000084
:10a320000a000000537400006f70000070690000a4
:10a330006e670000206d00006f7400006f720000f7
:10a3400073200000666f00007265000076650000f3
:10a35000722e00000d0a00000000000042610000a3
:10a36000736500006c6900006e65000020630000ea
:10a3700075720000726500006e7400003a200000e3
:10a38000000d00000a0000007a7a00007a7a0000ce
:10a390007a7a000020200000207a00007a7a0000fb
:10a3a0007a7a00007a200000207a00007a7a000091
:10a3b0007a7a0000250d00000a000000000000006d
:10a3c000000000000000000000000000000000008d
:10a3d00080000000000000000000000000010000fc
:10a3e000bfff0000ffff0000ffff0000ffff0000b5
:04a3f000ff0000006a
:020000040000fa
:10a3f4000000fa000080fa00000006000200fa00e3
:10a40400000f78001e007800c200dd00e00021008b
:10a41400008140006000b8000089be001e00780082
:10a42400c200dd0060022100008140006000b8002d
:10a434000089be000080fa00000006000200fa0055
:10a44400000f78001e007800c200dd00a00121008a
:10a45400008140006000b8000089be001e00780042
:10a46400c200dd0020032100008140006000b8002c
:10a474000089be000080fa00000006000000fa0017
:10a4840040062000bf4007000060fe009e0b07004e
:10a494001d140700320c0700fe0b070065010700be
:10a4a4000000eb00e105070010002000df050700b5
:10a4b40020002000dd0507002a3a0700b21107003a
:10a4c400bc110700221307009a3e07000080fa001f
:10a4d400000006000800fa00300798006000b80089
:10a4e40010079800210798000000eb00000f780087
:10a4f4000f0037003e0090009e0078004200dd000f
:10a5040001004000c200dd0020e020000080400087
:10a514001001be001e009000ae009000000041003b
:10a524008180490010079800210798001e0fe80059
:10a53400300020009e0f1000eeff34001e0090003b
:10a54400ae0090004e09dd004200de000000710004
:10a55400c288de0010079800210798003e00900092
:10a56400c200dd0040e32000008040001e01900096
:10a57400ae0190000288be003e0190003e009000b3
:10a584008000400000ea2000008040009000780035
:10a594004310dd0001004000c200dd0000e42000a3
:10a5a400008040001e019000ae0190000288be00b1
:10a5b400be0090000181400000ea2000000041003c
:10a5c400100078000001e8008180400000ea2000cb
:10a5d40000804000020878003e0190003e00900098
:10a5e4008000400000ea2000008040001000780055
:10a5f400e70160008200410000ea20000080400082
:10a60400030878000080fa00000006000800fa0041
:10a61400300798006000b8001007980021079800e0
:10a624000000eb00000f78000f0037003e009000a0
:10a634009e0078004300dd0001004000c200dd0000
:10a6440000e42000008040001001be001e009000c5
:10a65400ae0090000000410081804900100798007e
:10a66400210798001e0fe800700020009e0f1000c4
:10a67400eeff34001e009000ae0090004d09dd0096
:10a684004300de0000007100c388de00100798005c
:10a69400210798003e009000c200dd0060ea20001f
:10a6a400008040001e019000ae0190000288be00b0
:10a6b4000080fa00000006000800fa003007980045
:10a6c4006000b80010079800210798000000eb0014
:10a6d400000f78000f0037003e0090009e007800c5
:10a6e4004300dd0001004000c200dd00e0eb20007b
:10a6f400008040001001be001e009000ae009000db
:10a70400000041008180490010079800210798004b
:10a714001e0fe800700020009e0f1000eeff3400b2
:10a724001e009000ae0090004d09dd004300de00e5
:10a7340000007100c388de0010079800210798000c
:10a744003e009000c200dd0040f220000080400086
:10a754001e019000ae0190000288be000080fa0045
:10a76400000006000200fa00889fbe00000f780077
:10a774006000b800f0b9880001ba88000000eb005e
:10a78400e0b988006000b800c0b98800d1b9880079
:10a794000000eb00b0b988006000b80090b98800f0
:10a7a400a1b988006000b80070b9880081b9880038
:10a7b4006000b80050b9880061b988006000b80032
:10a7c40030b9880041b988006000b80010b9880029
:10a7d40021b988006000b800f0b8880001b9880089
:10a7e4000000eb00e0b888000000eb00d0b888005f
:10a7f4000000eb00d0b88800200037001e0078006d
:10a80400d1b880004200dd0001004000c200dd003c
:10a8140040db2000008040001001be0090b98000a1
:10a82400a1b98000020040008380480090b98800ec
:10a83400a1b988001e007800d1b880004200dd0074
:10a84400010040008000400040de20000080400005
:10a85400100078006101b90070b9800081b98000ee
:10a86400020040008380480070b9880081b98800e4
:10a87400d0b880000000e800d0b88800d0b88000cc
:10a88400e30f5000ddff340090b98000a1b98000cf
:10a89400e00f5000e08f58000c00340090b98000a5
:10a8a400a1b98000c289de004e0add004201de004b
:10a8b4000201720000602300e11620003be607005d
:10a8c400f0b9880001ba8800030037006000b800be
:10a8d400f0b9880001ba88001e00e0000a003a00be
:10a8e400dac2bf00614060000004e00003003200ef
:10a8f4000080eb00e0b988000f0037001000200052
:10a90400e0b988000c003700100020009e0f1000f2
:10a9140009003a00e2c2bf000042b2000004e000b5
:10a924000300320010002000e0b988000200370064
:10a934000080eb00e0b988009e017800e0b9800057
:10a944006103b900f4b9800005ba8000860078007c
:10a9540004007800000cb80005b0b90009017800c3
:10a964000001410007a0b900000141008204780001
:10a97400c218dd0020eb2000008040000888be00e3
:10a984001e007800c1da20004200dd000100400012
:10a994001001be001e007800c200dd00e07021003e
:10a9a400008040001000be00800f5100818f5900cc
:10a9b40007003a001e007800c200dd0020eb2000f2
:10a9c400008140006000b8000089be000c00370020
:10a9d4001e00e00004003a0090758000a17580001c
:10a9e40080e6880006003700140020009e0f120045
:10a9f40003003a00b0758000c175800090e68800bd
:10aa04001e0278001e007800c1da20004200dd003a
:10aa1400010040001001be00c220dd00e0702100f2
:10aa2400008040000288be004f04be000080fa008f
:10aa3400000006000200fa00881f78000000eb0006
:10aa4400000f78000c0037001e0478001e00780008
:10aa54008040780000c5b300833f07008040780041
:10aa640080f321000174780050002000453f070066
:10aa74000060fe001e0fe800e00420009e0f10009e
:10aa8400f1ff36004f0478000080fa000000060051
:10aa94001400fa007fd0bf00e14f50000b003a00d1
:10aaa400cf1107000040eb007ff0b70000cfb300e8
:10aab4007cf0b70010c0b3007df0b7001000200098
:10aac400906c88000000eb00b06c8800c141070066
:10aad40084c0bf00684060000004e00090003200c1
:10aae400eac2bf000080fb004500de000004a200b3
:10aaf400614060006140600061406000614060004e
:10ab04004501dd00a12e200091407800f0cdb30076
:10ab140000c0600002407000eae2b7008460a9004f
:10ab2400206a8000e10f500003003a00406a800070
:10ab34000000e800406a88000000eb00400798002d
:10ab4400250037004e00900080004000e0d1200036
:10ab54000080400010007800e10f50000a003a0025
:10ab6400ce0090000181400040d22000000041004e
:10ab7400100078000001e8008180400040d22000ed
:10ab840000804000020878004e00900080004000e1
:10ab940000d320000080400010007800e10f500036
:10aba4000a003a00ce0090000181400060d32000ea
:10abb40000004100100078000001e800818040009e
:10abc40060d3200000804000020878004e0090000e
:10abd4000000e800400798004e009000e20f50008b
:10abe400d8ff3400906a8000e10f500003003a005f
:10abf400a06a80000000e800a06a8800606a800003
:10ac0400e10f500003003a00706a80000000e80081
:10ac1400706a8800106a8000e10f500006003a0054
:10ac2400f0698000016a800061004000e080480013
:10ac3400f0698800016a8800e06a8000e10f500032
:10ac440003003a00006b80000000e800006b8800fd
:10ac5400106b8000e10f500003003a00306b80005d
:10ac64000000e800306b8800706b8000e10f50003a
:10ac740003003a00906b80000000e800906b8800ad
:10ac8400a06b8000e10f500003003a00b06b80001d
:10ac94000000e800b06b8800c06b8000e10f50003a
:10aca40003003a00d06b80000000e800d06b8800fd
:10acb400e06b8000e10f500003003a00006c80005c
:10acc4000000e800006c8800106c8000e10f500068
:10acd40003003a00306c80000000e800306c88000b
:10ace400406c8000e10f500003003a00606c80006b
:10acf4000000e800606c8800906c8000e10f500058
:10ad040003003a00b06c80000000e800b06c8800da
:10ad1400706c80000000e800706c8800c9120700a5
:10ad2400716c8000806c8000808f500004003500be
:10ad34000000eb00706c880050828000a63c070085
:10ad4400006b80000000e0000200340010002000ce
:10ad5400f06a8800f2698000036a8000c014200051
:10ad640001002000800f5100818f5900020034003f
:10ad740010002000e06988000000eb004007980004
:10ad84002f0037004e0090008000400040d2200089
:10ad94000080400010007800e90f500012003400d9
:10ada4004e0090008000400080d120008080400050
:10adb40010002000800878004e00900080004000c1
:10adc400e0d12000808040000000eb008008780083
:10add4004e0090008000400040d22000808040005f
:10ade4000000eb00800878004e00900080004000d6
:10adf40060d320000080400010007800e40f500071
:10ae04000c0034004e00900080004000a0d22000ce
:10ae14008080400010002000800878004e009000e0
:10ae24008000400060d32000808040000000eb00e0
:10ae3400800878004e0090000000e8004007980069
:10ae44004e009000e20f5000ceff3400706a800084
:10ae54000000e0000600340010002000506a880062
:10ae64000000eb00706a88000000eb00606a880054
:10ae7400a06a80000000e0000600340010002000fa
:10ae8400806a88000000eb00a06a88000000eb00e4
:10ae9400906a8800406a80000000e00002003400ec
:10aea40010002000306a8800316b800020022000ee
:10aeb400808f50000200340010002000206b8800b6
:10aec400906b8000e90f5000020034001000200055
:10aed400806b8800b06b8000f80f50000a003400cb
:10aee400f0e28000e10f500001003a00c333070094
:10aef40010002000f0e288000000eb00b06b880036
:10af040010002000d0e28800d06b8000f80f5000c1
:10af14000a00340000e38000e10f500001003a0011
:10af2400c43307001000200000e388000000eb0099
:10af3400d06b880010002000e0e28800006c8000e4
:10af4400e30f50000400340010002000f06b880070
:10af54000000eb00006c8800306c80000000e00012
:10af64000400340010002000206c88000000eb0076
:10af7400306c8800616c800030062000808f5000a7
:10af84000400340010002000506c88000000eb0026
:10af9400606c8800b16c8000c0142000808f500069
:10afa4000600340010002000a06c88000000eb00b4
:10afb400b06c88000000eb00906c88000000eb008f
:10afc40040079800170037004e00900080004000b2
:10afd400a0d220000080400010007800e10f500053
:10afe4000d003a004e00900080004000c0d02000c8
:10aff40000804000900078004e0090009d040700ff
:10b004004e00900080004000a0d2200080804000cc
:10b014000000eb00800878004e0090000000e8007b
:10b02400400798004e009000e20f5000e6ff340005
:10b03400506a8000e10f50000f003a001000200019
:10b04400606a88000000eb00506a88000000eb0092
:10b0540040079800050037004e009000c1fd07002e
:10b064004e0090000000e800400798004e00900059
:10b07400e10f5000f8ff3400806a8000e10f5000b7
:10b084001b003a000000eb00806a880010002000da
:10b09400906a88000000eb00400798000500370024
:10b0a4004e0090000bfd07004e0090000000e800e9
:10b0b400400798004e009000e20f5000f8ff340063
:10b0c400a2718000b3718000c0718000d1718000d2
:10b0d4000201400083814800e0718000f17180002a
:10b0e400020040008380480010bd880021bd880014
:10b0f400206b8000e10f500010003a000000eb00cc
:10b10400508288000000eb00206b88000000eb00f8
:10b11400106b88000000eb00306b880010002000ea
:10b12400706b88000000eb00906b88000000eb005f
:10b13400806b880010002000e0828800806b800013
:10b14400e10f500008003a000000eb00706b88002b
:10b154000000eb00906b88000000eb00806b88001f
:10b164000000eb00e0828800f0e28000e10f500074
:10b1740001003a00382f070000e38000e10f50007f
:10b1840001003a0088310700f06b8000e10f5000a5
:10b19400ae003a000000eb00f06b88006000b800dd
:10b1a40020079800310798006000b800008fbe00a7
:10b1b4000000eb0040079800180037004e00900094
:10b1c40080004000a0f420000080400010007800bf
:10b1d4006101b9002e009000be0090000000410003
:10b1e4008180490020079800310798004e009000a4
:10b1f40000004000e8004000a0f42000008040006f
:10b2040010007800cf80de001e0f40005e974800db
:10b214004e0090000000e800400798004e009000a7
:10b22400e30f5000e5ff34002e009000be009000b4
:10b234004e09dd004200de0000007100c288de001d
:10b24400a0e688001e00be00ce09dd004200de003c
:10b2540000807100c288de00b0e688001e00be00d7
:10b264004e0add004200de0000007200c288de00eb
:10b27400000178002e009000be009000ce09dd0091
:10b284004200de0000807100c288de008200780087
:10b294004d0e070020ff8800307580004175800046
:10b2a400c0e688005075800061758000d0e6880093
:10b2b4007075800081758000e0e68800c0da2000a7
:10b2c4001000be00f0e68800c0da2000b000900054
:10b2d4002000900000e78800dac2bf000080fb0075
:10b2e4000000d100614060008040780080d72100d8
:10b2f40001487800e2c2bf000080fb004500de0088
:10b30400614060008040780090d7210001487800b7
:10b314006000b80020079800310798006000b8006a
:10b32400008fbe000000eb004007980018003700b3
:10b334004e00900080004000607a210000804000b0
:10b34400100078006101b9002e009000be0090004a
:10b3540000004100818049002007980031079800cf
:10b364004e00900000004000e8004000607a210098
:10b374000080400010007800cf80de001e0f4000e7
:10b384005e9748004e0090000000e80040079800d7
:10b394004e009000e30f5000e5ff34002e009000b3
:10b3a400be0090004e0add004200de000000720084
:10b3b400c288de0030ec88001e00be004e09dd00ad
:10b3c4004200de0000007100c288de0040ec88000c
:10b3d4006000b80020079800310798000000eb00d7
:10b3e400400798000f0037004e009000e1f5200060
:10b3f4000000400001004000100078006101b90025
:10b404002e009000be0090000000410081804900a1
:10b4140020079800310798004e0090000000e800d3
:10b42400400798004e009000e30f5000eeff3400f8
:10b434002e009000be009000ce09dd004200de0028
:10b4440000807100c288de0050ec8800206c80000f
:10b45400e10f500078003a006000b800200798001f
:10b46400310798006000b800008fbe000000eb00b8
:10b4740040079800170037004e009000a177210084
:10b484000000400001004000100078006101b90094
:10b494002e009000be009000000041008180490011
:10b4a40020079800310798004e0090002178210071
:10b4b400000040000100400010007800cf80de0052
:10b4c4001e0f40005e9748004e0090000000e80008
:10b4d400400798004e009000e30f5000e6ff340050
:10b4e4002e009000be0090004e0add004200de00f7
:10b4f40000007200c288de0030fe88001e00be001c
:10b504004e09dd004200de0000007100c288de004a
:10b5140040fe88000000eb00206c88002e009000a4
:10b52400be009000c289de004e0add004201de004a
:10b5340002017200f01f200001002000800f510062
:10b54400818f59000a003c001e00be00c289de0043
:10b554004e0add004201de0002017200f01f2000ed
:10b5640001002000800f5100818f59001b0034001e
:10b5740010ba80000000e80010ba880010ba8000f9
:10b58400ea0f50002c0034000000eb0022080700f2
:10b594000000eb00410807000000eb006008070012
:10b5a4000000eb00a1010700100020009f0107002c
:10b5b400200020009d010700100020005082880018
:10b5c4000000eb00606c880010002000406c8800d4
:10b5d4000000eb00506c8800170037002e0090002c
:10b5e400be009000c289de004e0add004201de008a
:10b5f400020172005015200001002000800f51004c
:10b60400818f59000a0034001e00be00c289de008a
:10b614004e0add004201de000201720050152000d6
:10b6240001002000800f5100818f590002003c006e
:10b634000000eb0010ba8800506c8000e10f50004d
:10b644000e003a00110020000000eb00c4060700c1
:10b654001100200010002000c10607000000eb00cc
:10b66400508288000000eb00506c88000000eb0062
:10b67400606c88000000eb00406c8800a06c8000c7
:10b68400e10f50000a003a000000eb00a06c8800b3
:10b694000000eb00906c88000000eb00b06c8800a8
:10b6a4000040eb007cf0b7000040eb007df0b700f9
:10b6b40085060700f06a8000e10f500004003a009c
:10b6c4000000eb00006b88000000eb00f06a8800cb
:10b6d400306a8000e10f500031013a000000eb00b5
:10b6e400306a88000000eb00406a88000000eb002c
:10b6f40040079800270137004e009000800040006a
:10b70400c0d020000080400010007800100f980086
:10b7140010e02e009e089000808f5000120032002e
:10b7240010e02e001e099000800f510005003c001f
:10b7340000e02e009e099000808f510044003200ea
:10b744001101370020e02e001e0a9000800f5200e5
:10b75400af00320030e02e009e089000808f500031
:10b7640073003200080137004e0090000e010700fc
:10b774004e0090008000400060d020000080400017
:10b7840010007800000f980020f02f000e099000a0
:10b79400800f51000900320030f02f008e09900014
:10b7a400808f51001400320010f02f000e0a900018
:10b7b400800f52001f003200f30037004e0090004b
:10b7c4001a0107004e00900080004000c0d0200005
:10b7d4008080400020e02e00800878004e00900019
:10b7e4008000400020d120008080400040e02e00f6
:10b7f40080087800e40037004e0090000b01070039
:10b804004e00900080004000c0d0200080804000a6
:10b8140020e02e00800878004e0090008000400058
:10b8240020d120008080400040e02e008008780075
:10b83400d50037004e0090008000400060d020000a
:10b844008080400000f02f0080087800ce00370090
:10b854004e0090008000400060d020000080400036
:10b86400100078007007980020f02f00fe00900070
:10b87400808f50000900320030f02f007e019000cc
:10b88400800f51000c00320010f02f00fe019000d8
:10b89400808f510017003200bb0037004e0090002b
:10b8a4008000400000d32000808040001000200071
:10b8b40080087800b40037004e009000db000700d9
:10b8c4004e00900080004000c0d0200080804000e6
:10b8d40020e02e00800878004e0090008000400098
:10b8e40020d120008080400040e02e0080087800b5
:10b8f400a50037004e009000cc0007004e009000d9
:10b9040080004000c0d020008080400020e02e0055
:10b91400800878004e0090008000400020d1200074
:10b924008080400040e02e008008780096003700b8
:10b934004e0090008000400060d020000080400055
:10b94400100078006007980020f02f006e0290002d
:10b95400800f52000900320030f02f00ee009000fa
:10b96400808f50001400320010f02f006e01900000
:10b97400800f510017003200830037004e00900002
:10b98400aa0007004e00900080004000c0d02000b4
:10b994008080400020e02e00800878004e00900057
:10b9a4008000400020d120008080400040e02e0034
:10b9b40080087800740037004e009000800040003a
:10b9c40000d3200080804000100020008008780010
:10b9d4006d0037004e009000940007004e00900068
:10b9e40080004000c0d020008080400020e02e0075
:10b9f400800878004e0090008000400020d1200094
:10ba04008080400040e02e00800878005e0037000f
:10ba14004e0090008000400020d1200000804000b3
:10ba24009000780040e02e00808f500019003a000a
:10ba34004e0090008000400080d120000080400033
:10ba440010007800e10f500012003a004e00900000
:10ba54008000400020d120008080400050e02e0073
:10ba6400800878004e0090008000400080d12000c3
:10ba7400808040000000eb00800878004e009000b9
:10ba84008000400040d22000808040000000eb0095
:10ba9400800878004e0090008000400020d12000f3
:10baa400008040009000780050e02e00808f50000d
:10bab40035003a004e0090008000400060d0200025
:10bac40000804000100078005007980020f02f00fc
:10bad400de019000808f51001200320030f02f0000
:10bae4005e029000800f52001b00320010f02f0005
:10baf400de009000808f50000100320022003700e9
:10bb04004e009000280007004e0090008000400086
:10bb1400c0d020008080400010e02e008008780013
:10bb2400190037004e0090008000400000d3200030
:10bb34008080400010002000800878004e009000b3
:10bb440080004000c0d020008080400000e02e0033
:10bb5400800878000c0037004e0090008000400000
:10bb640000d320008080400010002000800878006e
:10bb74004e00900080004000c0d020008080400033
:10bb840030e02e00800878004e0090000000e800ad
:10bb9400400798004e009000e20f5000d6fe34009b
:10bba4000080fa00000006000400fa00000f78008c
:10bbb4001e007800100798001e009000e10f50004e
:10bbc4000d0032001e009000e20f50001000320001
:10bbd4001e0090000000e000010032001100370058
:10bbe4000000eb008c060700dd42a8000000000006
:10bbf400dce2a9000b0037000000eb00a7060700f9
:10bc0400f502a80000000000cca2a900050037003e
:10bc14000000eb00c2060700ec22a80000000000b0
:10bc2400ec02a9000080fa00000006000400fa00fb
:10bc3400000f78001e0078008000400000d3200030
:10bc4400808040000000eb00800878001e0078002f
:10bc54008000400060d32000808040000000eb00a2
:10bc6400800878001e00780080004000e0d12000a9
:10bc74008080400010002000800878001e007800ba
:10bc8400def907001e007800ecf907001e007800ba
:10bc9400100798001e009000e10f50000c003200c5
:10bca4001e009000e20f50000e0032001e009000b3
:10bcb4000000e000010032000e003700dd42a90060
:10bcc4000000eb0054060700dce2a800090037007e
:10bcd400f502a9000000eb0070060700cca2a80042
:10bce40004003700ec22a9000000eb008c060700da
:10bcf400ec02a8000080fa00000006000800fa0028
:10bd040030079800800220002007980000838000fc
:10bd140011838000008fbe00703e200001002000cf
:10bd2400be0f1000ae8f180019003c001e00be00ac
:10bd3400e00f5000e08f580015003400803e2000d2
:10bd4400010020003e035000ae83580086007800b6
:10bd540040022000000ab8006030b90005017800f4
:10bd6400000141004002200000b8b9000001410078
:10bd740082027800823e2000030020000400be00fe
:10bd84000ae107006400400020079800070037001c
:10bd9400703e200001002000be0f1000ae8f18007e
:10bda400020034004000200020079800e082800058
:10bdb400e10f500008003a00916b8000400220001f
:10bdc4000088b900a2002000110009000200d80078
:10bdd4006400400020079800ae009000800220001c
:10bde400808f500002003400800220002007980059
:10bdf4002e009000e30f500002003c0040002000a1
:10be040020079800ae009000e1bd88002e0090004d
:10be14000080fa00000006002800fa00889fbe0097
:10be24006007980071079800020f9800130f98009c
:10be3400240f9800350f9800460f98003e08900094
:10be4400c200dd00e0032100008040000e099000e4
:10be54009e0990000288be003e0c90003e089000af
:10be6400a6ff07000001780088004400607b2100e1
:10be740000804000020878000e0890009e089000a0
:10be840020179800311798002e119000be119000d1
:10be9400e00f5100e08f590006003d002e10900085
:10bea400be10900060001000e08018002017980079
:10beb400311798003e08900080004000607b21000c
:10bec40000804000100078006103b900ae109000bb
:10bed40006007800000ab8002e1190000790b900ff
:10bee4000501780000014100be11900003b0b900c3
:10bef40000014100820278004e29dd004220de006c
:10bf040000007100c2a8de004007980051079800a5
:10bf14003e089000c200dd00a07c210000804000ab
:10bf24004e019000de0190000288be006e00900079
:10bf3400fe00900000179800111798000e11900051
:10bf44009e119000e00f5100e08f590006003d0063
:10bf54000e1090009e10900060001000e080180009
:10bf640000179800111798004e009000de00900012
:10bf74000e1190009e119000021f5000039758006c
:10bf84003e0a90003e089000c200dd00e00021005f
:10bf9400008040001000be003e014000ae81480019
:10bfa400c220dd00e0002100008040000288be00c5
:10bfb4003e089000c200dd00607d2100008040004a
:10bfc4001e01be000288be001e00be0086e00700ff
:10bfd4000002be004e0890003e0990006300b900c4
:10bfe40002004000c200dd0020f720000080400075
:10bff4001001be000400be00a6e007000004be005d
:10c004003e089000c200dd00e000210000804000f6
:10c014001000be0074e007000002be004e0890004d
:10c024003e0990006300b90002004000c200dd0038
:10c0340020fa2000008040001001be000400be0071
:10c0440094e007000001be000800be00c6e007003f
:10c054000004be003e089000c200dd006002210022
:10c06400008040001000be003e011000ae811800a8
:10c074000200be005ce007000002be004e08900013
:10c084003e0990006300b90002004000c200dd00d8
:10c0940020fd2000008040001001be000400be000e
:10c0a4007ce007000001be000800be00aee007000f
:10c0b40020079800310798003e089000c200dd0078
:10c0c40060022100008040001e01be000288be0004
:10c0d400c2828000d38280002e009000be009000b7
:10c0e400fee007000000e00001003d0014003700fe
:10c0f400c0828000d1828000200798003107980018
:10c104001e00be00e00f5000e08f58000c00340009
:10c114003e0a90003e089000c200dd00e0002100cd
:10c12400008040001000be003e015000ae81580067
:10c13400c220dd00e0002100008040000288be0033
:10c144006011b8002e009000be009000e5e00700ea
:10c154000000e00001003500090037006000b8006d
:10c1640020079800310798003e089000c200dd00c7
:10c17400e0002100008140006000b8000089be009a
:10c184003e089000e20f500009003a003e0890007b
:10c194000e09900080004000c0042100008040008f
:10c1a400020878008e089000710f98002d00370067
:10c1b4003e0c90002e009000be009000cbe00700e3
:10c1c4000001780088004400c00421000080400081
:10c1d400020878000e0990009e099000520f980002
:10c1e400630f98005e089000ee089000e00f500086
:10c1f400e08f580006003d005e099000ee099000b3
:10c2040060011100e0811900520f9800630f98003b
:10c214005e089000ee089000f3df07002007980006
:10c2240031079800c2828000d38280002e009000e3
:10c23400be009000a9e007000000e00001003d00fe
:10c2440004003700c0828000d1828000200798005b
:10c25400310798002e009000be009000a3e0070074
:10c26400700f98007e0890004f04be000080fa0012
:10c27400000006000e00fa0020079800310798001d
:10c284002e0090000cf907002e009000dff8070044
:10c2940080bc800091bc8000a2bc8000b3bc800044
:10c2a400020050008380580040079800510798000e
:10c2b4004e009000de009000e00f5000e08f580028
:10c2c40006003d004e009000de009000600010006b
:10c2d400e080180040079800510798004e00900035
:10c2e400de009000008388001183880000838000b2
:10c2f40011838000000f7800703e20009e0f100014
:10c30400070034002e0090008000400080002100cf
:10c31400808040000000eb008008780006003700b1
:10c324002e009000800040008000210080804000aa
:10c334001000200080087800ae009000610798008b
:10c344006e009000e10f500065003200ee00900096
:10c35400e28f5000c00032006e0090000000e00048
:10c36400010032000b013700be00900000e02e00f7
:10c37400808f50002b003a0050828000e10f500063
:10c3840003003a000000eb00100798001a00370081
:10c394002e009000800040008000210000804000ba
:10c3a400100278002e009000c200dd0060ea200038
:10c3b400008040001000be00800378002e00900032
:10c3c400c200dd0000792100008040001001be00a1
:10c3d4002e009000c200dd0040f2200000804000ea
:10c3e4001000be0004037800ae029000070278003b
:10c3f40089fe07001007980050828000e10f50006a
:10c4040002003a00dd42a90001003700dd42a80025
:10c41400dce2a800dcc2a8001e0090007e04070035
:10c42400dc003700be00900030e02e00808f50000a
:10c43400d8003a0050828000e10f500003003a0017
:10c444000000eb00100798001a0037002e0090003f
:10c45400800040008000210000804000100278002d
:10c464002e009000c200dd0060ea20000080400041
:10c474001000be00800378002e009000c200dd0092
:10c4840000792100008040001001be002e009000c1
:10c49400c200dd0040f22000008040001000be0019
:10c4a40004037800ae029000070278005afe0700e9
:10c4b4001007980050828000e10f500002003a00fb
:10c4c400dd42a90001003700dd42a800dce2a8003b
:10c4d400dcc2a9001e0090004f040700ad00370025
:10c4e400be00900000e02e00808f50002b003a0028
:10c4f40050828000e10f500003003a000000eb007e
:10c50400100798001a0037002e00900080004000a9
:10c514008000210000804000100278002e0090006e
:10c52400c200dd0060ea2000008040001000be0070
:10c53400800378002e009000c200dd000079210005
:10c54400008040001001be002e009000c200dd00fb
:10c5540040f22000008040001000be000403780078
:10c56400ae029000070278002bfe07001007980027
:10c5740050828000e10f500002003a00f502a90049
:10c5840001003700f502a800cca2a800cc82a900c3
:10c594001e009000410407007e003700be0090009a
:10c5a40030e02e00808f50007a003a0050828000e4
:10c5b400e10f500003003a000000eb001007980060
:10c5c4001a0037002e0090008000400080002100f7
:10c5d40000804000100278002e009000c200dd00b0
:10c5e40060ea2000008040001000be008003780054
:10c5f4002e009000c200dd00007921000080400080
:10c604001001be002e009000c200dd0040f22000a8
:10c61400008040001000be0004037800ae029000c9
:10c6240007027800fcfd0700100798005082800084
:10c63400e10f500002003a00f502a90001003700a2
:10c64400f502a800cca2a800cc82a8001e0090008d
:10c65400120407004f003700be00900000e02e00d7
:10c66400808f500023003a002e009000800040008c
:10c674008000210000804000100278002e0090000d
:10c68400c200dd0060ea2000008040001000be000f
:10c69400800378002e009000c200dd0000792100a4
:10c6a400008040001001be002e0090008000400079
:10c6b400c0792100008040001000780001002000b3
:10c6c40004037800ae02900007027800d2fd070050
:10c6d40010079800ec22a80000000000ec02a8005b
:10c6e40000000000e462a8001e0090000c04070093
:10c6f40028003700be00900030e02e00808f5000ec
:10c7040024003a002e0090008000400080002100a8
:10c7140000804000100278002e009000c200dd006e
:10c7240060ea2000008040001000be008003780012
:10c734002e009000c200dd0000792100008040003e
:10c744001000be0060011000e08118002e0090006f
:10c7540080004000c0792100008040001000780073
:10c764000100200004037800ae0290000702780064
:10c77400a9fd070010079800ec22a80000000000a3
:10c78400ec02a80000000000e462a9001e00900072
:10c79400e3030700ae0090001e0090006101b900a1
:10c7a400c208dd00e07b2100008040000288be005a
:10c7b4000080fa00000006000200fa00000f780072
:10c7c40023c2bf00624060000004e000fcff3a00a6
:10c7d4008580a9001e007800201188000080fa00de
:10c7e400000006000c00fa00a0002000000f7800f2
:10c7f4000000eb00100798008f0037001e00900027
:10c804008000400000d020000080400090007800ac
:10c8140080bb20001e004000808f500016003e00a8
:10c824001e0090008000400000d0200000804000e6
:10c834009000780080bb20001e005000808f5000c4
:10c844000d0039001e0090008000400060d02000e0
:10c854008080400010f02f00800878001e009000b7
:10c86400c200dd0000792100008140006000b800b2
:10c874000089be006d0037001e009000800040005b
:10c8840000d020000080400090007800f07c200060
:10c89400808f5000300036001e0090008000400061
:10c8a40000d02000008040009000780080bb200071
:10c8b4001e005000808f500027003e001e00900094
:10c8c4008000400060d020008080400030f02f00c5
:10c8d400800878001e0090008000400000d02000f6
:10c8e400008040001000780001002000200798001c
:10c8f4003107980082bb2000030020002e00900026
:10c90400be00900000005100818059004a09dd00fa
:10c91400c600de00810071004a00dd00823e200076
:10c924000300200021de070040079800510798000b
:10c934001e0290004e009000de0090006001100086
:10c94400e0811800c220dd00007921000080400051
:10c954000288be00350037001e00900080004000b1
:10c9640000d02000008040009000780080bb2000b0
:10c974001e004000808f50002c0039001e009000e3
:10c984008000400000d0200000804000900078002b
:10c9940000fa2000808f500024003e001e0090000a
:10c9a4008000400060d020008080400020f02f00f4
:10c9b400800878001e0090008000400000d0200015
:10c9c400008040001000780001002000200798003b
:10c9d400310798002e009000be0090004a09dd0047
:10c9e400c601de00830171004a01dd00000022005f
:10c9f40011fd2f000200400083804800823e200089
:10ca040003002000e9dd0700400798005107980063
:10ca14001e009000c200dd0000792100008040006b
:10ca24004e019000de0190000288be001e009000be
:10ca34000000e800100798001e009000e20f50006c
:10ca44006eff34000080fa00000006000600fa00c1
:10ca5400004f7800110798001e0090000000e000cd
:10ca640009003a001e80fb00800040004074210051
:10ca7400808040000000eb00800878000000eb009c
:10ca840020079800500037001e80fb008000400003
:10ca94004074210000804000900078001e00900047
:10caa400808f500019003d009e80fb0001814000f2
:10cab4004074210000004100100078000001e800eb
:10cac400818040004074210000804000020878000a
:10cad4001e80fb0080004000407421000080400064
:10cae400900078001e009000808f500027003500d1
:10caf4001e80fb0080004000407421000080400044
:10cb04009e00900001087800200037001e80fb0082
:10cb140080004000407421000080400090007800b4
:10cb24001e009000808f5000180034009e80fb008f
:10cb34000181400040742100000041001000780091
:10cb44000001e90081804000407421000080400021
:10cb5400020878001e80fb00800040004074210021
:10cb640000804000900078001e009000808f5000ec
:10cb740006003c001e80fb00800040004074210041
:10cb8400008040009e0090000108780050828000e0
:10cb94000000e000060032000000eb0020ba88002c
:10cba4000000eb0030ba88000000eb0040ba8800b7
:10cbb4001e80fb0080004000407421000080400083
:10cbc40010007800200798002e0090000080fa00e2
:10cbd400000006000400fa0050ba80001007980014
:10cbe4001e009000e10f5000320032001e00900041
:10cbf400e10f5000070039001e009000e20f5000c2
:10cc0400550032001e009000e30f5000690032000e
:10cc14008900370070ba80000000e80070ba88000c
:10cc240060ba80000000e80060ba880070ba800032
:10cc3400e50f50000a0036000000eb0070ba8800cf
:10cc440051bc80000040eb0080ff0700f0798800b1
:10cc540061bc800010c0b3007cff0700007a88002c
:10cc640060ba8000ef0f5000060036000000eb00b1
:10cc740060ba880071bc800020c0b30073ff070055
:10cc8400107a88000000220010407800e14f500024
:10cc940002003a001000200050ba88007ed0bf0085
:10cca400e14f500064003a001000200050ba8800a0
:10ccb4006100370070ba80000000e80070ba880094
:10ccc40070ba8000e30f50000e0036000000eb0045
:10ccd40070ba8800110020000040eb005bff0700e1
:10cce400f07988001100200010c0b30057ff07003e
:10ccf400007a88001100200020c0b30053ff070011
:10cd0400107a8800f0798000e90f40004a0035006d
:10cd1400f0798000e90f500047003c00007a800061
:10cd2400e90f400044003500007a8000e90f50000c
:10cd340041003c00107a8000e90f40003e003500bd
:10cd4400107a8000e90f50003b003c0020002000d6
:10cd540050ba88003800370072bc800061bc800083
:10cd640050bc8000733607000040eb0032350700ea
:10cd7400f079880010c0b3002f350700007a8800ce
:10cd840020c0b3002c350700107a88000000eb00a7
:10cd940070ba88000000eb0060ba88007ed0bf0043
:10cda4000004e00024003a003000200050ba88005b
:10cdb400210037000001eb008000eb000000eb00d5
:10cdc4005c3607000040eb001b350700f079880053
:10cdd40010c0b30018350700007a880020c0b300e3
:10cde40015350700107a8800f0798000e90f4000bb
:10cdf40011003500f0798000e90f50000e003c006e
:10ce0400007a8000e90f40000b003500007a8000b2
:10ce1400e90f500008003c00107a8000e90f400040
:10ce240005003500107a8000e90f500002003c0034
:10ce34000000eb0050ba8800e0698000e10f500068
:10ce440031003a000000eb00e06988000000eb00cc
:10ce5400106a88006000b800f0698800016a8800e0
:10ce64000000eb0030e688000000eb0040e688009c
:10ce74000000eb0050e688000000eb0050bc880086
:10ce84000000eb0060bc88000000eb0070bc880070
:10ce94000000eb00000f7800180037001e00780037
:10cea40080004000e0f32000808040000000eb00a0
:10ceb400800878001e0078008000400060d02000c8
:10cec4008080400010f02f00800878001e02780057
:10ced4001e00780080004000e0f320000080400045
:10cee400100078006101b900c220dd000079210042
:10cef400008040000288be001e0fe80020002000d1
:10cf04009e0f1000e5ff340081ba8000b0838000da
:10cf1400808f50006a003200b083800080ba88009d
:10cf24006000b800f0698800016a880010002000e1
:10cf3400106a88000000eb00e06988000000eb0044
:10cf4400000f78005b0037001e007800800040006e
:10cf5400e0f3200000804000100078000000e000b2
:10cf640012003a001e0078008000400060d02000cb
:10cf74008080400010f02f00800878001e027800a6
:10cf84001e00780080004000e0f320000080400094
:10cf9400100078006101b900c220dd000079210091
:10cfa400008040000288be00410037001e00780067
:10cfb40080004000e0f320000080400090007800f2
:10cfc40000c02f00808f5000190034001e0078002c
:10cfd40080004000e0f32000008040001000780052
:10cfe4000000e00012003d001e00780080004000b8
:10cff40060d020008080400030f02f00800878004e
:10d004001e0278001e00780080004000e0f320003b
:10d0140000804000100078006101b900c220dd00ea
:10d0240000792100008040000288be002000370003
:10d034001e00780080004000e0f3200000804000e3
:10d04400100078000000e000190034001e00780091
:10d0540080004000e0f32000008040009000780051
:10d06400f03f2000808f500011003c001e0078002b
:10d074008000400060d020008080400020f02f001d
:10d08400800878001e0278001e00780080004000ae
:10d09400e0f3200000804000100078006101b90036
:10d0a400c220dd0000792100008040000288be001b
:10d0b4001e0fe800200020009e0f1000a2ff340085
:10d0c4000080fa00000006000000fa00c1fe07001c
:10d0d400100020000080fa00000006000000fa00a2
:10d0e400416a20009140780000ccb30000c0600089
:10d0f4006040b300a4e6b700816d20009140780041
:10d1040000ccb30000c060002041b300d8e6b700f3
:10d11400216c20009140780000ccb30000c0600076
:10d124003041b300c2e6b700916d20009140780011
:10d1340000ccb30000c060004041b300d9e6b700a2
:10d14400716c20009140780000ccb30000c06000f6
:10d154003040b300c7e6b7000080fa0000000600c4
:10d164000a00fa00000f7800110798001e007800ea
:10d17400200798002e0090000000e0000400320018
:10d184002e009000e10f50000e003200190037000d
:10d194001e009000300798003e0090000000e00060
:10d1a400060032003e009000e10f50000100320002
:10d1b40010003700dc62a8000e003700dc62a90012
:10d1c4000c0037001e009000400798004e009000ad
:10d1d4000000e000060032004e009000e10f500015
:10d1e4000100320003003700dc42a80001003700d0
:10d1f400dc42a9000080fa00000006001a00fa00d0
:10d204000e80e80001002d000b0009003158780061
:10d21400c000b1006e004700c1002d0008000900e5
:10d22400315878009000b100690040008040eb0064
:10d23400014878000000e8008040eb0001487800d5
:10d244000000e8008040eb00014878000000eb009b
:10d25400000f7800270037009e0078000e80e80059
:10d2640000804000104078000004e00005003a000f
:10d274001e01780081f8210000c2b30000f178009b
:10d28400070037001e0178009e0078000e80e80039
:10d29400008040009040780080f8210001717800ff
:10d2a4009e0078006e004700008040001040780027
:10d2b4000004e00006003a001e0078006c01400003
:10d2c40081f8210000c2b30000f1780008003700a3
:10d2d4009e0078006c8140009e0078006e0047003c
:10d2e400008040009040780080f8210001717800af
:10d2f4001e0fe800b00020009e0f1000d6ff36007d
:10d304000080fa00000006000000fa000000eb00b4
:10d31400001988000000eb00101988000000eb00e1
:10d32400201988000080eb00601988000080eb0061
:10d33400401688000080eb00801688000080eb0017
:10d34400c01688000080eb00001788000080eb0006
:10d35400401788000080eb00801788005fff0700fb
:10d364000080eb00601988002c43a9002c63a900fd
:10d374002c03a9002c23a9002dc3a9002de3a90087
:10d384002d43a9002d63a9002d83a9002da3a90075
:10d394002d03a9002d23a900d862a900d842a90011
:10d3a400d8c2a900d8e2a900d922a900d942a9006b
:10d3b400c882a900c8a2a900f122a900f102a9000b
:10d3c400e062a900e802a900e082a900e822a9001d
:10d3d400dd22a800f522a800e482a8000e000700c0
:10d3e40082020700100207001f020700ff01070066
:10d3f4006f0007008f000700af0007005b00070005
:10d404005d000700630007009d0207007bff070023
:10d414000080fa00000006000000fa00400c27001b
:10d4240020e1880080152700b0e18800004927002a
:10d43400d0e18800804b2700e0e188000080fa00fa
:10d44400000006000400fa00004f7800114798001d
:10d454002247980023dd070035dd070021dd0700a2
:10d464001e40780034dd07001edd07001e409000da
:10d4740031dd07001bdd07002e4090002edd070084
:10d4840018dd070036dd070016dd07000080fa000e
:10d49400000006000200fa0040012000b934070031
:10d4a4000060fe0082c5b30021c0b30080c1b30098
:10d4b4004a35070040012000b23407000060fe0036
:10d4c4000041eb0011c1b30080c1b3004335070034
:10d4d40040012000ab3407000041eb0021c1b30040
:10d4e40080c1b3003d35070040012000a53407008a
:10d4f40040012000a334070080fb210001c3b300d6
:10d504000148780002cfb300b1c0b30080c1b300ba
:10d51400323507000000eb00000f780008003700e8
:10d524000060fe00a00f2000963407000060fe009b
:10d53400a00f2000933407000060fe001e0fe800d7
:10d54400900020009e0f1000f5ff360040012000df
:10d554008c3407000060fe000080fa000000060022
:10d564000000fa000080fa00000006000000fa0043
:10d574000080fa00000006000000fa00f10f20000d
:10d58400f0232c00f8dc0700fadc07000080fa0026
:10d59400000006000000fa00f10f2000f0232c0028
:10d5a40007dd0700cfdc07000080fa00000006005a
:10d5b4000000fa000000eb00b00c8800007d2000a1
:10d5c400a00c880092c1bf00f041b30092e1b70003
:10d5d40092e1a900111920009140780030ceb300e7
:10d5e40000c0600091e1b70001192000914078006b
:10d5f40080cfb30000c060006040b30090e1b7008a
:10d604004021200001002000b0ba8800c1ba88007f
:10d614000080fa00000006000200fa00000f780003
:10d624001e00780000004000b00c88000080fa0062
:10d63400000006000000fa000000eb00000d880066
:10d64400007d2000f00c88009cc1bf00f041b300b5
:10d654009ce1b7009ce1a900b11920009140780039
:10d6640030ceb30000c060009be1b700a1192000d8
:10d674009140780080cfb30000c060006040b300e8
:10d684009ae1b7004021200001002000d0ba8800b0
:10d69400e1ba88000080fa00000006000200fa00e7
:10d6a400000f78001e00780000004000000d880084
:10d6b4000080fa00000006000000fa000000eb0001
:10d6c400500d8800007d2000400d8800a6c1bf00d9
:10d6d400f041b300a6e1b700a6e1a900511a200069
:10d6e4009140780030ceb30000c06000a5e1b700df
:10d6f400411a20009140780080cfb30000c0600040
:10d704006040b300a4e1b7004021200001002000e4
:10d71400f0ba880001bb88000080fa00000006000f
:10d724000200fa00000f78001e007800000040009c
:10d73400500d88000080fa00000006000000fa0086
:10d744000000eb00a00d880040212000900d88000f
:10d75400b0c1bf00f041b300b0e1b700b0e1a9002f
:10d76400f11a20009140780030ceb30000c0600070
:10d77400afe1b700e11a20009140780080cfb300f8
:10d7840000c060006040b300aee1b700402120005b
:10d794000100200010bb880021bb88000080fa0033
:10d7a400000006000200fa00889fbe00000f780007
:10d7b4001e0078006104b90016bb800027bb8000fe
:10d7c4008800780006007800000ab80007c0b90095
:10d7d400050178000001410009b0b90000014100d1
:10d7e400820278004629dd004a20de000000710034
:10d7f400caa8de00a00d88004f04be000080fa0015
:10d80400000006000000fa000000eb00f00d8800a4
:10d8140040212000e00d8800bac1bf00f041b300f0
:10d82400bae1b700bae1a900911b20009140780049
:10d8340030ceb30000c06000b9e1b700811b200006
:10d844009140780080cfb30000c060006040b30016
:10d85400b8e1b700402120000100200030bb88005f
:10d8640041bb88000080fa00000006000200fa00b4
:10d87400889fbe00000f78001e0078006104b90084
:10d8840036bb800047bb8000880078000600780023
:10d89400000ab80007c0b900050178000001410082
:10d8a40009b0b90000014100820278004629dd0078
:10d8b4004a20de0000007100caa8de00f00d8800d6
:10d8c4004f04be000080fa00000006000000fa00c9
:10d8d4000000eb00400e880040212000300e88003c
:10d8e400c4c1bf00f041b300c4e1b700c4e1a90062
:10d8f400311c20009140780030ceb30000c060009d
:10d90400c3e1b700211c20009140780080cfb30010
:10d9140000c060006040b300c2e1b70040212000b5
:10d924000100200050bb880061bb88000080fa0021
:10d93400000006000200fa00889fbe00000f780075
:10d944001e0078006104b90056bb800067bb8000ec
:10d954008800780006007800000ab80007c0b90003
:10d96400050178000001410009b0b900000141003f
:10d97400820278004629dd004a20de0000007100a2
:10d98400caa8de00400e88004f04be000080fa00e2
:10d99400000006000000fa000000eb00900e880072
:10d9a40040212000800e8800cec1bf00f041b300aa
:10d9b400cee1b700cee1a900d11c2000914078004f
:10d9c40030ceb30000c06000cde1b700c11c200020
:10d9d4009140780080cfb30000c060006040b30085
:10d9e400cce1b700402120000100200070bb88007a
:10d9f40081bb88000080fa00000006000200fa00e3
:10da0400889fbe00000f78001e0078006104b900f2
:10da140076bb800087bb8000880078000600780011
:10da2400000ab80007c0b9000501780000014100f0
:10da340009b0b90000014100820278004629dd00e6
:10da44004a20de0000007100caa8de00900e8800a3
:10da54004f04be000080fa00000006000000fa0037
:10da64000000eb00e00e880040212000d00e88006a
:10da7400d8c1bf00f041b300d8e1b700d8e1a90094
:10da8400711d20009140780030ceb30000c06000ca
:10da9400d7e1b700611d20009140780080cfb3002a
:10daa40000c060006040b300d6e1b7004021200010
:10dab4000100200090bb8800a1bb88000080fa0010
:10dac400000006000200fa00889fbe00000f7800e4
:10dad4001e0078006104b90096bb8000a7bb8000db
:10dae4008800780006007800000ab80007c0b90072
:10daf400050178000001410009b0b90000014100ae
:10db0400820278004629dd004a20de000000710010
:10db1400caa8de00e00e88004f04be000080fa00b0
:10db2400000006000000fa000000eb00300f88003f
:10db340040212000200f8800e2c1bf00f041b30063
:10db4400e2e1b700e2e1a900111e20009140780053
:10db540030ceb30000c06000e1e1b700011e200038
:10db64009140780080cfb30000c060006040b300f3
:10db7400e0e1b7004021200001002000b0bb880094
:10db8400c1bb88000080fa00000006000200fa0011
:10db9400889fbe00000f78001e0078006104b90061
:10dba400b6bb8000c7bb8000880078000600780000
:10dbb400000ab80007c0b90005017800000141005f
:10dbc40009b0b90000014100820278004629dd0055
:10dbd4004a20de0000007100caa8de00300f880071
:10dbe4004f04be000080fa00000006000000fa00a6
:10dbf4000000eb00200888004110200091407800cc
:10dc0400f0ccb30000c0600004e1b7000000eb00fa
:10dc140000088800f0e723001008880005e1a80048
:10dc24000080fa00000006000000fa000000eb008b
:10dc3400800888000111200091407800f0ccb300e6
:10dc440000c0600010e1b7000000eb00300888005d
:10dc5400402120006008880084e0a90011e1a800a8
:10dc64000080fa00000006000000fa000001200015
:10dc7400900888000000eb0050088800f013200092
:10dc8400700888008500a9009500a80013e1a80089
:10dc94000080fa00000006000000fa000080fa008c
:10dca400000006000000fa000001200000098800be
:10dcb4000000eb00c0088800f01f2e00e008880078
:10dcc4008780a9009780a90021e1a9000080fa00bb
:10dcd400000006000200fa0002003700200a80005b
:10dce400000f780040c1bf00684060000004e000fd
:10dcf400faff3a00211420009140780000ceb300ce
:10dd040000c0600042e1b700111420009140780087
:10dd140030ceb30000c060000034a00041e1b70081
:10dd24000114200091407800f0c9b30000c06000e5
:10dd340040e1b70042e1a9000114200091407800bd
:10dd440080cfb30000c060003040b30040e1b700b2
:10dd54008420a9009420a8000080fa000000060096
:10dd64000200fa0002003700a00a8000000f7800c9
:10dd740050c1bf00684060000004e000faff3a00b0
:10dd8400211520009140780000ceb30000c060004f
:10dd940052e1b700111520009140780030ceb30055
:10dda40000c060000034a00051e1b700011520005c
:10ddb40091407800f0c9b30000c0600050e1b700a2
:10ddc40052e1a900011520009140780080cfb300f2
:10ddd40000c060003040b30050e1b70088a0a90043
:10dde40098a0a8000080fa00000006000000fa00d5
:10ddf40023c3bf007f40600023e3b70010c0b3001b
:10de040024e3b700013220009140780000ceb30033
:10de140000c0700020e3b700513220009140780028
:10de240000ceb30000c06000f040b30025e3b700ab
:10de34001132200091407800c0cfb30000c06000d0
:10de440021e3b700213220009140780030ccb300a8
:10de540000c06000c1c2b3000140700022e3b700fb
:10de6400f0f02f00801988002343a80021e3a800c4
:10de740095a0a80085a0a9000080fa000000060073
:10de84000000fa0040042000401188000000eb006c
:10de9400001188002062a8000000eb001011880027
:10dea40021e2a8002342a8008580a9009580a8004b
:10deb4009560a8000080fa00000006000000fa0047
:10dec400889fbe008420a90038003700200a800003
:10ded400306d8800e46f8000316d8000206d80001b
:10dee400008050006101b800c220dd0040db20004a
:10def400008040000288be00e06f8000c200dd00a8
:10df040040db2000008040001000be00e00f500005
:10df1400e08f580003003500e06c80000000e00052
:10df24001a003200e56f8000e06f8000c200dd005f
:10df340040db2000008040001004be00e06c800044
:10df44006103b800860078000080eb000009b80087
:10df54006030b90003027800000242000080eb0048
:10df640000b8b900000242008401780008014100b1
:10df740089814900c228dd0040db20000080400088
:10df84000288be000000eb00e06c8800306d800069
:10df9400206d8800e06f80000000e800e06f8800da
:10dfa400e06f800063006000e06f880040c1bf0044
:10dfb400684060000004e000c4ff3a00c0da2000ba
:10dfc4001000be0061004000e0804800c2da20007a
:10dfd4000089be004f04be000080fa000000060065
:10dfe4000000fa00889fbe0088a0a9003c0037000a
:10dff400a00a8000506d8800f46f8000516d80008d
:10e00400406d8000008050006101b8004220dd00b6
:10e01400f000400040db2000008040000288be0089
:10e02400f06f80004200dd00f000400040db200083
:10e03400008040001000be00e00f5000e08f580048
:10e0440003003500006d80000000e0001c00320079
:10e05400f56f8000f06f80004200dd00f0004000aa
:10e0640040db2000008040001004be00006d8000f2
:10e074006103b800860078000080eb000009b80056
:10e084006030b90003027800000242000080eb0017
:10e0940000b8b90000024200840178000801410080
:10e0a400898149004228dd00f000400040db200067
:10e0b400008040000288be000000eb00006d880074
:10e0c400506d8000406d8800f06f80000000e80013
:10e0d400f06f8800f06f800063006000f06f8800cc
:10e0e40050c1bf00684060000004e000c0ff3a0077
:10e0f400c0da2000b00090002000900061004000d1
:10e10400e0804800c2da2000200198003101980024
:10e114004f04be000080fa00000006000000fa0070
:10e124008760a900c06c80000000e800c06c880013
:10e13400d06c80000000e800d06c8800e06c8000a7
:10e144000000e800e06c8800f06c80000000e8004b
:10e15400f06c8800006d80000000e800006d88000d
:10e16400106d80000000e800106d88000080fa0047
:10e17400000006000000fa0084e0a9000080fa0014
:10e18400000006000200fa008500a90030088000a3
:10e19400000f7800307a80000000e800307a8800b0
:10e1a400307a80000000e000030035000000eb003e
:10e1b400307a88002043a8000080fa00000006009e
:10e1c4000200fa008780a900208380000000e80094
:10e1d4002083880020838000e20f50000800340070
:10e1e4009780a90021e1a9000000eb00c008880085
:10e1f4000000eb00f08288000000eb002083880020
:10e20400508280000000e00026003a0012bd800029
:10e2140023bd8000b08f200001002000800f51003a
:10e22400818f59001f0034001000200050828800a4
:10e2340010002000106b88000000eb00206b8800a9
:10e244000000eb00306b88000000eb00000f78004a
:10e25400050037001e00780068f007001e007800f3
:10e2640076f007001e0fe800200020009e0f10002b
:10e27400f8ff3400dd42a9000000eb00e6fc0700d3
:10e28400dce2a800f502a9000000eb0003fd070092
:10e29400cca2a800ec22a9000000eb00defc0700e1
:10e2a400ec02a8000080fa00000006000400fa0056
:10e2b4002043a90085a0a900d17a800040188000dd
:10e2c4000001780081804000a0f42000008040001c
:10e2d40002087800d17a800050188000000178008c
:10e2e40001804000e8004000a0f4200000804000cd
:10e2f4000208780091718000301880006101b80034
:10e30400c208dd0020e02000008040000288be003a
:10e3140091718000101880006101b8004208dd008e
:10e32400f000400020e02000008040000288be0091
:10e3340091718000b01880006101b8004208dd00ce
:10e34400010220008080400020e020000080400086
:10e354000288be00327b8000801880008001780033
:10e36400a177210002004100010040000308780069
:10e37400327b800090188000800178002178210091
:10e38400020041000100400003087800337b800054
:10e39400307b8000a1772100000040000100400094
:10e3a40010017800307b80002178210000004000bb
:10e3b400010040001000780000014100e1f5200058
:10e3c400038041000100400002087800817b800046
:10e3d400601880000001780081804000607a21008c
:10e3e4000080400002087800817b80007018800063
:10e3f4000001780001804000e8004000607a2100bc
:10e40400008040000208780090718000c200dd00a6
:10e4140020e02000008040001001be0090718000c8
:10e424004200dd00f000400020e0200000804000b9
:10e434001000be00020140008381480090718000fa
:10e444004200dd00010220008080400020e0200026
:10e45400008040001000be0002004000838048009d
:10e4640010bd880021bd8800807b80000000e8008a
:10e47400807b8800807b800063006000807b880054
:10e48400307b80000000e800307b8800307b800017
:10e4940063006000307b8800d07a80000000e800d0
:10e4a400d07a8800d07a800063006000d07a880037
:10e4b400907180000000e8009071880090718000e5
:10e4c40063006000907188000000eb00383307009f
:10e4d40027d8070060c088001000200034330700ec
:10e4e40023d8070070c088002000200030330700c4
:10e4f4001fd8070090c088000ad8bf00ea4f500018
:10e5040004013a0023c2bf00624060000004e0003e
:10e5140000013a0074d0bf000004e000fd003a009e
:10e5240078d0bf000080fb00201188000bd8bf000a
:10e5340075f0b70075d0bf0006f8b70075d0bf00fe
:10e544000080fb00c2032000110009000280d800f3
:10e554008000fd000080fb006101b900028fbe0055
:10e5640020032000010020001e01be00800f510086
:10e57400818f5900d3003e001e00be0000600100e0
:10e5840032003700cf00370036003700cd003700a7
:10e594003a003700cb0037003e003700c90037008f
:10e5a40042003700c700370046003700c500370077
:10e5b4004a003700c30037004e003700c10037005f
:10e5c40052003700bf00370056003700bd00370047
:10e5d4005b003700bb0037005f003700b90037002d
:10e5e40063003700b700370067003700b500370015
:10e5f4006b003700b30037006f003700b1003700fd
:10e6040073003700af00370077003700ad003700e4
:10e614007b003700ab0037007f003700a9003700cc
:10e6240083003700a700370087003700a5003700b4
:10e634008b003700a30037008f003700a10037009c
:10e64400930037009f0037009800370050ec80009b
:10e654004800de0007f8b70050ec800008f8b70067
:10e664009800370080e680004880de0007f8b70095
:10e6740080e6800008f8b7009200370090e680003a
:10e684004880de0007f8b70090e6800008f8b7007d
:10e694008c003700a0e680004880de0007f8b70051
:10e6a400a0e6800008f8b70086003700b0e68000d6
:10e6b4004880de0007f8b700b0e6800008f8b7002d
:10e6c40080003700c0e680004880de0007f8b7000d
:10e6d400c0e6800008f8b7007a003700d0e6800072
:10e6e4004880de0007f8b700d0e6800008f8b700dd
:10e6f40074003700f0e680004880de0007f8b700b9
:10e70400f0e6800008f8b7006e00370000e78000ec
:10e714004880de0007f8b70000e7800008f8b7007b
:10e724006800370080d721001040780007f8b70050
:10e7340090d721001040780008f8b7006100370036
:10e74400d0eb80004880de0007f8b700d0eb8000f3
:10e7540008f8b7005b003700e0eb80004880de007b
:10e7640007f8b700e0eb800008f8b7005500370061
:10e7740030ec80004880de0007f8b70030ec800001
:10e7840008f8b7004f00370040ec80004880de00f6
:10e7940007f8b70040ec800008f8b70049003700dc
:10e7a40060c080004800de0007f8b70060c0800049
:10e7b40008f8b7004300370070c080004800de004e
:10e7c40007f8b70070c0800008f8b7003d003700b4
:10e7d40080c080004800de0007f8b70080c08000d9
:10e7e40008f8b70037003700a0f980004880de0041
:10e7f40007f8b700a0f9800008f8b7003100370027
:10e80400b0f980004880de0007f8b700b0f9800056
:10e8140008f8b7002b003700a0ff80004800de0096
:10e8240007f8b700a0ff800008f8b70025003700fc
:10e83400d08380004800de0007f8b700d083800052
:10e8440008f8b7001f00370030fe80004800de00e3
:10e8540007f8b70030fe800008f8b7001900370049
:10e8640040fe80004800de0007f8b70040fe80004c
:10e8740008f8b7001300370020ff80004800de00ce
:10e8840007f8b70020ff800008f8b7000d00370034
:10e894007cd0bf000080fb004880de0007f8b70092
:10e8a4007cd0bf0008f8b700060037007ed0bf0058
:10e8b4000080fb004880de0007f8b7007ed0bf0070
:10e8c40008f8b70006d8bf008080fb0007d8bf0057
:10e8d4000080fb008080400008d8bf000080fb005f
:10e8e40000804000f20f2000110009000200d8004f
:10e8f4008000fd008040780000c0eb000140500023
:10e9040009f8b7000040eb000af8b7000040eb003c
:10e914000bf8b7000080fa00000006000000fa00bf
:10e924008580a90074d0bf00e34f50000b003e0067
:10e9340074d0bf008080fb00608021000080400014
:10e94400104078000080fb002011880074d0bf00c4
:10e954000040e80074f0b700020037000040eb000c
:10e9640074f0b7000080fa00000006000800fa0006
:10e974008560a9000000eb00100798000000eb0080
:10e98400000f78003011800010c088008083800060
:10e994000000e00008003a0078d0bf008080fb004f
:10e9a40010c08000808f500075003a0010002000d5
:10e9b400808388007200370080838000e10f50005c
:10e9c4006f003a009083800012c0800080004000f5
:10e9d400607f21000080400002087800908380005e
:10e9e4000000e8009083880090838000e50f5000c9
:10e9f400630034000000eb00000f78000000eb001f
:10ea040010079800090037001e00900080004000a5
:10ea1400607f210000804000100078001e0f40003d
:10ea24001e0090000000e800100798001e009000ef
:10ea3400e50f5000f4ff34001e007800f20f2000b0
:10ea4400110009000200d8008000fd000000e00071
:10ea540047003a00b0bf8000c300dd0080c12f0032
:10ea64000080400050bc8800c0bf8000c300dd00af
