:020000040000fa
:040010009424000034
:020000040000fa
:04025c0094240000e6
:020000040000fa
:040210009424000032
:020000040000fa
:0402740094240000ce
:020000040000fa
:04033400942400000d
:020000040000fa
:04035c0094240000e5
:020000040000fa
:0402700094240000d2
:020000040000fa
:04022c009424000016
:020000040000fa
:04023c009424000006
:020000040000fa
:0402bc009424000086
:020000040000fa
:0402c0009424000082
:020000040000fa
:0402c400942400007e
:020000040000fa
:0402c800942400007a
:020000040000fa
:0402800094240000c2
:020000040000fa
:0402840094240000be
:020000040000fa
:04039c0094240000a5
:020000040000fa
:04022800942400001a
:020000040000fa
:0402780094240000ca
:020000040000fa
:04029c0094240000a6
:020000040000fa
:0402fc009424000046
:020000040000fa
:040300009424000041
:020000040000fa
:0402600094240000e2
:020000040000fa
:0402640094240000de
:020000040000fa
:04027c0094240000c6
:020000040000fa
:0402880094240000ba
:020000040000fa
:0402b0009424000092
:020000040000fa
:0402b400942400008e
:020000040000fa
:0402b800942400008a
:020000040000fa
:04023800942400000a
:020000040000fa
:0402e0009424000062
:020000040000fa
:0402e400942400005e
:020000040000fa
:0402e800942400005a
:020000040000fa
:0402f400942400004e
:020000040000fa
:0402f800942400004a
:020000040000fa
:04030400942400003d
:020000040000fa
:040308009424000039
:020000040000fa
:04030c009424000035
:020000040000fa
:040310009424000031
:020000040000fa
:04031400942400002d
:020000040000fa
:040318009424000029
:020000040000fa
:04031c009424000025
:020000040000fa
:04032400942400001d
:020000040000fa
:040328009424000019
:020000040000fa
:040338009424000009
:020000040000fa
:04033c009424000005
:020000040000fa
:040340009424000001
:020000040000fa
:0403440094240000fd
:020000040000fa
:04034c0094240000f5
:020000040000fa
:0403500094240000f1
:020000040000fa
:0403540094240000ed
:020000040000fa
:0403580094240000e9
:020000040000fa
:0403600094240000e1
:020000040000fa
:0403640094240000dd
:020000040000fa
:0403680094240000d9
:020000040000fa
:0403480094240000f9
:020000040000fa
:04026c0094240000d6
:020000040000fa
:0402f0009424000052
:020000040000fa
:04037c0094240000c5
:020000040000fa
:04021800942400002a
:020000040000fa
:040230009424000012
:020000040000fa
:040240009424000002
:020000040000fa
:04028c0094240000b6
:020000040000fa
:0402900094240000b2
:020000040000fa
:0402cc009424000076
:020000040000fa
:0402d0009424000072
:020000040000fa
:0402d400942400006e
:020000040000fa
:0402d800942400006a
:020000040000fa
:0403980094240000a9
:020000040000fa
:04020c009424000036
:020000040000fa
:0402dc009424000066
:020000040000fa
:040320009424000021
:020000040000fa
:04020800942400003a
:020000040000fa
:04021c009424000026
:020000040000fa
:040220009424000022
:020000040000fa
:04022400942400001e
:020000040000fa
:0402680094240000da
:020000040000fa
:0402ec009424000056
:020000040000fa
:0403780094240000c9
:020000040000fa
:04024c0094240000f6
:020000040000fa
:0402500094240000f2
:020000040000fa
:0402a800942400009a
:020000040000fa
:0402ac009424000096
:020000040000fa
:0403900094240000b1
:020000040000fa
:0403940094240000ad
:020000040000fa
:04021400942400002e
:020000040000fa
:04023400942400000e
:020000040000fa
:0402440094240000fe
:020000040000fa
:0402480094240000fa
:020000040000fa
:0402940094240000ae
:020000040000fa
:0402980094240000aa
:020000040000fa
:04032c009424000015
:020000040000fa
:0402540094240000ee
:020000040000fa
:0402580094240000ea
:020000040000fa
:040330009424000011
:020000040000fa
:0402a00094240000a2
:020000040000fa
:0402a400942400009e
:020000040000fa
:04036c0094240000d5
:020000040000fa
:0403700094240000d1
:020000040000fa
:0403740094240000cd
:020000040000fa
:0403840094240000bd
:020000040000fa
:0403880094240000b9
:020000040000fa
:04038c0094240000b5
:020000040000fa
:0403800094240000c1
:020000040000fa
:0400740094240000d0
:020000040000fa
:04013400942400000f
:020000040000fa
:04015c0094240000e7
:020000040000fa
:0400700094240000d4
:020000040000fa
:0400c0009424000084
:020000040000fa
:0400c4009424000080
:020000040000fa
:0400c800942400007c
:020000040000fa
:0400800094240000c4
:020000040000fa
:0400840094240000c0
:020000040000fa
:04019c0094240000a7
:020000040000fa
:04002800942400001c
:020000040000fa
:0400780094240000cc
:020000040000fa
:04009c0094240000a8
:020000040000fa
:0400fc009424000048
:020000040000fa
:040100009424000043
:020000040000fa
:0400600094240000e4
:020000040000fa
:0400640094240000e0
:020000040000fa
:04007c0094240000c8
:020000040000fa
:0400880094240000bc
:020000040000fa
:0400b0009424000094
:020000040000fa
:0400b4009424000090
:020000040000fa
:0400b800942400008c
:020000040000fa
:04003800942400000c
:020000040000fa
:0400e0009424000064
:020000040000fa
:0400e4009424000060
:020000040000fa
:0400e800942400005c
:020000040000fa
:0400f4009424000050
:020000040000fa
:0400f800942400004c
:020000040000fa
:04010400942400003f
:020000040000fa
:04010800942400003b
:020000040000fa
:04010c009424000037
:020000040000fa
:040110009424000033
:020000040000fa
:04011400942400002f
:020000040000fa
:04011800942400002b
:020000040000fa
:04011c009424000027
:020000040000fa
:04012400942400001f
:020000040000fa
:04012800942400001b
:020000040000fa
:04013800942400000b
:020000040000fa
:04013c009424000007
:020000040000fa
:040140009424000003
:020000040000fa
:0401440094240000ff
:020000040000fa
:04014c0094240000f7
:020000040000fa
:0401500094240000f3
:020000040000fa
:0401540094240000ef
:020000040000fa
:0401580094240000eb
:020000040000fa
:0401600094240000e3
:020000040000fa
:0401640094240000df
:020000040000fa
:0401680094240000db
:020000040000fa
:0401480094240000fb
:020000040000fa
:04006c0094240000d8
:020000040000fa
:0400f0009424000054
:020000040000fa
:04017c0094240000c7
:020000040000fa
:04001800942400002c
:020000040000fa
:040030009424000014
:020000040000fa
:040040009424000004
:020000040000fa
:04008c0094240000b8
:020000040000fa
:0400900094240000b4
:020000040000fa
:0400cc009424000078
:020000040000fa
:0400d0009424000074
:020000040000fa
:0400d4009424000070
:020000040000fa
:0400d800942400006c
:020000040000fa
:0401980094240000ab
:020000040000fa
:04000c009424000038
:020000040000fa
:0400dc009424000068
:020000040000fa
:040120009424000023
:020000040000fa
:04000800942400003c
:020000040000fa
:04001c009424000028
:020000040000fa
:040020009424000024
:020000040000fa
:040024009424000020
:020000040000fa
:0400680094240000dc
:020000040000fa
:0400ec009424000058
:020000040000fa
:0401780094240000cb
:020000040000fa
:04004c0094240000f8
:020000040000fa
:0400500094240000f4
:020000040000fa
:0400a800942400009c
:020000040000fa
:0400ac009424000098
:020000040000fa
:0401900094240000b3
:020000040000fa
:0401940094240000af
:020000040000fa
:040014009424000030
:020000040000fa
:04012c009424000017
:020000040000fa
:040130009424000013
:020000040000fa
:0400a00094240000a4
:020000040000fa
:0400a40094240000a0
:020000040000fa
:04016c0094240000d7
:020000040000fa
:0401700094240000d3
:020000040000fa
:0401740094240000cf
:020000040000fa
:0401840094240000bf
:020000040000fa
:0401880094240000bb
:020000040000fa
:04018c0094240000b7
:020000040000fa
:080000000020040000000000d4
:020000040000fa
:104000000f8221000e7f24000e01880000000000b6
:10401000000020000000e00002003200000120004b
:104020002002880014000700410207000000e000a1
:1040300003003a00808f25000100200002003700b5
:104040000000200001002000810f700001003200fc
:1040500014000700000020000000e0000200320011
:104060000000020000000000f82b02000000000029
:104070000040da000000fe004440a900000f2000cc
:104080000000e0000300320000002000a0018800d2
:104090004440a800000006008a1f78008b1f7800ab
:1040a0000000060091018800800478000000eb0009
:1040b0001a003700e284440032a0b4009905ba0027
:1040c000e284440032a0b4009906ba00e2844400bd
:1040d00032a0b4000006eb00476fde00fd07b2001f
:1040e000636ce10003003a00ebff07000000eb0007
:1040f0000a003700606ce10004003a00005deb004c
:104100008b05e900fdff3e00040037006168e10017
:10411000010032000086eb000b00070019c7ba004f
:104120001905ba000e04e00003003a000a00e0009e
:10413000e0ff3a0000000600fe07b2009e01880082
:104140008a047800f5ff3700395dba008b05e90075
:104150000c003200295dba008b05e900080032002e
:104160000c00e00003003a00e284440032a0b400f6
:10417000f5ff370019ddba008b05e900faff3a00b8
:104180008904e800e184440032a0b4000000060085
:10419000189e0400000000001480040000000000cd
:1041a000229e0400000000003600f800809fbe0040
:1041b000829fbe00849fbe00869fbe003400f80030
:1041c00000002000a00188000200fa0000408000ea
:1041d000e10f50000b003a00a124800000042000f1
:1041e000008060000000e00006003a00f00f2000b0
:1041f000502488008c04a8008c84a8002000200093
:104200000040880000248000700060000000e00092
:104210000700320010248000700060000000e00001
:104220000300320000012000002488002c3e07001b
:1042300040248000620060000000e00002003200c4
:104240008ec0a90078003700502480006100600013
:104250000000e0001a00320060248000610060006d
:104260000000e00016003200e43207009ec0a80003
:104270004000200000408800a073210010c088008a
:104280000080210081c0b300014878001080210027
:1042900010407800e3406000108021000148780061
:1042a0001080210090407800c0c8b30080c070002a
:1042b0001080210001487800100020005024880060
:1042c00050248000700060000000e0000700320011
:1042d00060248000700060000000e00003003200f5
:1042e000f53d070000012000502488005024800084
:1042f000640060000000e0000a00320060248000da
:10430000640060000000e00006003200120020009f
:104310008000eb0030072000a3370700400020009a
:104320005024880051248000000820000080600094
:104330000000e00006003200612480000008200038
:10434000008060000000e00001003200293c07000e
:1043500050248000620060000000e0000a0032008b
:1043600060248000620060000000e000060032006f
:10437000120020008000eb00f0ff27008a370700c2
:10438000f00f20007024880000408000e30f5000f0
:1043900002003e008ec0a900230037006024800088
:1043a000680060000000e0001e0032000040eb00ea
:1043b000004f78001600370050248000680060002d
:1043c0000000e000160032009024800000407800d9
:1043d00016e8b700800020005024880016c8bf00ef
:1043e0008080fb00000f2000008060000000e000e3
:1043f00002003a0059340700040037000001eb00c6
:104400006181200020072000673707001e4fe80069
:104410001e407800e34f5000e7ff360001003700f0
:10442000000000008ec0a9000080fa003400f900ee
:104430004f03be004f02be004f01be004f00be0042
:104440003600f900004006003600f800809fbe00ec
:10445000829fbe00849fbe00869fbe003400f8008d
:1044600000002000a00188000000fa00c042800087
:10447000000001000080fa003400f9004f03be0084
:104480004f02be004f01be004f00be003600f900d3
:10449000004006003600f800809fbe00829fbe00ec
:1044a000849fbe00869fbe003400f80000002000fc
:1044b000a00188000000fa00d04280000000010046
:1044c0000080fa003400f9004f03be004f02be0026
:1044d0004f01be004f00be003600f900004006004c
:1044e0003600f800809fbe00829fbe00849fbe0001
:1044f000869fbe003400f80000002000a001880064
:104500000000fa00e0428000000001000080fa0094
:104510003400f9004f03be004f02be004f01be0041
:104520004f00be003600f900004006003600f800db
:10453000809fbe00829fbe00849fbe00869fbe00fb
:104540003400f80000002000a00188000000fa00fc
:10455000f0428000000001000080fa003400f90001
:104560004f03be004f02be004f01be004f00be0011
:104570003600f900004006003600f800809fbe00bb
:10458000829fbe00849fbe00869fbe003400f8005c
:1045900000002000a00188000000fa000043800015
:1045a000000001000080fa003400f9004f03be0053
:1045b0004f02be004f01be004f00be003600f900a2
:1045c000004006003600f800809fbe00829fbe00bb
:1045d000849fbe00869fbe003400f80000002000cb
:1045e000a00188000000fa00504380000000010094
:1045f0000080fa003400f9004f03be004f02be00f5
:104600004f01be004f00be003600f900004006001a
:104610003600f800809fbe00829fbe00849fbe00cf
:10462000869fbe003400f80000002000a001880032
:104630000200fa008560a9000900370030118000ef
:10464000004f780000872000d83c07000000e00001
:10465000030034009e40780000872000c83a07001d
:1046600010118000610060000000e000f3ff3a00dc
:1046700010118000620060000000e00001003200c4
:104680002222a9000080fa003400f9004f03be0086
:104690004f02be004f01be004f00be003600f900c1
:1046a000004006003600f800809fbe00829fbe00da
:1046b000849fbe00869fbe003400f80000002000ea
:1046c000a00188000000fa008580a90004003700de
:1046d00080872000733a07000080fb0020118800cb
:1046e0001111800000202000008060000000e00028
:1046f00004003a0080872000203d07000000e00011
:10470000f3ff3c000080fa003400f9004f03be00c4
:104710004f02be004f01be004f00be003600f90040
:10472000004006003600f800809fbe00829fbe0059
:10473000849fbe00869fbe003400f8000000200069
:10474000a00188000200fa00d0168000610060001d
:1047500000f0a7000000ea00000fe9001e0078004a
:104760004f00de00000f78000f003700200a8000a5
:10477000000178009e0078000000eb00ce350700b5
:104780001e0078000000e00004003a00a0738000e2
:104790000000e900a073880003003700a0738000c8
:1047a0000000e800a0738800000a80006800600034
:1047b0000000e000edff3a008420a9000080fa002c
:1047c0003400f9004f03be004f02be004f01be008f
:1047d0004f00be003600f900004006003600f80029
:1047e000809fbe00829fbe00849fbe00869fbe0049
:1047f0003400f80000002000a00188000200fa0048
:1048000011178000000220000080600000f0a70067
:104810000000ea00000fe9001e0078004f00de00f3
:10482000000f78000f003700600a80000001780058
:104830009e007800100020009f3507001e007800c1
:104840000000e00004003a00b07380000000e900be
:10485000b073880003003700b07380000000e800e8
:10486000b0738800400a8000680060000000e0002b
:10487000edff3a0084a0a9000080fa003400f9009e
:104880004f03be004f02be004f01be004f00be00ee
:104890003600f900004006003600f800809fbe0098
:1048a000829fbe00849fbe00869fbe003400f80039
:1048b00000002000a00188000200fa00101780000c
:1048c0006100600000f0a7000000ea00000fe900ae
:1048d0001e0078004f00de00000f78000500370052
:1048e000a00a8000000178009e00780020002000cf
:1048f00071350700400a8000680060000000e00099
:10490000f7ff3a0088a0a9000080fa003400f900ff
:104910004f03be004f02be004f01be004f00be005d
:104920003600f900004006000040da000000fe00fa
:104930000000050003f0a200889fbe008a9fbe0011
:104940008c1f78002a010700310133006450e10018
:104950004f0032006420e1005200320003826c00fc
:1049600007003b000905d0000306d000820f540069
:104970000c065d0002003900020032008901780057
:10498000030678008582550004003d000003fd0009
:104990008103fd008502ea008b854200840f7200ce
:1049a00002003b0060001000e08018006011b800b9
:1049b0000005eb007a28e1000a00390006007800c3
:1049c000c75ddd00f707b200878075002d00370056
:1049d000828171000a017800610560008180d10048
:1049e0000080d3008502e900f9ff3b000604400087
:1049f0008784480002003b0060041400e0841c002f
:104a00000988a300070032008a8171008281710049
:104a1000610164008904d1000884d3008b05e8009b
:104a2000170037000978a30013003a000b00e000dc
:104a3000130034008b05e9000804440089844c000d
:104a40000a4474000978a3000d003a000b00e0004e
:104a5000070034008b05e9000804440089844c00f9
:104a600001003a000b0020000978a300f7ff320094
:104a70000001eb0002003700828171000a0178001a
:104a8000a00007000cf0a70001f0a000e90037002b
:104a90006420e10002003a00838f6c00e9003300db
:104aa0000801be000200be00e2003700889fbe0081
:104ab0008a9fbe008c1f7800cd000700d400330011
:104ac00003866c006450e1002e0032006420e10097
:104ad000330032006150e1002f0032006120e1001c
:104ae0003100320085855500eb07b0000900200039
:104af00008042000050037000804440089844c00a5
:104b00000a0031000603430087834b000001530075
:104b100081815b00f8ff33000203be000800a000a3
:104b20000804440089844c00f6ff3900c639dd00d2
:104b30008301730001003200130020008904d100ba
:104b40000884d3000998a300050032000800a700dc
:104b50000300a0008904d1000884d3008b05e8007d
:104b60008904d1000884d3000001eb000281d20047
:104b70006400070001f0a1000cf0a70001f0a00004
:104b8000ac0037006420e100ae0032000801be0036
:104b90000200be00f7ff37006120e100a9003200eb
:104ba0006000b800f3ff37000000200001f8270084
:104bb000f0ff3700839f68000100e00002003d0025
:104bc00060001000e08018000300e00002003d00db
:104bd00060011100e0811900d10007004f00e000e2
:104be00002003b0060001000e0801800000006009a
:104bf00014002000a7013700f4ff2f00a5013700a3
:104c00000001be00650007000470a70003f0a100ca
:104c10006509b100160032000d0035006828e1007a
:104c200006003500f0ff2f00f1ff27000300e00031
:104c300013003b00010028000000050000004000b8
:104c4000818048008502e900fcff3a000800370037
:104c5000f88f420002003c008000eb0000000500dd
:104c60008100d1000080d3008502e800fcff3a00fb
:104c70000300e00002003b0060001000e08018002c
:104c8000000006000001be00440007000470a700f9
:104c900003f0a10003f8a30013003a006509b10076
:104ca00010003200090035006928e10002003500db
:104cb000010028000000050000004000818048003d
:104cc0008502e900fcff3a0000000600f88f420070
:104cd000050035008100d1000080d3008502e80086
:104ce000fcff3a00000006008000eb000000050019
:104cf0004f89de0082017800810137006011b80021
:104d00008f01370081002000618055000b003d00bd
:104d10000b00200061fe2f000100e1001d003400a7
:104d200082817100610164008904d1000884d3008c
:104d30000000e800faff3a00710020006100640002
:104d400003007000020060000900320061044400aa
:104d5000e0844c000988a500050032008b05e800be
:104d60006808e10002003a008904d1000884d300f9
:104d7000f20f20000258e10005003d00c75ddd0094
:104d8000f907b2008980750008007800000006006d
:104d90000bf827008b00780000000500c70ade0032
:104da000f107b200f50fb20008003200e1cf420077
:104db000020032000170a00024000500810f700085
:104dc000010032000408050044000500810f700056
:104dd00002003a00140005008502e90000004000ce
:104de00081c04800fcff3b000170a00024000500ca
:104df0000004be00e9ff07000003be000405be007a
:104e00000200be00e5ff0700844f750000000600a9
:104e10000200be006450e100050036006420e1009d
:104e2000020036000968a30001003a000800be0035
:104e30000160a0004f0678004f05be004f04be0081
:104e400000000600f0ff2f00f1ff2700f9ff3700f8
:104e5000889fbe008a9fbe008c1f7800e4ff070079
:104e6000ebff330003866c006450e1002400320045
:104e70006420e100270032006150e100220032008e
:104e80006120e100210032008b854200eb07b10078
:104e90000134b800003ab8000804420089844a008e
:104ea000013ab8000030b8008880400009014a008b
:104eb00004003300000040008180480002014900e6
:104ec0008b05e900c909dd00830170000100320093
:104ed00013002000c814de004814dd004709de007e
:104ee0001200b200c808de000884700085ff0700c9
:104ef00001f0a1000cf0a70001f0a000cdff3700e9
:104f00006120e100cfff32000801be000200be00b8
:104f1000f7ff37006150e100fcff3a00c9ff37009e
:104f20006022b800060220000000d0008180d2007c
:104f30000482d2008582d2000000a000020252004a
:104f400083825a00030031000202420083824a0039
:104f50000000a1000603e900f3ff3a00000006008c
:104f6000889fbe008a9fbe0030044200b0844a0081
:104f700030054b0090854b006000b1000898be00e2
:104f80000a90be000440e10005c8e10006d0e1003f
:104f900007d8e10002003100680040001008e80076
:104fa0004f05be004f04be0000000600889fbe00f3
:104fb0008a9fbe003004be002005be0004185400c5
:104fc00005985c0006185d0007985d001100200040
:104fd0000440e10005c8e10006d0e10007d8e10087
:104fe000010039008000eb00108810004f05be0062
:104ff0004f04be00000006001200fa00889fbe00a9
:105000008a9fbe008c9fbe00e0b79f00f1b79f0053
:1050100082bf9f0093bf9f000605be000404be0030
:105020000000eb00d0b79f00c0b79f00b0b79f0053
:10503000a0b79f0090b79f000006eb005fb19700fc
:10504000cfb09700820141003fb097000200e0001e
:1050500004003d00370007007e805700c0ff0700b6
:1050600003003700330007007e805700cfff0700a2
:10507000dfb697000d00e0000c0035006fb297001e
:10508000ffb297000fbb97009fbb97001000200056
:10509000010020006011b8000002720081827200dd
:1050a00002037300838373001b0007000c06e800f3
:1050b00001042000810f5600e0ff3a000d00e000df
:1050c00004003d000802be000a03be007e805700b7
:1050d000a3ff07005fa897000000e00005003a006a
:1050e0001fb29700afb297003fb39700cfb39700be
:1050f000090007006fb09700ffb097000fb9970045
:105100009fb997004f06be004f05be004f04be007a
:105110000080fa0000000600010007000000060001
:10512000a4b79f00b5b79f00c6b79f00d7b79f0031
:10513000000006004f09de0082817100b3b79f00b6
:105140004f01de008180400082807000a1b79f0087
:105150008fb097004f09de00000040000200700091
:1051600090b79f007fa897004f01de00818040002c
:105170008280700081b79f000d0007004f3ade006b
:105180000000400004007000f0af9f00080007001e
:105190000402420085824a0006034b0087834b00cd
:1051a000dfff07000802be000a03be000000060081
:1051b0002fb29700bfb297004fb39700dfb39700ad
:1051c00000000600881f780018002000881f780063
:1051d00089ff07008f87e9004f0478000000060070
:1051e000801feb0084ff07008f87e90000000600a6
:1051f000889fbe008a9fbe008c1f78000006eb00cf
:10520000e00f5000e08f5800e00f5900e08f590088
:1052100007003d006044b8006055b800000054002d
:1052200081805c0002015d0083815d001c00200024
:10523000e00f5200e08f5a00e00f5b00e08f5b0050
:1052400007003d006044b8006055b80004025400f7
:1052500085825c0006035d0087835d000c00a20070
:10526000660007000c00e000060032006022b80073
:105270006033b8000000520081805a0002015b00d8
:1052800083815b004f0678004f05be004f04be00cf
:1052900000000600889fbe008a9fbe00841f780021
:1052a000d3fe07004f00780011003300f0ff2f00fd
:1052b000838f6c0006003b00040565000a00a70010
:1052c0000800370009f0a600100020000800370091
:1052d000820f5400838f5c0003003900100020000f
:1052e00001003e000000200009f0a7000000ea00d5
:1052f0004f05be004f04be000000e00000000600a5
:10530000881f7800030478000300e00007003d00d8
:1053100060001000e080180060011900e0811900b1
:1053200002003b0001f02d000300370004000700dd
:1053300008f0a70001f0a0004f047800000006006c
:10534000889fbe008a9fbe00008270000402710028
:1053500004827100260032000004be000200be007c
:105360006011b8006b092000950220000182cf0077
:105370000a0039000541b1000082cf000700390062
:105380000541b1000982cf00040039000541b10098
:105390000882cf00010039000541b10005425200ea
:1053a000120032000a003b0082817100610164003a
:1053b0008100d1000080d3008984d3000884d30009
:1053c0008b05e8000442e800f7ff3a0007003700c9
:1053d0000804440089844c00000048008180480093
:1053e0008b05e9000442e900f9ff3a0045fe070099
:1053f0004f05be004f04be0000000600889fbe009f
:105400008a9fbe008c9fbe000404b8000506b80049
:105410008904460060854e000606b8000a0546006d
:10542000e0854e000706b8008b054600040eb80064
:10543000890446000a854e00e0854d00050eb8003f
:105440000a0546008b854e00060eb8008b05460007
:105450000416b8000a0546008b854e000516b800f4
:105460008b054600041eb8008b0546000800be00f0
:105470000a01be004f06be004f05be004f04be002d
:10548000000006008001780002003700b159780062
:105490000201e9000200e000fcff3a000000060003
:1054a0008001780002003700815978000201e9008c
:1054b0000200e000fcff3a00000006000200370096
:1054c0000204e0000b003200810178000002780045
:1054d00030417800b14f5100f9ff32001000200038
:1054e00014427800934f5200030031000080eb001b
:0c54f000000006000000eb0000000600b9
:020000040000fa
:04018000d420000087
:020000040000fa
:020000040005f5
:0457fc00f73e000074
:020000040000fa
:020000040005f5
:0457f8009e430000cc
:020000040000fa
:040034002422000082
:020000040000fa
:040044004a2200004c
:020000040000fa
:040048007022000022
:020000040000fa
:0400940096220000b0
:020000040000fa
:04009800bc22000086
:020000040000fa
:04005c00e22200009c
:020000040000fa
:04005400082300007d
:020000040000fa
:04005800522300002f
:020000040000fa
:04002c00922300001b
:020000040000fa
:04003c00ee230000af
:020000040000fa
:0400bc004c240000d0
:020000040000fa
:1054fc0009020000200000000101000000c00000b3
:10550c00320900000400000000020000ffff000050
:10551c00ff0000000705000001010000ffff000074
:10552c00010700000581000001ff0000ff010000e1
:10553c0004030000010000001a03000052000000e8
:10554c006f000000620000006f000000740000009b
:10555c0065000000580000002c0000002000000036
:10556c00490000006e000000630000002c030000e6
:10557c004a000000610000006e00000020000000e6
:10558c003100000035000000200000003200000057
:10559c003000000031000000390000002000000045
:1055ac0031000000390000003a0000003400000017
:1055bc00330000003a000000340000003900000005
:1055cc00000000007eaa00009eaa0000a2aa000013
:1055dc00bcaa000000000000000000000000000059
:1055ec000000000006020000080200000202000099
:1055fc000002000004020000160200001802000065
:10560c0012020000100200001402000076020000da
:10561c0078020000720200007002000074020000a8
:10562c00f8aa000002ab00000cab00000000000068
:10563c0000000000000000000000000042420000da
:10564c002d320000353900003000000042540000bb
:10565c002d370000303700003931000042000000c7
:10566c00425400002d370000303700003931000063
:10567c0043000000524f0000424f00005445000010
:10568c0058000000312e0000352e0000302d000097
:10569c00312d00006766000063620000626100004b
:1056ac00643500000000000001000000050000004f
:1056bc0000000000312d00006766000063620000ee
:1056cc00626100006435000000fd00000200000073
:020000040000fa
:10a800001200fa00881f78002004800068006000b1
:10a810000000e000250032008460a900361e070019
:10a8200040702100421f0700e20f500002003a0072
:10a830002ec8bf00291207000000eb00000f7800af
:10a84000170037001e0078006600b900800078000d
:10a85000206c210000804000351f0700e20f5000ef
:10a8600006003a002ec8bf000004e0000b003200d2
:10a870001e00780078220700080037001e007800cc
:10a8800080004000c0682100008040001000780077
:10a89000800078001e007800ef1a07001e0fe80005
:10a8a0001e007800e20f5000e6ff3600006e210027
:10a8b0001f1f0700e20f50002f003a000000eb00be
:10a8c000000f7800290037001e007800800040004b
:10a8d000606821000080400010047800e1632100de
:10a8e0001e0078004300dd000080400080007800fa
:10a8f000400020005e200700800078001e007800e5
:10a900004300dd00080040000001400060652100b8
:10a9100000004100010878001e007800800040001f
:10a920006068210000804000100078008000e8008e
:10a9300070002800008060000000e00004003d007e
:10a940000000e90081ff2f00008070000000e80097
:10a95000800078001e00780000014000606821003f
:10a9600000004100010878001e0fe8001e0078007a
:10a97000e20f5000d4ff3600206f2100ec1e0700cc
:10a98000e20f50004f003a0020692100800078005b
:10a9900040002000f2200700cf80de001007980062
:10a9a000210798002069210068004000800078009d
:10a9b00040002000ea200700cf80de00300798002a
:10a9c000410798001e009000507388003e009000e0
:10a9d00060738800be0090001e0090003e1f0700bc
:10a9e000d08b880060652100800078008000200006
:10a9f0001f20070070738800606521007000400010
:10aa000080007800800020001920070080738800f3
:10aa1000606521000002b000800078008000200006
:10aa20001320070090738800d01680000000d1002a
:10aa30006140600080407800e0f02000014878002c
:10aa4000101780004500de00614060008040780003
:10aa5000f0f0200001487800206a21008000780092
:10aa600040002000be200700e0788800206a210016
:10aa7000680040008000780040002000b8200700f7
:10aa8000f07888002182200040002000f81f070095
:10aa9000007988000000eb002f19070001f0a100e9
:10aaa00078e8070000007800608d88001000200022
:10aab0002919070001f0a10072e8070000007800e2
:10aac000708d8800806f2100991e0700e20f5000f2
:10aad0002d003a00206b210080007800400020000b
:10aae000e31f0700e08a8800206b21006800400017
:10aaf0008000780040002000dd1f0700f08a8800f9
:10ab0000e18a8000f01f2000808f500004003e008a
:10ab1000f18a8000f01f2000808f50001100360065
:10ab2000c04180000000e800c0418800c0418000b2
:10ab3000ea0f5000140034000000eb00c6210700ab
:10ab400010002000c421070020002000c2210700bf
:10ab500010c0b3002ee8b700e06f2100c02307004b
:10ab600009003700e18a800050152000808f5000d6
:10ab700005003e00f18a800050152000808f5000b3
:10ab800001003e003828ef00e06f2100681e07003a
:10ab9000e20f500001003a002e68ef00606e2100c5
:10aba000631e07000010a20000f0a7000000ea00ea
:10abb0000000e9004f00de00204f98000040eb004d
:10abc0000057980070004700800078002e489000e1
:10abd0000e0607000e5090000004e0000200320054
:10abe000606e21009e230700c06e2100501e0700ea
:10abf0000010a20000f0a7000000ea000000e90039
:10ac00004f00de00304f98000040eb0010579800d6
:10ac100071004700800078003e489000100b07004c
:10ac20001e5090000004e00002003200c06e2100bf
:10ac30008b2307006c0047008b100700bb11070037
:10ac40004e4890000004e00001003200a020070000
:10ac50005e4890000004e00002003200a070210075
:10ac60007f230700a0702100311e0700e20f500073
:10ac700003003a00e01421008040eb000148780016
:10ac80006e4890000004e00002003200406d210098
:10ac900073230700406d2100251e0700e20f5000be
:10aca00013003a000000eb00e07288000000eb00a7
:10acb000f07288000000eb00007388000000eb00d9
:10acc000000f7800070037001e0078008000400069
:10acd000c0682100008040008000eb00010878007f
:10ace0001e0fe8001e007800e20f5000f6ff36004d
:10acf000a06d21000e1e0700e20f500039013a003e
:10ad00000000eb00000f7800330137001e007800d0
:10ad100080004000c06821000080400010007800e2
:10ad20000000e00007003a001e00780080004000ac
:10ad3000007121000080400011f02f000108780010
:10ad40002b0037001e00780080004000c068210002
:10ad5000008040009000780010c02f00808f5000cd
:10ad60000e0035001e00780080004000c068210001
:10ad700000804000100078000000e00007003d0067
:10ad80001e0078008000400000712100008040001b
:10ad900031f02f0001087800150037001e00780000
:10ada00080004000c0682100008040001000780052
:10adb0000000e0000e0034001e007800800040001b
:10adc000c06821000080400090007800f03f200023
:10add000808f500006003c001e007800800040007c
:10ade000007121000080400021f02f000108780050
:10adf0001e0078008000400060712100008040004b
:10ae00001000780011e02e00810f50000e0032007b
:10ae100011e02e00810f500004003e0001e02e00e2
:10ae2000810f50003a003200ea00370021e02e0086
:10ae3000810f50009b00320031e02e00810f500046
:10ae400067003200e30037001e007800e7200700ab
:10ae50001e0078008000400000712100008040004a
:10ae60001000780011f02f00810f50001f003200f9
:10ae700011f02f00810f500004003e0001f02f0060
:10ae8000810f500020003200d200370031f02f0037
:10ae9000810f5000cc003e001e0078008000400072
:10aea000607121000080400021e02e000108780040
:10aeb0001e0078006600b90080007800206c210038
:10aec00000804000f12207001e0078006600b900f3
:10aed00080007800c071210000804000e02207005f
:10aee0001e007800dc200700080037001e007800f4
:10aef00080004000007121000080400001f02f0020
:10af0000010878000100370000000000b1003700a0
:10af10001e00780080004000007121000080400089
:10af20001000780011f02f00810f50001500320042
:10af300011f02f00810f500004003e0001f02f009f
:10af4000810f500024003200a200370021f02f00b2
:10af5000810f50000400320031f02f00810f5000ab
:10af6000080032009b0037001e0078006600b90020
:10af700080007800206c210000804000082307003a
:10af8000160037001e00780080004000607121002c
:10af90000080400021e02e00010878001e007800ab
:10afa0006600b90080007800206c2100008040001d
:10afb000b62207001e0078006600b9008000780005
:10afc000c071210000804000a52207001e0078000b
:10afd000a120070001003700000000007d003700bd
:10afe0001e007800800040000071210000804000b9
:10aff0001000780021f02f00810f500007003e0064
:10b0000011f02f00810f50000800310001f02f00d7
:10b01000810f5000210032006e00370031f02f0008
:10b02000810f5000160032006a0037001e007800c1
:10b0300080004000607121000080400021e02e006f
:10b04000010878001e0078006600b90080007800d2
:10b05000206c2100008040008c2207001e00780038
:10b060006600b90080007800c071210000804000b7
:10b070007b2207001e0078007720070008003700b9
:10b080001e0078006600b90080007800206c210066
:10b0900000804000c22207000100370000000000cd
:10b0a0004c0037001e0078006600b9008000780070
:10b0b000c071210000804000b92207001e00780006
:10b0c0006600b90080007800c07121000080400057
:10b0d000171d0700e20f50003d003a001e007800e7
:10b0e00080004000007121000080400010007800c6
:10b0f00011f02f00810f50000e00320011f02f00d0
:10b10000810f500004003e0001f02f00810f50001d
:10b110002b0032002f00370021f02f00810f50004c
:10b120000d00320031f02f00810f50001700320067
:10b13000280037001e0078002c2007001e00780031
:10b1400080004000607121000080400011e02e006e
:10b15000010878001b0037001e0078006600b90067
:10b1600080007800206c2100008040003c22070015
:10b170001e007800800040006071210000804000c7
:10b1800001e02e00010878000e0037001e00780054
:10b190006600b90080007800206c2100008040002b
:10b1a0002f2207001e0078008000400060712100ff
:10b1b0000080400031e02e000108780001003700d7
:10b1c000000000000300370000000000010037000d
:10b1d000000000001e0fe8001e007800e20f500083
:10b1e000cafe36004f0478000080fa000000060016
:020000040000fa
:10b1f000c21600006c000000020000000500010003
:10b200000000000005000100000000000500010032
:10b21000000000004d0103000000000001000000dc
:10b2200000000000010000000000000064000000b9
:10b2300000000000640000000000000004000000a6
:10b240000000000001000000000000006400030096
:10b25000000000000a000000000000004d01030093
:10b260000000000001ff0100ff01ff0002ee0200ec
:10b27000ee02ee000a000300000000000a000300d6
:10b28000000000000a000300000000003e1600005d
:10b2900084000000000000001e0800001c000000e8
:10b2a000000000004a170000180000000000000025
:10b2b0003a0800001a0000000000000074170000a7
:10b2c0000c000000000000008c08000008000000d6
:10b2d000000000002e1700001c000000000000000d
:10b2e000000800001e000000000000000018000020
:10b2f00020000000000000005408000002000000d0
:10b3000000000000b2110000fe010000000000007b
:10b31000800800000c000000000000005808000039
:10b320001600000002000000229e22009e229e00c5
:10b33000229e22009e229e00229e22009e229e008d
:10b34000229e22009e000000fe150000400000002a
:10b3500000000000d0140000e00000000000000029
:10b36000621700001200000002000000120100003d
:10b370000200000000089400260000000000010008
:10b380000200010096080000820500000200000093
:10b390000400010000000000008018000e02000000
:10b3a00001000000000000001c0e0800000000006a
:10b3b00002000000801e0e000200010000020000da
:10b3c000008026000e010000010002000000800045
:10b3d000280e0100000100000200000080290e007c
:10b3e000010001000002000000802a000e010000a0
:10b3f00001000200000080002b0e0100000100008f
:10b4000002000000802c0e0001000100000200007c
:10b4100000802d000e0400000100020000008000ea
:10b420002e0e0400000100000200000080320e0019
:10b430000400010000020000008036000e0400003d
:10b4400001000200000080003a0e0400000100002c
:10b4500002000000803e0e00040001000002000017
:10b46000008042000e040000010002000000800085
:10b47000460e02000001000001000000804a0e009c
:10b48000020001000001000000804c000e020000dc
:10b4900001000100000080004e0e020000010000cb
:10b4a0000100000080500e000100010000010000ba
:10b4b000008052000e010000010001000000800029
:10b4c000530e0100000100000100000080540e0036
:10b4d0000100010000010000008055000e01000085
:10b4e0000100010000008000560e01000001000074
:10b4f0000100000080570e00010001000001000063
:10b50000008058000e0100000100010000008000d2
:10b51000590e01000001000001000000805a0e00d9
:10b52000010001000001000000805b000e06000029
:10b5300001000300000000005c0e04000001000098
:10b540000300000000620e00040001000003000080
:10b55000008066000e04000001000300000080006f
:10b560006a0e06000001000003000000806e0e005d
:10b570000400010000030000008074000e30000091
:10b580000100030000000000780e30000001000000
:10b590000300000000a80e003000010000030000be
:10b5a0000000d8000e0600000100030000000000ab
:10b5b000080f02000001000003000000800e0f00d1
:10b5c0000600010000030000008010000f060000cc
:10b5d0000100030000008000160f040000010000bd
:10b5e00003000000801c0f000200010000030000a7
:10b5f000008020000f010000010002000000000098
:10b60000220f0400000100000200000080240f004f
:10b610000400010000020000008028000f04000068
:10b6200001000200000080002c0f04000001000057
:10b630000200000080300f00010001000002000045
:10b64000000034000f040000010001000000800031
:10b65000360f04000001000001000000803a0f00d6
:10b66000040001000001000000803e000f04000003
:10b670000100010000008000420f040000010000f2
:10b680000100000080460f000400010000010000de
:10b6900000804a000f04000001000100000080004b
:10b6a0004e0f0400000100000100000080520f0056
:10b6b0000400010000010000008056000f0100009e
:10b6c00001000100000080005a0f0200000100008c
:10b6d00001000000805c0f0002000100000100007a
:10b6e00000805e000f0c00000100020000008000de
:10b6f000600f01000001000002000000006c0f005c
:10b70000080000000002000000006e000f6400004e
:10b710000000010000008000760f02000001000020
:10b720000100000080da0f000200010000010000ab
:10b730000080dc000f02000001000100000080001a
:10b74000de0f0200000100000100000080e00f0099
:10b7500002000100000100000080e2000f02000072
:10b760000100010000008000e40f1800000000004c
:10b770000100000080e60f00180000000002000039
:10b780000080fe000f640000000002000000800046
:10b7900016104f000000000002000000807a100028
:10b7a00002000100000300000080ca001002000037
:10b7b0000100030000008000cc104f0000000000da
:10b7c0000300000080ce10001800000000030000fd
:10b7d00000801e00110100000100020000000000b6
:10b7e00036110100000100000200000000371100c6
:10b7f00002000100000500000000380011040000f4
:10b8000001000a00000000003a11020000010000df
:10b8100005000000803e110001000100000500004d
:10b82000000040001106000001000a000000800036
:10b8300042110200000100000a00000080481100cf
:10b8400001000100000a000000804a00110200000f
:10b8500001000a00000080004c11010000010000fe
:10b8600003000000004e1100020001000001000072
:10b870000080500011020000010001000000800063
:10b8800052110100000100000100000000541100ed
:10b89000010001000002000000005500110100003d
:10b8a000010002000000000056110100000100002c
:10b8b0000500000000571100010001000002000017
:10b8c000000058001102000001000a000000800082
:10b8d0005a1102000001000003000000805c11000a
:10b8e000020001000003000000805e00110a000059
:10b8f00001000d000000000060110c0000010000bc
:10b900000d000000806a110001000100000f00001e
:10b91000000076001101000001000f00000080000f
:10b920007711010000010000010000000078110003
:10b93000020001000003000000807a0011020000f4
:10b9400001000200000000007c1102000001000064
:10b9500002000000807e11000100010000010000d3
:10b9600000808000110100000100020000000000c2
:10b97000811102000001000012000000008211008d
:10b98000020001000012000000008400110200000b
:10b9900001001200000000008611010000010000fb
:10b9a00012000000008811000200010000030000e6
:10b9b00000808a0011010000010005000000000065
:10b9c0008c110100000100000a000000008d110030
:10b9d000010001000001000000008e0011010000c4
:10b9e00001001400000000008f11010000010000a0
:10b9f000140000000090110002000100001400007b
:10ba000000809200110100000100140000000000fd
:10ba10009411010000010000140000008095110045
:10ba20000100010000030000000096001102000068
:10ba300001000300000080009811020000010000d6
:10ba400003000000809a11000200010000030000c2
:10ba500000809c0011020000010003000000800033
:10ba60009e110200000100000300000080a01100f0
:10ba700002000100000300000080a200110200008b
:10ba80000100030000008000a4110200000100007a
:10ba90000300000080a61100020001000003000066
:10baa0000080a800110200000100030000008000d7
:10bab000aa110200000100000300000080ac110088
:10bac00002000100000300000080ae00110200002f
:10bad0000100030000008000b01100000000000021
:10bae0000000000000000000180e00009a03000093
:10baf00000000000b0130000200100000000000062
:10bb00006e0800001200000002000000042920005e
:10bb1000000000000000b000130001000000000061
:10bb200000d0130080170000060000000200000093
:10bb30001027000000000000940800000200000030
:10bb400000000000b01500004e00000000000000e2
:04bb500000000000f1
:020000040000fa
:10bb54000600fa0010079800414798004e409000f4
:10bb64000080fb00cf80de00620420000300200080
:10bb7400820f5000838f58001e023e0000600100b7
:10bb8400460037001d023700510037001b02370002
:10bb94005c003700190237006700370017023700ce
:10bba40072003700150237007d003700130237009a
:10bbb4008800370011023700930037000f02370066
:10bbc4009e0037000d023700a90037000b02370032
:10bbd400b200370009023700bd0037000702370002
:10bbe400c800370005023700d300370003023700ce
:10bbf400de00370001023700e9003700ff0137009b
:10bc0400f4003700fd013700ff003700fb01370067
:10bc14000a013700f901370015013700f701370031
:10bc240020013700f50137002b013700f3013700fd
:10bc340036013700f101370041013700ef013700c9
:10bc44004c013700ed01370059013700eb01370093
:10bc540066013700e901370071013700e701370059
:10bc64007c013700e501370087013700e301370025
:10bc740092013700e10137009d013700df013700f1
:10bc8400a8013700dd013700b3013700db013700bd
:10bc9400be013700d9013700c9013700017980009e
:10bca400010f78001e0078004800de008040780014
:10bcb4001e009000014878001e0090000000e8007b
:10bcc4009e0078008140780001487800cc0137005c
:10bcd40030738000000f78001e0078004800de00fa
:10bce400804078001e009000014878001e009000fb
:10bcf4000000e8009e007800814078000148780048
:10bd0400bf01370040738000000f78001e007800e8
:10bd14004800de00804078001e0090000148780052
:10bd24001e0090000000e8009e007800814078002a
:10bd340001487800b201370050738000000f78008a
:10bd44001e0078004800de00804078001e0090004d
:10bd5400014878001e0090000000e8009e00780072
:10bd64008140780001487800a501370060738000a5
:10bd7400000f78001e0078004800de008040780044
:10bd84001e009000014878001e0090000000e800aa
:10bd94009e007800814078000148780098013700bf
:10bda40070738000000f78001e0078004800de00e9
:10bdb400804078001e009000014878001e0090002a
:10bdc4000000e8009e007800814078000148780077
:10bdd4008b01370080738000000f78001e0078000c
:10bde4004800de00804078001e0090000148780082
:10bdf4001e0090000000e8009e007800814078005a
:10be0400014878007e013700a0738000000f78009d
:10be14001e0078004800de00804078001e0090007c
:10be2400014878001e0090000000e8009e007800a1
:10be3400814078000148780071013700b0738000b8
:10be4400000f78001e0078004800de008040780073
:10be54001e009000014878001e0090000000e800d9
:10be64009e00780081407800014878006401370022
:10be7400e0f0200010407800804078001e00900020
:10be8400014878001e0090000000e800f1f0200056
:10be9400914078000148780059013700807880008b
:10bea400000f78001e0078004800de008040780013
:10beb4001e009000014878001e0090000000e80079
:10bec4009e00780081407800014878004c013700da
:10bed40090788000000f78001e0078004800de0093
:10bee400804078001e009000014878001e009000f9
:10bef4000000e8009e007800814078000148780046
:10bf04003f013700e0788000000f78001e007800c1
:10bf14004800de00804078001e0090000148780050
:10bf24001e0090000000e8009e0078008140780028
:10bf34000148780032013700f0788000000f780063
:10bf44001e0078004800de00804078001e0090004b
:10bf5400014878001e0090000000e8009e00780070
:10bf6400814078000148780025013700618d800008
:10bf7400010f78001e0078004800de008040780041
:10bf84001e009000014878001e0090000000e800a8
:10bf94009e0078008140780001487800180137003d
:10bfa400718d8000010f78001e0078004800de00cb
:10bfb400804078001e009000014878001e00900028
:10bfc4000000e8009e007800814078000148780075
:10bfd4000b013700818d8000010f78001e0078006e
:10bfe4004800de00804078001e0090000148780080
:10bff4001e0090000000e8009e0078008140780058
:10c0040001487800fe00370050868000000f780059
:10c014001e0078004800de00804078001e0090007a
:10c02400014878001e0090000000e8009e0078009f
:10c034008140780001487800f10037006086800074
:10c04400000f78001e0078004800de008040780071
:10c054001e009000014878001e0090000000e800d7
:10c064009e0078008140780001487800e4003700a1
:10c07400518c8000010f78001e0078004800de001b
:10c08400804078001e009000014878001e00900057
:10c094000000e8009e0078008140780001487800a4
:10c0a400d700370071438000010f78001e0078002c
:10c0b4004800de00804078001e00900001487800af
:10c0c4001e0090000000e8009e0078008140780087
:10c0d40001487800ca003700e18a8000010f780027
:10c0e4001e0078004800de00804078001e009000aa
:10c0f400014878001e0090000000e8009e007800cf
:10c104008140780001487800bd003700f18a800042
:10c11400010f78001e0078004800de00804078009f
:10c124001e009000014878001e0090000000e80006
:10c134009e0078008140780001487800b000370004
:10c14400d18b8000010f78001e0078004800de00cb
:10c15400804078001e009000014878001e00900086
:10c164000000e8009e0078008140780001487800d3
:10c17400a3003700e0142100104078000080fb0089
:10c18400000f78001e0078004800de008040780030
:10c194001e009000014878001e0090000000e80096
:10c1a4009e007800814078000148780094003700b0
:10c1b40060192100104078000080fb00000f780017
:10c1c4001e0078004800de00804078001e009000c9
:10c1d400014878001e0090000000e8009e007800ee
:10c1e400814078000148780085003700c18c8000c8
:10c1f400010f78001e0078004800de0080407800bf
:10c204001e009000014878001e0090000000e80025
:10c214009e0078008140780001487800780037005b
:10c22400d18c8000010f78001e0078004800de00e9
:10c23400804078001e009000014878001e009000a5
:10c244000000e8009e0078008140780001487800f2
:10c254006b003700e18c8000010f78001e0078002d
:10c264004800de00804078001e00900001487800fd
:10c274001e0090000000e8009e00780081407800d5
:10c28400014878005e003700f18c8000010f7800cf
:10c294001e0078004800de00804078001e009000f8
:10c2a400014878001e0090000000e8009e0078001d
:10c2b400814078000148780051003700018d8000ea
:10c2c400010f78001e0078004800de0080407800ee
:10c2d4001e009000014878001e0090000000e80055
:10c2e4009e007800814078000148780044003700bf
:10c2f400118d8000010f78001e0078004800de00d8
:10c30400804078001e009000014878001e009000d4
:10c314000000e8009e007800814078000148780021
:10c3240037003700418d8000010f78001e0078002f
:10c334004800de00804078001e009000014878002c
:10c344001e0090000000e8009e0078008140780004
:10c35400014878002a003700518d8000010f7800d1
:10c364001e0078004800de00804078001e00900027
:10c37400014878001e0090000000e8009e0078004c
:10c3840081407800014878001d003700208d80002e
:10c39400000f78001e0078004800de00804078001e
:10c3a4001e009000014878001e0090000000e80084
:10c3b4009e00780081407800014878001000370022
:10c3c400308d8000000f78001e0078004800de00e9
:10c3d400804078001e009000014878001e00900004
:10c3e4000000e8009e007800814078000148780051
:10c3f40003003700000000000100370000000000c7
:08c404000080fa0000000600b0
:020000040000fa
:10c40c001400fa004047980031079800c158850085
:10c41c00010f78004e4090000004e000050032004f
:10c42c00304280000000e00001003200731d070064
:10c43c004628ef0030428000cf80de0072052000dd
:10c44c0003002000820f5000838f5800c4013e006f
:10c45c000060010057003700c1013700c0013700f0
:10c46c00bf013700be013700bd013700bc013700ea
:10c47c00bb013700ba013700b9013700b8013700ea
:10c48c00b7013700b6013700b5013700b4013700ea
:10c49c00b3013700b2013700b1013700b0013700ea
:10c4ac00af013700ae013700ad013700ac013700ea
:10c4bc00ab013700aa013700a9013700a8013700ea
:10c4cc00a7013700a6013700a5013700a4013700ea
:10c4dc00a3013700a2013700a1013700a0013700ea
:10c4ec009f0137009e0137009d0137009c013700ea
:10c4fc009b0137009a01370099013700470037003c
:10c50c0097013700960137009501370094013700e9
:10c51c00930137006d00370091013700900137000f
:10c52c008f0137008e0137008d01370096003700e0
:10c53c008b0137008a013700b500370088013700be
:10c54c0087013700860137008501370084013700e9
:10c55c00d600370082013700810137008001370097
:10c56c007f0137007e013700f70037007c01370070
:10c57c007b0137007a0137007901370078013700e9
:10c58c001801370076013700750137007401370048
:10c59c007301370072013700390137007001370021
:10c5ac006f0137006e0137006d0137006c013700e9
:10c5bc005a01370068004700838420000041eb00db
:10c5cc0081c1b3005c1c0700680047006175210045
:10c5dc00b0187800a0107800e4804000640040009f
:10c5ec00b0187800a0107800e4804000640040008f
:10c5fc00b0187800a0107800e4804000640040007f
:10c60c00a48420006000b8006011b800009abe003d
:10c61c000292be00a002200030428800a2842000ba
:10c62c00617521001e0078004f010700100798006b
:10c63c001e0090000000e000490132001e00900036
:10c64c000000a20000f0a7000000ea000000e900d2
:10c65c004f00de00b078880048c8bf000080fb00a7
:10c66c0080788800680047008384200012c0b300e3
:10c67c0081c1b300301c07006800470061752100c0
:10c68c00b0187800a0107800e480400064004000ee
:10c69c00b0187800a0107800e480400064004000de
:10c6ac00b0187800a0107800e480400064004000ce
:10c6bc00a48420006000b8006011b800009abe008d
:10c6cc000292be000003200030428800a2842000a9
:10c6dc00617521001e0078002301070010079800e7
:10c6ec001e0090000000e0001d0132001e009000b2
:10c6fc000000a20000f0a7000000ea000000e90022
:10c70c004f00de00c078880048c8bf000080fb00e6
:10c71c0090788800e01421001040780048e8b700b9
:10c72c006800470083842000b2c0b30081c1b3000d
:10c73c00211c07006800470061752100b0187800c3
:10c74c00a0107800e480400064004000b01878002d
:10c75c00a0107800e480400064004000b01878001d
:10c76c00a0107800e480400064004000a484200005
:10c77c006000b8006011b800009abe000292be00c2
:10c78c006003200030428800a284200061752100e3
:10c79c001e007800f4000700100798001e0090009f
:10c7ac000000e000ee003200680047002385200006
:10c7bc00d2c0b300b1c0b300ef1b07006800470044
:10c7cc0061752100b0187800a0107800e48040005a
:10c7dc0064004000b0187800a0107800e48040009d
:10c7ec0064004000b0187800a0107800e48040008d
:10c7fc0064004000a48420006000b8006011b80000
:10c80c00009abe000292be009003200030428800c5
:10c81c00a2842000617521001e007800d200070060
:10c82c00100798001e0090000000e000cc003200c1
:10c83c001e009000e10f500002003a009042800070
:10c84c0050868800680047002385200062c1b30031
:10c85c00b1c0b300c81b0700680047006175210018
:10c86c00b0187800a0107800e4804000640040000c
:10c87c00b0187800a0107800e480400064004000fc
:10c88c00b0187800a0107800e480400064004000ec
:10c89c00a48420006000b8006011b800009abe00ab
:10c8ac000292be00f003200030428800a2842000d7
:10c8bc00617521001e007800ab000700100798007e
:10c8cc001e0090000000e000a50032001e00900049
:10c8dc00e10f500002003a0090428000c08c8800aa
:10c8ec00680047002385200032c0b300b1c0b300fc
:10c8fc00a11b07006800470061752100b018780083
:10c90c00a0107800e480400064004000b01878006b
:10c91c00a0107800e480400064004000b01878005b
:10c92c00a0107800e480400064004000a484200043
:10c93c006000b8006011b800009abe000292be0000
:10c94c005004200030428800a28420006175210030
:10c95c001e00780084000700100798001e0090004d
:10c96c000000e0007e0032001e009000e10f50003d
:10c97c0002003a0090428000e08c8800680047007a
:10c98c002385200082c0b300b1c0b3007a1b07001e
:10c99c006800470061752100b0187800a01078007d
:10c9ac00e480400064004000b0187800a0107800cb
:10c9bc00e480400064004000b0187800a0107800bb
:10c9cc00e480400064004000a48420006000b800b3
:10c9dc006011b800009abe000292be00b0042000a4
:10c9ec0030428800a2842000617521001e0078006e
:10c9fc005d000700100798001e0090000000e0008a
:10ca0c00570032001e009000e10f500002003a0067
:10ca1c0090428000008d880068004700238520002c
:10ca2c0092c0b300b1c0b300531b070068004700ad
:10ca3c0061752100b0187800a0107800e4804000e7
:10ca4c0064004000b0187800a0107800e48040002a
:10ca5c0064004000b0187800a0107800e48040001a
:10ca6c0064004000a48420006000b8006011b8008d
:10ca7c00009abe000292be001005200030428800d1
:10ca8c00a2842000617521001e007800360007008a
:10ca9c00100798001e0090000000e00030003200eb
:10caac001e009000e10f500002003a0090428000fe
:10cabc00408d88006800470023852000a2c0b30089
:10cacc00b1c0b3002c1b0700680047006175210042
:10cadc00b0187800a0107800e4804000640040009a
:10caec00b0187800a0107800e4804000640040008a
:10cafc00b0187800a0107800e4804000640040007a
:10cb0c00a48420006000b8006011b800009abe0038
:10cb1c000292be007005200030428800a2842000e2
:10cb2c00617521001e0078000f00070010079800a7
:10cb3c001e0090000000e000090032001e00900072
:10cb4c00e10f500002003a0090428000208d8800d6
:10cb5c003e00900011c0b300014878004628ef0059
:08cb6c000080fa000000060041
:020000040000fa
:10cb74000800fa001007980021079800320798006f
:10cb84003e009000100078008000eb00e2002000de
:10cb940003002000820f5000838f580097013e004d
:10cba400006001000e0037001c0037003e00370013
:10cbb4006400370088003700a9003700d10037002f
:10cbc400da003700fb003700040137002101370089
:10cbd4002b01370034013700530137005d01370062
:10cbe4003e0090008040eb00214098003e00900001
:10cbf4008040eb00414098003e0090008040eb00f4
:10cc0400314098003e0090008000eb003100980015
:10cc14003e00900011002000010878001e009000e2
:10cc2400ce160700000f78001e007800e10f5000b8
:10cc340057013a002e009000104090000004a2001a
:10cc44000004e000040032003e00900021002000b7
:10cc540001087800690137002e00900040409000e0
:10cc64000004e000040032003e0090002100200097
:10cc740001087800610137002e00900010489000f0
:10cc84000004e000040032003e0090007100200027
:10cc940001087800590137003e009000e1002000af
:10cca40001087800550137002e00900010407800ec
:10ccb4000001eb00804078001e0090004c14070037
:10ccc400000f78001e007800e10f500032013a0096
:10ccd4002e009000104090000004a2000004e00028
:10cce400040032003e00900031002000010878006a
:10ccf400420137002e009000404090000004e00004
:10cd0400040032003e009000510020000108780029
:10cd14003a0137002e009000104890000004e00013
:10cd2400040032003e0090006100200001087800f9
:10cd3400320137003e009000e10020000108780035
:10cd44002e0137002e009000204090008040780093
:10cd54001e00900088140700000f78001e00780061
:10cd6400e10f50000e013a002e0090003040900078
:10cd74000004e000040032003e0090004100200066
:10cd8400010878001d0137002e00900040409000fb
:10cd94000004e000040032003e0090005100200036
:10cda40001087800150137002e009000104890000b
:10cdb4000004e000040032003e0090006100200006
:10cdc400010878000d0137003e009000e1002000ca
:10cdd40001087800090137002e009000b00090008f
:10cde4002e009000404090000080fb000080400036
:10cdf40010407800804078001e0090005e14070008
:10ce0400000f78001e007800e10f5000e6003a00a1
:10ce14002e009000404090000004e0000400320026
:10ce24003e0090005100200001087800f300370014
:10ce34002e009000104890000004e000040032002e
:10ce44003e0090006100200001087800eb003700ec
:10ce54003e009000e100200001087800e700370060
:10ce64002e009000b00090003e0090002040900002
:10ce74000080fb0000804000104078008040780073
:10ce84001e0090003c140700000f78001e0078007c
:10ce9400e10f5000c6003a003e0090002040900090
:10cea4008040e8003e009000214098003e00900041
:10ceb400a04090002e0090004040900080cf500091
:10cec400040031003e009000510020000108780069
:10ced400ca0037002e009000104890000004e000c3
:10cee400040032003e009000610020000108780038
:10cef400c20037003e009000e100200001087800e5
:10cf0400be0037001e00900035160700000f7800a1
:10cf14001e007800e10f5000a7003a003e00900088
:10cf24007100200001087800b40037002e00900042
:10cf34001040780012002000804078001e0090000d
:10cf4400ab130700000f78001e007800e10f5000bb
:10cf54009b003a002e009000004890000004e0007e
:10cf6400040032003e009000810020000108780097
:10cf7400a20037002e009000104890000004e0004a
:10cf8400080032002e009000904890003e0090006f
:10cf9400314098003e009000b10020000108780064
:10cfa400960037003e009000e10020000108780060
:10cfb400920037001e009000a3150700000f7800b0
:10cfc4001e007800e10f50007f003a003e00900000
:10cfd4009100200001087800880037003e0090008e
:10cfe40063004000800078001e0090007f16070058
:10cff400000f78001e007800e10f500074003a0022
:10d004003e00900030409000ae00900091489000a7
:10d01400814f50000100360001407800be009000ae
:10d02400b04098003e00900030409000e14f500026
:10d03400040036003e009000a100200001087800a2
:10d044006e0037003e009000d100200001087800f7
:10d054006a0037008000eb001e00900020170700d4
:10d06400000f78001e007800e10f50005a003a00cb
:10d074003e009000b1002000010878005f003700f6
:10d084001e00900070150700000f78001e00780045
:10d09400e10f500052003a003e009000c100200011
:10d0a40001087800550037002e009000d000900051
:10d0b4003e009000404090000080fb000080400053
:10d0c400800078001e00900048160700000f7800ca
:10d0d4001e007800e10f500043003a003e0090002b
:10d0e400404090008040e8003e009000414098009d
:10d0f4003e009000c04090003e0090003040900000
:10d1040080cf5000040031003e009000a1002000b8
:10d1140001087800390037003e009000d10020005b
:10d124000108780035003700110020001e0090002f
:10d13400eb160700000f78001e007800e10f500086
:10d144002b003a003e009000e10020000108780026
:10d154002a0037001e00900004160700000f780014
:10d164001e007800e10f500023003a003e009000ba
:10d17400300090000000e00002003a00100020009f
:10d184002f0037003e009000300090002c00370044
:10d1940000000000190037000000000017003700ed
:10d1a40000000000150037000000000013003700e5
:10d1b4000000000011003700000000000f003700dd
:10d1c400000000000d003700000000000b003700d5
:10d1d40000000000090037000000000007003700cd
:10d1e40000000000050037000000000003003700c5
:10d1f4000000000001003700000000001e0078005d
:10d204000000e00002003a000000eb000c003700d0
:10d214001e007800e10f500001003a0007003700bb
:10d224003e0090009e007800310098003e0090007f
:10d23400e1002000010878000000000050fe3700e3
:08d244000080fa000000060062
:020000040000fa
:10d24c001400fa00881f78002057980032c0bf00e5
:10d25c000080fb00600798000000eb00000f7800d6
:10d26c00010037001e0fe8001e007800e40f50008c
:10d27c0008003c001e0078000040780032c1b3006a
:10d28c00804078002e50900023100700e10f5000d2
:10d29c00f4ff32001e007800e50f500006003a0043
:10d2ac006e0090000040780032e0b7005468a8008f
:10d2bc0030002000640137001e00e80010079800c1
:10d2cc001e009000e50f500014003a000000eb0027
:10d2dc0010079800120037001e0090000000e800b4
:10d2ec00100798001e009000e50f500002003a0055
:10d2fc000000eb00100798001e0090009e0f5000dd
:10d30c0007003a006e0090000040780032e0b70051
:10d31c005428a800100020004b013700000000002a
:10d32c001e0090000040780042c1b300804078009d
:10d33c002e509000f80f07000000e000e6ff3200ce
:10d34c0002c02200030020002e5090008080fb00c1
:10d35c00004021000088b900000078008000eb003c
:10d36c0002014000838148001e0090004a00dd004d
:10d37c008000eb0002004000838048004008de0083
:10d38c000040780032e0b70000c02200010020000d
:10d39c00000178002e5090000080fb006500b90061
:10d3ac00800078001e009000008040004a00dd00e4
:10d3bc0000004100200798002e509000390f070004
:10d3cc000000e000010032005448a8004185200014
:10d3dc0091407800614f98005408a9000000eb00c0
:10d3ec003007980010002400003b8800ae0090002d
:10d3fc000080eb00df170700ae009000f00f20005c
:10d40c00d81707002e0090000080e8002007980035
:10d41c000040eb00004f98003e0090000000e80038
:10d42c0030079800340037002e5090008080fb00ad
:10d43c00f00f20000088b900800078000e489000a2
:10d44c000080fb0000804000ed0b070050079800a7
:10d45c00a0428000610060000000e0000200320089
:10d46c005408a9000d0037005e009000ae0090003b
:10d47c00c01707000e4890000080fb00ae00900023
:10d48c00b81707002e0090000080e80020079800d5
:10d49c003e0090000000e800300798000e48900015
:10d4ac000040e800004f98000c003700ae009000e0
:10d4bc000080eb00af170700ae009000f00f2000cb
:10d4cc00a81707002e0090000080e80020079800a5
:10d4dc003e0090000000e800300798000e489000d5
:10d4ec00e14f400004003a00be009000f003200021
:10d4fc00808f5000edff34000e489000e14f40004b
:10d50c0004003200be009000f0032000808f500019
:10d51c00c5ff3400681707000000eb0030079800c7
:10d52c000e489000e14f4000f3ff3a00ee489000a7
:10d53c00428520000149780002c02200030020002f
:10d54c002e5090008080fb00004021000088b90024
:10d55c00000078008000eb0002014000838148004d
:10d56c001e0090004a00dd008000eb00020040002d
:10d57c00838048004008de000040780032e0b700ad
:10d58c0000c0220001002000000178002e50900005
:10d59c000080fb006500b900800078001e00900040
:10d5ac00008040004a00dd00000041000080e800df
:10d5bc00200798002e009000ae0090008100e8003b
:10d5cc002107980056170700004f98002e00900076
:10d5dc00ae0090008100e800210798005217070068
:10d5ec00500798001e0037002e5090008080fb00e2
:10d5fc00f00f20000088b900800078000e489000e1
:10d60c000080fb00008040007d0b0700de009000d6
:10d61c00810f5000060032006e0090000040780030
:10d62c0032e0b70054e8a8007000200086003700f4
:10d63c002e009000ae0090008100e80021079800b9
:10d64c0037170700004f98002e009000ae00900096
:10d65c008100e80021079800331707005007980055
:10d66c000e489000e14f4000dfff3a0000c022005e
:10d67c0001002000000178002e5090000080fb007b
:10d68c006500b900800078001e0078000080400022
:10d69c004a00dd0000004100000f980000c022008d
:10d6ac0001002000000178002e5090000080fb004b
:10d6bc006500b900800078001e00900000804000da
:10d6cc004a00dd00000041002007980002c0220043
:10d6dc00030020002e5090008080fb0000402100b1
:10d6ec000088b900000078008000eb0002014000c7
:10d6fc00838148001e0078004a00dd008000eb00aa
:10d70c0002004000838048004008de0000407800a2
:10d71c0032e0b7000e08900003170700500798007e
:10d72c000e089000fe160700004f98001e00900097
:10d73c000000e00003003a005e0090000000e800ea
:10d74c00500798005e009000e30f50000400360074
:10d75c005428a8000e4890000044a100004f9800e7
:10d76c0002c02200030020002e5090008080fb009d
:10d77c00004021000088b900000078008000eb0018
:10d78c0002014000838148001e0090004a00dd0029
:10d79c008000eb0002004000838048004008de005f
:10d7ac000040780032e0b7000e4890000080fb008b
:10d7bc00ae009000eb1607005e009000ae009000eb
:10d7cc00ec16070030002400003b8800ba16070056
:10d7dc000e4890000084fb002e009000d01607002d
:10d7ec00800f540006003a002e009000ce16070061
:10d7fc00800078005e009000808f500006003200a0
:10d80c006e0090000040780032e0b70054e8a800a9
:10d81c00700020000c0037001e00780000407800db
:10d82c00804078002e5090003e1107006e00900052
:10d83c000040780032e0b700a04280000000d10028
:10d84c00614060000080fb004f0478000080fa000b
:04d85c0000000600c2
:020000040000fa
:10d860001400fa004047980031079800d15885000d
:10d87000010f78004e4090000004e00005003200e7
:10d88000d04180000000e00001003200691807006c
:10d890003a28ef00d041800021082000810f50007d
:10d8a0008800320021082000810f500009003c0050
:10d8b00031072000810f500031003200a107200005
:10d8c000810f5000550032000000e00012003200cd
:10d8d00029013700e1082000810f5000c700320005
:10d8e000e1082000810f500004003c008108200066
:10d8f000810f50009a0032001f01370041092000bb
:10d90000810f5000e4003200a1092000810f500077
:10d91000080132001801370068004700c383200067
:10d92000d2c0b300b1c0b30096170700680047002b
:10d93000a1742100b0187800a0107800e4804000a5
:10d9400064004000b0187800a0107800e480400027
:10d9500064004000b0187800a0107800e480400017
:10d9600064004000e48320006000b8006011b8004b
:10d97000009abe000292be0030072000d04188000d
:10d98000e2832000a17421001e00780079fc0700ca
:10d99000100798001e0090000000e000f600320022
:10d9a0001e009000e10f500002003a00e0418000ac
:10d9b0006086880068004700c3832000a2ccb300c3
:10d9c000c1c0b3006f17070068004700a1742100b1
:10d9d000b0187800a0107800e48040006400400097
:10d9e000b0187800a0107800e48040006400400087
:10d9f000b0187800a0107800e48040006400400077
:10da0000e48320006000b8006011b800009abe00f6
:10da10000292be00a0072000d0418800e2832000cf
:10da2000a17421001e00780052fc07001007980026
:10da30001e0090000000e000cf0032001e009000a9
:10da4000e10f500003003a00e0418000508c880054
:10da5000020037000000eb00508c8800680047008f
:10da6000c383200062c1b300b1c0b30045170700f3
:10da700068004700a1742100b0187800a010780059
:10da8000e480400064004000b0187800a0107800e6
:10da9000e480400064004000b0187800a0107800d6
:10daa000e480400064004000e48320006000b8008f
:10dab0006011b800009abe000292be00200820004b
:10dac000d0418800e2832000a17421001e0078006c
:10dad00028fc0700100798001e0090000000e000de
:10dae000a50032001e009000e10f500002003a0035
:10daf000e0418000d08c880068004700c38320008c
:10db000032c0b300b1c0b3001e1707006800470061
:10db1000a1742100b0187800a0107800e4804000c3
:10db200064004000b0187800a0107800e480400045
:10db300064004000b0187800a0107800e480400035
:10db400064004000e48320006000b8006011b80069
:10db5000009abe000292be0080082000d0418800da
:10db6000e2832000a17421001e00780001fc070060
:10db7000100798001e0090000000e0007e003200b8
:10db80001e009000e10f500002003a00e0418000ca
:10db9000f08c880068004700c383200082c0b30077
:10dba000b1c0b300f716070068004700a174210058
:10dbb000b0187800a0107800e480400064004000b5
:10dbc000b0187800a0107800e480400064004000a5
:10dbd000b0187800a0107800e48040006400400095
:10dbe000e48320006000b8006011b800009abe0015
:10dbf0000292be00e0082000d0418800e2832000ad
:10dc0000a17421001e007800dafb070010079800bd
:10dc10001e0090000000e000570032001e0090003f
:10dc2000e10f500002003a00e0418000108d8800b2
:10dc300068004700c383200092c0b300b1c0b300a6
:10dc4000d016070068004700a1742100b0187800c2
:10dc5000a0107800e480400064004000b018780014
:10dc6000a0107800e480400064004000b018780004
:10dc7000a0107800e480400064004000e4832000ad
:10dc80006000b8006011b800009abe000292be00a9
:10dc900040092000d0418800e2832000a1742100c7
:10dca0001e007800b3fb0700100798001e009000cc
:10dcb0000000e000300032001e009000e10f500034
:10dcc00002003a00e0418000508d88006800470063
:10dcd000c3832000a2c0b300b1c0b300a9160700df
:10dce00068004700a1742100b0187800a0107800e7
:10dcf000e480400064004000b0187800a010780074
:10dd0000e480400064004000b0187800a010780063
:10dd1000e480400064004000e48320006000b8001c
:10dd20006011b800009abe000292be00a009200057
:10dd3000d0418800e2832000a17421001e007800f9
:10dd40008cfb0700100798001e0090000000e00008
:10dd5000090032001e009000e10f500002003a005e
:10dd6000e0418000308d88003e00900011c0b3007b
:10dd7000014878003a28ef000080fa000000060011
:020000040000fa
:10dd80001a00fa00889fbe008a1f7800404f980052
:10dd900072079800030f9800140f9800250f980041
:10dda000360f9800470f98006000b800008fbe0043
:10ddb0004e4890000080fb00c200dd0000592100a9
:10ddc000008040001000be000001be007e009000f8
:10ddd0008e089000d7da07002007980031079800d6
:10dde0004e4890000085fb004e4890000080fb00ec
:10ddf000c200dd0000572100008040001004be007a
:10de00004e4890000080fb007400b90000007800cc
:10de1000ec004000004d2100008040001000be00da
:10de20002e019000be01900009dc07000001be0039
:10de30000800be00c0da0700c251dd000257210011
:10de4000028141000089be004e4890000080fb0026
:10de5000c200dd0000592100008040001000be001b
:10de60000001be001e089000ae089000b1da070065
:10de700040079800510798004e4890000084fb002e
:10de80004e4890000080fb007400b90080007800cc
:10de9000004d2100008040001001be004e4890005f
:10dea0000080fb007400b90000007800e40040002e
:10deb000004d2100008040001000be004e4a90003e
:10dec0000482fb00c222dd000457210004824200cc
:10ded0001403be000202be000001be000600be0028
:10dee00049110700c241dd000257210002814100b3
:10def0000089be004e4890000080fb007400b9000d
:10df000000007800e8004000004d21000080400043
:10df10001000be002e019000be019000ccdb070077
:10df20000002be004e4890000080fb00c200dd00f1
:10df300000572100008040001000be000001be001c
:10df40000400be007cda07000004be004e489000ca
:10df50000080fb007400b90000007800f000400071
:10df6000004d2100008040001000be004e019000d6
:10df7000de019000b6db07000001be000800be0015
:10df80006cda07003e099000ce0990006ada0700bb
:10df9000008fbe004e4890000080fb007400b90066
:10dfa00080007800004d2100008040001000be007d
:10dfb00018c0b3001e01be000ddb07000000e0002a
:10dfc000010035000044eb000804e00023003200ab
:10dfd0004e4890000080fb007400b900800078007b
:10dfe000004d210000804000301f7800201778008d
:10dff0004e4890000085fb004e4890000080fb00da
:10e00000c200dd0000572100008040001004be0067
:10e010004e4890000080fb007400b90000007800ba
:10e02000ec004000004d2100008040001000be00c8
:10e030002e019000be01900085db07000001be00ac
:10e040000800be003bda0700c251dd000257210084
:10e05000028141000089be00330037004e48900025
:10e060000080fb007400b90000007800e40040006c
:10e07000004d2100008040001000be0018c0b30019
:10e080001e01be00dcda07000000e00001003c00d9
:10e090000044eb000804e000230032004e489000ea
:10e0a0000080fb007400b90000007800e40040002c
:10e0b000004d210000804000301f780020177800bc
:10e0c0004e4890000085fb004e4890000080fb0009
:10e0d000c200dd0000572100008040001004be0097
:10e0e0004e4890000080fb007400b90000007800ea
:10e0f000ec004000004d2100008040001000be00f8
:10e100002e019000be01900051db07000001be000f
:10e110000800be0007da0700c251dd0002572100e7
