:020000040000fa
:040010009424000034
:020000040000fa
:04025c0094240000e6
:020000040000fa
:040210009424000032
:020000040000fa
:0402740094240000ce
:020000040000fa
:04033400942400000d
:020000040000fa
:04035c0094240000e5
:020000040000fa
:0402700094240000d2
:020000040000fa
:04022c009424000016
:020000040000fa
:04023c009424000006
:020000040000fa
:0402bc009424000086
:020000040000fa
:0402c0009424000082
:020000040000fa
:0402c400942400007e
:020000040000fa
:0402c800942400007a
:020000040000fa
:0402800094240000c2
:020000040000fa
:0402840094240000be
:020000040000fa
:04039c0094240000a5
:020000040000fa
:04022800942400001a
:020000040000fa
:0402780094240000ca
:020000040000fa
:04029c0094240000a6
:020000040000fa
:0402fc009424000046
:020000040000fa
:040300009424000041
:020000040000fa
:0402600094240000e2
:020000040000fa
:0402640094240000de
:020000040000fa
:04027c0094240000c6
:020000040000fa
:0402880094240000ba
:020000040000fa
:0402b0009424000092
:020000040000fa
:0402b400942400008e
:020000040000fa
:0402b800942400008a
:020000040000fa
:04023800942400000a
:020000040000fa
:0402e0009424000062
:020000040000fa
:0402e400942400005e
:020000040000fa
:0402e800942400005a
:020000040000fa
:0402f400942400004e
:020000040000fa
:0402f800942400004a
:020000040000fa
:04030400942400003d
:020000040000fa
:040308009424000039
:020000040000fa
:04030c009424000035
:020000040000fa
:040310009424000031
:020000040000fa
:04031400942400002d
:020000040000fa
:040318009424000029
:020000040000fa
:04031c009424000025
:020000040000fa
:04032400942400001d
:020000040000fa
:040328009424000019
:020000040000fa
:040338009424000009
:020000040000fa
:04033c009424000005
:020000040000fa
:040340009424000001
:020000040000fa
:0403440094240000fd
:020000040000fa
:04034c0094240000f5
:020000040000fa
:0403500094240000f1
:020000040000fa
:0403540094240000ed
:020000040000fa
:0403580094240000e9
:020000040000fa
:0403600094240000e1
:020000040000fa
:0403640094240000dd
:020000040000fa
:0403680094240000d9
:020000040000fa
:0403480094240000f9
:020000040000fa
:04026c0094240000d6
:020000040000fa
:0402f0009424000052
:020000040000fa
:04037c0094240000c5
:020000040000fa
:04021800942400002a
:020000040000fa
:040230009424000012
:020000040000fa
:040240009424000002
:020000040000fa
:04028c0094240000b6
:020000040000fa
:0402900094240000b2
:020000040000fa
:0402cc009424000076
:020000040000fa
:0402d0009424000072
:020000040000fa
:0402d400942400006e
:020000040000fa
:0402d800942400006a
:020000040000fa
:0403980094240000a9
:020000040000fa
:04020c009424000036
:020000040000fa
:0402dc009424000066
:020000040000fa
:040320009424000021
:020000040000fa
:04020800942400003a
:020000040000fa
:04021c009424000026
:020000040000fa
:040220009424000022
:020000040000fa
:04022400942400001e
:020000040000fa
:0402680094240000da
:020000040000fa
:0402ec009424000056
:020000040000fa
:0403780094240000c9
:020000040000fa
:04024c0094240000f6
:020000040000fa
:0402500094240000f2
:020000040000fa
:0402a800942400009a
:020000040000fa
:0402ac009424000096
:020000040000fa
:0403900094240000b1
:020000040000fa
:0403940094240000ad
:020000040000fa
:04021400942400002e
:020000040000fa
:04023400942400000e
:020000040000fa
:0402440094240000fe
:020000040000fa
:0402480094240000fa
:020000040000fa
:0402940094240000ae
:020000040000fa
:0402980094240000aa
:020000040000fa
:04032c009424000015
:020000040000fa
:0402540094240000ee
:020000040000fa
:0402580094240000ea
:020000040000fa
:040330009424000011
:020000040000fa
:0402a00094240000a2
:020000040000fa
:0402a400942400009e
:020000040000fa
:04036c0094240000d5
:020000040000fa
:0403700094240000d1
:020000040000fa
:0403740094240000cd
:020000040000fa
:0403840094240000bd
:020000040000fa
:0403880094240000b9
:020000040000fa
:04038c0094240000b5
:020000040000fa
:0403800094240000c1
:020000040000fa
:0400740094240000d0
:020000040000fa
:04013400942400000f
:020000040000fa
:04015c0094240000e7
:020000040000fa
:0400700094240000d4
:020000040000fa
:0400c0009424000084
:020000040000fa
:0400c4009424000080
:020000040000fa
:0400c800942400007c
:020000040000fa
:0400800094240000c4
:020000040000fa
:0400840094240000c0
:020000040000fa
:04019c0094240000a7
:020000040000fa
:04002800942400001c
:020000040000fa
:0400780094240000cc
:020000040000fa
:04009c0094240000a8
:020000040000fa
:0400fc009424000048
:020000040000fa
:040100009424000043
:020000040000fa
:0400600094240000e4
:020000040000fa
:0400640094240000e0
:020000040000fa
:04007c0094240000c8
:020000040000fa
:0400880094240000bc
:020000040000fa
:0400b0009424000094
:020000040000fa
:0400b4009424000090
:020000040000fa
:0400b800942400008c
:020000040000fa
:04003800942400000c
:020000040000fa
:0400e0009424000064
:020000040000fa
:0400e4009424000060
:020000040000fa
:0400e800942400005c
:020000040000fa
:0400f4009424000050
:020000040000fa
:0400f800942400004c
:020000040000fa
:04010400942400003f
:020000040000fa
:04010800942400003b
:020000040000fa
:04010c009424000037
:020000040000fa
:040110009424000033
:020000040000fa
:04011400942400002f
:020000040000fa
:04011800942400002b
:020000040000fa
:04011c009424000027
:020000040000fa
:04012400942400001f
:020000040000fa
:04012800942400001b
:020000040000fa
:04013800942400000b
:020000040000fa
:04013c009424000007
:020000040000fa
:040140009424000003
:020000040000fa
:0401440094240000ff
:020000040000fa
:04014c0094240000f7
:020000040000fa
:0401500094240000f3
:020000040000fa
:0401540094240000ef
:020000040000fa
:0401580094240000eb
:020000040000fa
:0401600094240000e3
:020000040000fa
:0401640094240000df
:020000040000fa
:0401680094240000db
:020000040000fa
:0401480094240000fb
:020000040000fa
:04006c0094240000d8
:020000040000fa
:0400f0009424000054
:020000040000fa
:04017c0094240000c7
:020000040000fa
:04001800942400002c
:020000040000fa
:040030009424000014
:020000040000fa
:040040009424000004
:020000040000fa
:04008c0094240000b8
:020000040000fa
:0400900094240000b4
:020000040000fa
:0400cc009424000078
:020000040000fa
:0400d0009424000074
:020000040000fa
:0400d4009424000070
:020000040000fa
:0400d800942400006c
:020000040000fa
:0401980094240000ab
:020000040000fa
:04000c009424000038
:020000040000fa
:0400dc009424000068
:020000040000fa
:040120009424000023
:020000040000fa
:04000800942400003c
:020000040000fa
:04001c009424000028
:020000040000fa
:040020009424000024
:020000040000fa
:040024009424000020
:020000040000fa
:0400680094240000dc
:020000040000fa
:0400ec009424000058
:020000040000fa
:0401780094240000cb
:020000040000fa
:04004c0094240000f8
:020000040000fa
:0400500094240000f4
:020000040000fa
:0400a800942400009c
:020000040000fa
:0400ac009424000098
:020000040000fa
:0401900094240000b3
:020000040000fa
:0401940094240000af
:020000040000fa
:040014009424000030
:020000040000fa
:04012c009424000017
:020000040000fa
:040130009424000013
:020000040000fa
:0400a00094240000a4
:020000040000fa
:0400a40094240000a0
:020000040000fa
:04016c0094240000d7
:020000040000fa
:0401700094240000d3
:020000040000fa
:0401740094240000cf
:020000040000fa
:0401840094240000bf
:020000040000fa
:0401880094240000bb
:020000040000fa
:04018c0094240000b7
:020000040000fa
:080000000020040000000000d4
:020000040000fa
:104000000f8221000e7f24000e01880000000000b6
:10401000000020000000e00002003200000120004b
:104020002002880014000700410207000000e000a1
:1040300003003a00209e2500010020000200370006
:104040000000200001002000810f700001003200fc
:1040500014000700000020000000e0000200320011
:104060000000020000000000a2a00200000000000a
:104070000040da000000fe004440a900a00e20002d
:104080000000e0000300320000002000a0018800d2
:104090004440a800000006008a1f78008b1f7800ab
:1040a0000000060091018800800478000000eb0009
:1040b0001a003700e284440032a0b4009905ba0027
:1040c000e284440032a0b4009906ba00e2844400bd
:1040d00032a0b4000006eb00476fde00fd07b2001f
:1040e000636ce10003003a00ebff07000000eb0007
:1040f0000a003700606ce10004003a00005deb004c
:104100008b05e900fdff3e00040037006168e10017
:10411000010032000086eb000b00070019c7ba004f
:104120001905ba000e04e00003003a000a00e0009e
:10413000e0ff3a0000000600fe07b2009e01880082
:104140008a047800f5ff3700395dba008b05e90075
:104150000c003200295dba008b05e900080032002e
:104160000c00e00003003a00e284440032a0b400f6
:10417000f5ff370019ddba008b05e900faff3a00b8
:104180008904e800e184440032a0b4000000060085
:1041900098a0040000000000fc8004000000000063
:1041a000aaa00400000000003600f800809fbe00b6
:1041b000829fbe00849fbe00869fbe003400f80030
:1041c00000002000a00188000200fa0000408000ea
:1041d000e10f50000b003a00a124800000042000f1
:1041e000008060000000e00006003a00f00f2000b0
:1041f000502488008c04a8008c84a8002000200093
:104200000040880000248000700060000000e00092
:104210000700320010248000700060000000e00001
:10422000030032000001200000248800683f0700de
:1042300040248000620060000000e00002003200c4
:104240008ec0a90078003700502480006100600013
:104250000000e0001a00320060248000610060006d
:104260000000e00016003200583307009ec0a8008e
:1042700040002000004088008073210010c08800aa
:104280000080210081c0b300014878001080210027
:1042900010407800e3406000108021000148780061
:1042a0001080210090407800c0c8b30080c070002a
:1042b0001080210001487800100020005024880060
:1042c00050248000700060000000e0000700320011
:1042d00060248000700060000000e00003003200f5
:1042e000313f070000012000502488005024800046
:1042f000640060000000e0000a00320060248000da
:10430000640060000000e00006003200120020009f
:104310008000eb0030072000bc3807004000200080
:104320005024880051248000000820000080600094
:104330000000e00006003200612480000008200038
:10434000008060000000e00001003200423d0700f4
:1043500050248000620060000000e0000a0032008b
:1043600060248000620060000000e000060032006f
:10437000120020008000eb00f0ff2700a3380700a8
:10438000f00f20007024880000408000e30f5000f0
:1043900002003e008ec0a900230037006024800088
:1043a000680060000000e0001e0032000040eb00ea
:1043b000004f78001600370050248000680060002d
:1043c0000000e000160032009024800000407800d9
:1043d00016e8b700800020005024880016c8bf00ef
:1043e0008080fb00000f2000008060000000e000e3
:1043f00002003a0012350700040037000001eb000c
:104400006181200020072000803807001e4fe8004f
:104410001e407800e34f5000e7ff360001003700f0
:10442000000000008ec0a9000080fa003400f900ee
:104430004f03be004f02be004f01be004f00be0042
:104440003600f900004006003600f800809fbe00ec
:10445000829fbe00849fbe00869fbe003400f8008d
:1044600000002000a00188000000fa00a0428000a7
:10447000000001000080fa003400f9004f03be0084
:104480004f02be004f01be004f00be003600f900d3
:10449000004006003600f800809fbe00829fbe00ec
:1044a000849fbe00869fbe003400f80000002000fc
:1044b000a00188000000fa00b04280000000010066
:1044c0000080fa003400f9004f03be004f02be0026
:1044d0004f01be004f00be003600f900004006004c
:1044e0003600f800809fbe00829fbe00849fbe0001
:1044f000869fbe003400f80000002000a001880064
:104500000000fa00c0428000000001000080fa00b4
:104510003400f9004f03be004f02be004f01be0041
:104520004f00be003600f900004006003600f800db
:10453000809fbe00829fbe00849fbe00869fbe00fb
:104540003400f80000002000a00188000000fa00fc
:10455000d0428000000001000080fa003400f90021
:104560004f03be004f02be004f01be004f00be0011
:104570003600f900004006003600f800809fbe00bb
:10458000829fbe00849fbe00869fbe003400f8005c
:1045900000002000a00188000000fa00e042800036
:1045a000000001000080fa003400f9004f03be0053
:1045b0004f02be004f01be004f00be003600f900a2
:1045c000004006003600f800809fbe00829fbe00bb
:1045d000849fbe00869fbe003400f80000002000cb
:1045e000a00188000000fa003043800000000100b4
:1045f0000080fa003400f9004f03be004f02be00f5
:104600004f01be004f00be003600f900004006001a
:104610003600f800809fbe00829fbe00849fbe00cf
:10462000869fbe003400f80000002000a001880032
:104630000200fa008560a9000900370030118000ef
:10464000004f7800c0862000143e07000000e00004
:10465000030034009e407800c0862000e13b070044
:1046600010118000610060000000e000f3ff3a00dc
:1046700010118000620060000000e00001003200c4
:104680002222a9000080fa003400f9004f03be0086
:104690004f02be004f01be004f00be003600f900c1
:1046a000004006003600f800809fbe00829fbe00da
:1046b000849fbe00869fbe003400f80000002000ea
:1046c000a00188000000fa008580a90004003700de
:1046d000408720008c3b07000080fb0020118800f1
:1046e0001111800000202000008060000000e00028
:1046f00004003a0040872000533e07000000e0001d
:10470000f3ff3c000080fa003400f9004f03be00c4
:104710004f02be004f01be004f00be003600f90040
:10472000004006003600f800809fbe00829fbe0059
:10473000849fbe00869fbe003400f8000000200069
:10474000a00188000200fa00d0168000610060001d
:1047500000f0a7000000ea00000fe9001e0078004a
:104760004f00de00000f78000f003700200a8000a5
:10477000000178009e0078000000eb00be360700c4
:104780001e0078000000e00004003a0090738000f2
:104790000000e900907388000300370090738000e8
:1047a0000000e80090738800000a80006800600044
:1047b0000000e000edff3a008420a9000080fa002c
:1047c0003400f9004f03be004f02be004f01be008f
:1047d0004f00be003600f900004006003600f80029
:1047e000809fbe00829fbe00849fbe00869fbe0049
:1047f0003400f80000002000a00188000200fa0048
:1048000011178000000220000080600000f0a70067
:104810000000ea00000fe9001e0078004f00de00f3
:10482000000f78000f003700600a80000001780058
:104830009e007800100020008f3607001e007800d0
:104840000000e00004003a00a07380000000e900ce
:10485000a073880003003700a07380000000e80008
:10486000a0738800400a8000680060000000e0003b
:10487000edff3a0084a0a9000080fa003400f9009e
:104880004f03be004f02be004f01be004f00be00ee
:104890003600f900004006003600f800809fbe0098
:1048a000829fbe00849fbe00869fbe003400f80039
:1048b00000002000a00188000200fa00101780000c
:1048c0006100600000f0a7000000ea00000fe900ae
:1048d0001e0078004f00de00000f78000500370052
:1048e000a00a8000000178009e00780020002000cf
:1048f00061360700400a8000680060000000e000a8
:10490000f7ff3a0088a0a9000080fa003400f900ff
:104910004f03be004f02be004f01be004f00be005d
:104920003600f900004006000040da000000fe00fa
:104930000000050003f0a200889fbe008a9fbe0011
:104940008c1f78002a010700310133006450e10018
:104950004f0032006420e1005200320003826c00fc
:1049600007003b000905d0000306d000820f540069
:104970000c065d0002003900020032008901780057
:10498000030678008582550004003d000003fd0009
:104990008103fd008502ea008b854200840f7200ce
:1049a00002003b0060001000e08018006011b800b9
:1049b0000005eb007a28e1000a00390006007800c3
:1049c000c75ddd00f707b200878075002d00370056
:1049d000828171000a017800610560008180d10048
:1049e0000080d3008502e900f9ff3b000604400087
:1049f0008784480002003b0060041400e0841c002f
:104a00000988a300070032008a8171008281710049
:104a1000610164008904d1000884d3008b05e8009b
:104a2000170037000978a30013003a000b00e000dc
:104a3000130034008b05e9000804440089844c000d
:104a40000a4474000978a3000d003a000b00e0004e
:104a5000070034008b05e9000804440089844c00f9
:104a600001003a000b0020000978a300f7ff320094
:104a70000001eb0002003700828171000a0178001a
:104a8000a00007000cf0a70001f0a000e90037002b
:104a90006420e10002003a00838f6c00e9003300db
:104aa0000801be000200be00e2003700889fbe0081
:104ab0008a9fbe008c1f7800cd000700d400330011
:104ac00003866c006450e1002e0032006420e10097
:104ad000330032006150e1002f0032006120e1001c
:104ae0003100320085855500eb07b0000900200039
:104af00008042000050037000804440089844c00a5
:104b00000a0031000603430087834b000001530075
:104b100081815b00f8ff33000203be000800a000a3
:104b20000804440089844c00f6ff3900c639dd00d2
:104b30008301730001003200130020008904d100ba
:104b40000884d3000998a300050032000800a700dc
:104b50000300a0008904d1000884d3008b05e8007d
:104b60008904d1000884d3000001eb000281d20047
:104b70006400070001f0a1000cf0a70001f0a00004
:104b8000ac0037006420e100ae0032000801be0036
:104b90000200be00f7ff37006120e100a9003200eb
:104ba0006000b800f3ff37000000200001f8270084
:104bb000f0ff3700839f68000100e00002003d0025
:104bc00060001000e08018000300e00002003d00db
:104bd00060011100e0811900d10007004f00e000e2
:104be00002003b0060001000e0801800000006009a
:104bf0001400200005023700f4ff2f0003023700e5
:104c00000001be00650007000470a70003f0a100ca
:104c10006509b100160032000d0035006828e1007a
:104c200006003500f0ff2f00f1ff27000300e00031
:104c300013003b00010028000000050000004000b8
:104c4000818048008502e900fcff3a000800370037
:104c5000f88f420002003c008000eb0000000500dd
:104c60008100d1000080d3008502e800fcff3a00fb
:104c70000300e00002003b0060001000e08018002c
:104c8000000006000001be00440007000470a700f9
:104c900003f0a10003f8a30013003a006509b10076
:104ca00010003200090035006928e10002003500db
:104cb000010028000000050000004000818048003d
:104cc0008502e900fcff3a0000000600f88f420070
:104cd000050035008100d1000080d3008502e80086
:104ce000fcff3a00000006008000eb000000050019
:104cf0004f89de0082017800df0137006011b800c3
:104d0000ed01370081002000618055000b003d005f
:104d10000b00200061fe2f000100e1001d003400a7
:104d200082817100610164008904d1000884d3008c
:104d30000000e800faff3a00710020006100640002
:104d400003007000020060000900320061044400aa
:104d5000e0844c000988a500050032008b05e800be
:104d60006808e10002003a008904d1000884d300f9
:104d7000f20f20000258e10005003d00c75ddd0094
:104d8000f907b2008980750008007800000006006d
:104d90000bf827008b00780000000500c70ade0032
:104da000f107b200f50fb20008003200e1cf420077
:104db000020032000170a00024000500810f700085
:104dc000010032000408050044000500810f700056
:104dd00002003a00140005008502e90000004000ce
:104de00081c04800fcff3b000170a00024000500ca
:104df0000004be00e9ff07000003be000405be007a
:104e00000200be00e5ff0700844f750000000600a9
:104e10000200be006450e100050036006420e1009d
:104e2000020036000968a30001003a000800be0035
:104e30000160a0004f0678004f05be004f04be0081
:104e400000000600f0ff2f00f1ff2700f9ff3700f8
:104e5000889fbe008a9fbe008c1f7800e4ff070079
:104e6000ebff330003866c006450e1002400320045
:104e70006420e100270032006150e100220032008e
:104e80006120e100210032008b854200eb07b10078
:104e90000134b800003ab8000804420089844a008e
:104ea000013ab8000030b8008880400009014a008b
:104eb00004003300000040008180480002014900e6
:104ec0008b05e900c909dd00830170000100320093
:104ed00013002000c814de004814dd004709de007e
:104ee0001200b200c808de000884700085ff0700c9
:104ef00001f0a1000cf0a70001f0a000cdff3700e9
:104f00006120e100cfff32000801be000200be00b8
:104f1000f7ff37006150e100fcff3a00c9ff37009e
:104f20006022b800060220000000d0008180d2007c
:104f30000482d2008582d2000000a000020252004a
:104f400083825a00030031000202420083824a0039
:104f50000000a1000603e900f3ff3a00000006008c
:104f6000889fbe008a9fbe0030044200b0844a0081
:104f700030054b0090854b006000b1000898be00e2
:104f80000a90be000440e10005c8e10006d0e1003f
:104f900007d8e10002003100680040001008e80076
:104fa0004f05be004f04be0000000600889fbe00f3
:104fb0008a9fbe003004be002005be0004185400c5
:104fc00005985c0006185d0007985d001100200040
:104fd0000440e10005c8e10006d0e10007d8e10087
:104fe000010039008000eb00108810004f05be0062
:104ff0004f04be00000006001200fa00889fbe00a9
:105000008a9fbe008c9fbe00e0b79f00f1b79f0053
:1050100082bf9f0093bf9f000605be000404be0030
:105020000000eb00d0b79f00c0b79f00b0b79f0053
:10503000a0b79f0090b79f000006eb005fb19700fc
:10504000cfb09700820141003fb097000200e0001e
:1050500004003d00370007007e805700c0ff0700b6
:1050600003003700330007007e805700cfff0700a2
:10507000dfb697000d00e0000c0035006fb297001e
:10508000ffb297000fbb97009fbb97001000200056
:10509000010020006011b8000002720081827200dd
:1050a00002037300838373001b0007000c06e800f3
:1050b00001042000810f5600e0ff3a000d00e000df
:1050c00004003d000802be000a03be007e805700b7
:1050d000a3ff07005fa897000000e00005003a006a
:1050e0001fb29700afb297003fb39700cfb39700be
:1050f000090007006fb09700ffb097000fb9970045
:105100009fb997004f06be004f05be004f04be007a
:105110000080fa0000000600010007000000060001
:10512000a4b79f00b5b79f00c6b79f00d7b79f0031
:10513000000006004f09de0082817100b3b79f00b6
:105140004f01de008180400082807000a1b79f0087
:105150008fb097004f09de00000040000200700091
:1051600090b79f007fa897004f01de00818040002c
:105170008280700081b79f000d0007004f3ade006b
:105180000000400004007000f0af9f00080007001e
:105190000402420085824a0006034b0087834b00cd
:1051a000dfff07000802be000a03be000000060081
:1051b0002fb29700bfb297004fb39700dfb39700ad
:1051c00000000600881f780018002000881f780063
:1051d00089ff07008f87e9004f0478000000060070
:1051e000801feb0084ff07008f87e90000000600a6
:1051f000889fbe008a9fbe00e00f5000e08f5800dd
:10520000e00f5900e08f59000c003d006044b800e9
:105210006055b8000000540081805c0002015d0010
:1052200083815d00180020001500070008003d0084
:10523000180007000004eb00050037000004eb0035
:105240000f00070002003d001200070018002000b8
:10525000dcff07000800e000060032006022b80012
:105260006033b8000000520081805a0002015b00e8
:1052700083815b004f05be004f04be0000000600a6
:10528000e00f5200e08f5a00e00f5b00e08f5b0000
:10529000000006006044b8006055b80004025400e5
:1052a00085825c0006035d0087835d0000000600c8
:1052b000889fbe008a9fbe008c1f7800e00f5000c0
:1052c000e08f5800e00f5900e08f59000d003d00bd
:1052d0006044b8006055b8000000540081805c0054
:1052e00002015d0083815d001c0020000820e100b8
:1052f00009a8e1000ab0e1000bb8e1000d003d0093
:10530000080037000006eb00e00f5200e08f5a0063
:10531000e00f5b00e08f5b0006003d006044b800da
:105320006055b8000402540085825c0006035d00ed
:1053300087835d00aaff07000c00e0000600320032
:105340006022b8006033b8000000520081805a002b
:1053500002015b0083815b004f0678004f05be00b1
:105360004f04be0000000600889fbe008a9fbe005a
:105370008c1f78000006eb00e00f5000e08f580013
:10538000e00f5900e08f590007003d006044b8006d
:105390006055b8000000540081805c0002015d008f
:1053a00083815d001c002000e00f5200e08f5a0056
:1053b000e00f5b00e08f5b0007003d006044b80039
:1053c0006055b8000402540085825c0006035d004d
:1053d00087835d000c00a200660007000c00e0005f
:1053e000060032006022b8006033b80000005200ae
:1053f00081805a0002015b0083815b004f067800c8
:105400004f05be004f04be0000000600889fbe008e
:105410008a9fbe00841f780075fe07004f00780049
:1054200011003300f0ff2f00838f6c0006003b005b
:10543000040565000a00a7000800370009f0a6006f
:105440001000200008003700820f5400838f5c009a
:10545000030039001000200001003e000000200081
:1054600009f0a7000000ea004f05be004f04be008f
:105470000000e00000000600881f780003047800a8
:105480000300e00007003d0060001000e08018000d
:1054900060011900e081190002003b0001f02d00bd
:1054a000030037000400070008f0a70001f0a00087
:1054b0004f04780000000600889fbe008a9fbe004f
:1054c0000082700004027100048271002600320024
:1054d0000004be000200be006011b8006b0920008d
:1054e000950220000182cf000a0039000541b10079
:1054f0000082cf00070039000541b1000982cf00ca
:10550000040039000541b1000882cf0001003900d4
:105510000541b10005425200120032000a003b0072
:1055200082817100610164008100d1000080d3009c
:105530008984d3000884d3008b05e8000442e80086
:10554000f7ff3a00070037000804440089844c0044
:1055500000004800818048008b05e9000442e90012
:10556000f9ff3a00e7fd07004f05be004f04be00fb
:1055700000000600889fbe008a9fbe008c9fbe0070
:105580000404b8000506b8008904460060854e0092
:105590000606b8000a054600e0854e000706b8007a
:1055a0008b054600040eb800890446000a854e00ab
:1055b000e0854d00050eb8000a0546008b854e00bb
:1055c000060eb8008b0546000416b8000a05460012
:1055d0008b854e000516b8008b054600041eb800ea
:1055e0008b0546000800be000a01be004f06be0043
:1055f0004f05be004f04be00000006008001780089
:1056000002003700b15978000201e9000200e00011
:10561000fcff3a000000060080017800020037001d
:10562000815978000201e9000200e000fcff3a0025
:1056300000000600020037000204e0000b00320008
:10564000810178000002780030417800b14f5100ac
:10565000f9ff32001000200014427800934f5200ee
:10566000030031000080eb00000006000000eb00aa
:045670000000060030
:020000040000fa
:04018000d420000087
:020000040000fa
:020000040005f5
:0457fc00f73e000074
:020000040000fa
:020000040005f5
:0457f8009e430000cc
:020000040000fa
:040034002422000082
:020000040000fa
:040044004a2200004c
:020000040000fa
:040048007022000022
:020000040000fa
:0400940096220000b0
:020000040000fa
:04009800bc22000086
:020000040000fa
:04005c00e22200009c
:020000040000fa
:04005400082300007d
:020000040000fa
:04005800522300002f
:020000040000fa
:04002c00922300001b
:020000040000fa
:04003c00ee230000af
:020000040000fa
:0400bc004c240000d0
:020000040000fa
:10a8000009020000200000000101000000c000005b
:10a81000320900000400000000020000ffff0000f9
:10a82000ff0000000705000001010000ffff00001d
:10a83000010700000581000001ff0000ff0100008a
:10a8400004030000010000001a0300005200000091
:10a850006f000000620000006f0000007400000044
:10a8600065000000580000002c00000020000000df
:10a87000490000006e000000630000002c0300008f
:10a880004a000000610000006e000000200000008f
:10a890003100000030000000200000003200000005
:10a8a00030000000310000003900000020000000ee
:10a8b00031000000390000003a00000030000000c4
:10a8c000370000003a0000003100000030000000b6
:10a8d0000000000000d4000020d4000024d40000b8
:10a8e0003ed4000000000000000000000000000056
:10a8f0000000000006020000080200000202000042
:10a90000000200000402000016020000180200000d
:10a910001202000010020000140200007602000083
:10a920007802000072020000700200007402000051
:10a930007ad4000084d400008ed40000000000000f
:10a940000000000000000000000000004242000083
:10a950002d32000035390000300000004254000064
:10a960002d37000030370000393100004200000070
:10a97000425400002d37000030370000393100000c
:10a9800043000000524f0000424f000054450000b9
:10a9900058000000312e0000352e0000300000006d
:10a9a00001000000050000000000000000fd0000a4
:10a9b0000000000000000000000000000000000097
:10a9c0000000000000000000000000000000000087
:04a9d0000200000081
:020000040000fa
:10a9d4001200fa00881f78002004800068006000dc
:10a9e4000000e000250032008460a900b11e0700c9
:10a9f40020702100e61f0700e20f500002003a0019
:10aa04002ec8bf00281207000000eb00000f7800da
:10aa1400170037001e0078006600b9008000780037
:10aa2400006c210000804000d91f0700e20f500095
:10aa340006003a002ec8bf000004e0000b003200fc
:10aa44001e0078001c230700080037001e00780051
:10aa540080004000a06821000080400010007800c1
:10aa6400800078001e007800331b07001e0fe800ea
:10aa74001e007800e20f5000e6ff3600e06d210072
:10aa8400c31f0700e20f50002f003a000000eb0044
:10aa9400000f7800290037001e0078008000400075
:10aaa400406821000080400010047800c163210048
:10aab4001e0078004300dd00008040008000780024
:10aac4004000200002210700800078001e0078006a
:10aad4004300dd0008004000000140004065210003
:10aae40000004100010878001e007800800040004a
:10aaf4004068210000804000100078008000e800d9
:10ab040070002800008060000000e00004003d00a8
:10ab14000000e90081ff2f00008070000000e800c1
:10ab2400800078001e007800000140004068210089
:10ab340000004100010878001e0fe8001e007800a4
:10ab4400e20f5000d4ff3600006f2100901f070071
:10ab5400e20f50004f003a000069210080007800a5
:10ab64004000200096210700cf80de0010079800e7
:10ab740021079800006921006800400080007800e7
:10ab8400400020008e210700cf80de0030079800af
:10ab9400410798001e009000407388003e0090001a
:10aba40050738800be0090001e009000e21f070052
:10abb400c08b880040652100800078008000200060
:10abc400c3200700607388004065210070004000c6
:10abd4008000780080002000bd200700707388008a
:10abe400406521000002b000800078008000200051
:10abf400b720070080738800d01680000000d100c1
:10ac04006140600080407800c0f020000148780076
:10ac1400101780004500de0061406000804078002d
:10ac2400d0f0200001487800006a210080007800fc
:10ac34004000200062210700d0788800006a2100cb
:10ac44006800400080007800400020005c2107007c
:10ac5400e078880021822000400020009c2007002a
:10ac6400f07888000000eb002e19070001f0a10025
:10ac740003e8070000007800508d880010002000d1
:10ac84002819070001f0a100fde707000000780083
:10ac9400608d8800606f21003d1f0700e20f5000a7
:10aca4002d003a00006b2100800078004000200055
:10acb40087200700d08a8800006b210068004000cc
:10acc400800078004000200081200700e08a88008e
:10acd400d18a8000f01f2000808f500004003e00c5
:10ace400e18a8000f01f2000808f500011003600a0
:10acf400c04180000000e800c0418800c0418000dd
:10ad0400ea0f5000140034000000eb006a22070030
:10ad1400100020006822070020002000662207009f
:10ad240010c0b3002ee8b700c06f210087240700cd
:10ad340009003700d18a800050152000808f500010
:10ad440005003e00e18a800050152000808f5000ed
:10ad540001003e003828ef00c06f21000c1f0700df
:10ad6400e20f500001003a002e68ef00406e21000f
:10ad7400071f07000010a20000f0a7000000ea006f
:10ad84000000e9004f00de00204f98000040eb0077
:10ad94000057980070004700800078002e4890000b
:10ada4000e0607000e5090000004e000020032007e
:10adb400406e210065240700a06e2100f41e0700e8
:10adc4000010a20000f0a7000000ea000000e90063
:10add4004f00de00304f98000040eb001057980001
:10ade40071004700800078003e489000100b070077
:10adf4001e5090000004e00002003200a06e21000a
:10ae0400522407006c0047008b100700ba1107009a
:10ae14004e4890000004e000010032004421070085
:10ae24005e4890000004e0000200320080702100bf
:10ae34004624070080702100d51e0700e20f500051
:10ae440003003a00c01421008040eb000148780060
:10ae54006e4890000004e00002003200206d2100e2
:10ae64003a240700206d2100c91e0700e20f50009c
:10ae740013003a000000eb00d07288000000eb00e1
:10ae8400e07288000000eb00f07288000000eb0024
:10ae9400000f7800070037001e0078008000400093
:10aea400a0682100008040008000eb0001087800c9
:10aeb4001e0fe8001e007800e20f5000f6ff360077
:10aec400806d2100b21e0700e20f500039013a00e4
:10aed4000000eb00000f7800330137001e007800fb
:10aee40080004000a068210000804000100078002d
:10aef4000000e00007003a001e00780080004000d7
:10af0400e07021000080400011f02f00010878005b
:10af14002b0037001e00780080004000a06821004c
:10af2400008040009000780010c02f00808f5000f7
:10af34000e0035001e00780080004000a06821004b
:10af440000804000100078000000e00007003d0091
:10af54001e00780080004000e07021000080400066
:10af640031f02f0001087800150037001e0078002a
:10af740080004000a068210000804000100078009c
:10af84000000e0000e0034001e0078008000400045
:10af9400a06821000080400090007800f03f20006d
:10afa400808f500006003c001e00780080004000a6
:10afb400e07021000080400021f02f00010878009b
:10afc4001e00780080004000407121000080400095
:10afd4001000780011e02e00810f50000e003200a6
:10afe40011e02e00810f500004003e0001e02e000d
:10aff400810f50003a003200ea00370021e02e00b1
:10b00400810f50009b00320031e02e00810f500070
:10b0140067003200e30037001e0078008b21070030
:10b024001e00780080004000e07021000080400095
:10b034001000780011f02f00810f50001f00320023
:10b0440011f02f00810f500004003e0001f02f008a
:10b05400810f500020003200d200370031f02f0061
:10b06400810f5000cc003e001e007800800040009c
:10b07400407121000080400021e02e00010878008a
:10b084001e0078006600b90080007800006c210082
:10b0940000804000b82307001e0078006600b90055
:10b0a40080007800a071210000804000a7230700e1
:10b0b4001e00780080210700080037001e00780079
:10b0c40080004000e07021000080400001f02f006b
:10b0d400010878000100370000000000b1003700cb
:10b0e4001e00780080004000e070210000804000d5
:10b0f4001000780011f02f00810f5000150032006d
:10b1040011f02f00810f500004003e0001f02f00c9
:10b11400810f500024003200a200370021f02f00dc
:10b12400810f50000400320031f02f00810f5000d5
:10b13400080032009b0037001e0078006600b9004a
:10b1440080007800006c210000804000c6230700c6
:10b15400160037001e007800800040004071210076
:10b164000080400021e02e00010878001e007800d5
:10b174006600b90080007800006c21000080400067
:10b184007d2307001e0078006600b9008000780067
:10b19400a0712100008040006c2307001e0078008d
:10b1a4004521070001003700000000007d00370042
:10b1b4001e00780080004000e07021000080400004
:10b1c4001000780021f02f00810f500007003e008e
:10b1d40011f02f00810f50000800310001f02f0002
:10b1e400810f5000210032006e00370031f02f0033
:10b1f400810f5000160032006a0037001e007800ec
:10b2040080004000407121000080400021e02e00b9
:10b21400010878001e0078006600b90080007800fc
:10b22400006c210000804000532307001e007800ba
:10b234006600b90080007800a07121000080400001
:10b24400422307001e0078001b2107000800370076
:10b254001e0078006600b90080007800006c2100b0
:10b264000080400080230700010037000000000038
:10b274004c0037001e0078006600b900800078009a
:10b28400a071210000804000772307001e00780091
:10b294006600b90080007800a071210000804000a1
:10b2a400bb1d0700e20f50003d003a001e0078006d
:10b2b40080004000e0702100008040001000780011
:10b2c40011f02f00810f50000e00320011f02f00fa
:10b2d400810f500004003e0001f02f00810f500048
:10b2e4002b0032002f00370021f02f00810f500077
:10b2f4000d00320031f02f00810f50001700320092
:10b30400280037001e007800d02007001e007800b7
:10b3140080004000407121000080400011e02e00b8
:10b32400010878001b0037001e0078006600b90091
:10b3340080007800006c2100008040000323070097
:10b344001e00780080004000407121000080400011
:10b3540001e02e00010878000e0037001e0078007e
:10b364006600b90080007800006c21000080400075
:10b37400f62207001e007800800040004071210082
:10b384000080400031e02e00010878000100370001
:10b394000000000003003700000000000100370037
:10b3a400000000001e0fe8001e007800e20f5000ad
:10b3b400cafe36004f0478000080fa000000060040
:020000040000fa
:10b3c400c01600006c00000002000000050001002f
:10b3d400000000000500010000000000050001005d
:10b3e400000000004d010300000000000100000007
:10b3f40000000000010000000000000064000000e4
:10b4040000000000640000000000000004000000d0
:10b4140000000000010000000000000064000300c0
:10b42400000000000a000000000000004d010300bd
:10b434000000000001ff0100ff01ff0002ee020016
:10b44400ee02ee000a000300000000000a00030000
:10b45400000000000a000300000000003c16000089
:10b4640084000000000000001e0800001c00000012
:10b474000000000048170000180000000000000051
:10b484003a0800001a0000000000000072170000d3
:10b494000c00000000000000880800000800000004
:10b4a400000000002c1700001c0000000000000039
:10b4b400000800001e00000000000000001800004a
:10b4c40020000000000000009008000002000000be
:10b4d40000000000b0110000fe01000000000000a8
:10b4e4007c0800000c00000000000000540800006c
:10b4f4001600000002000000aaa0aa00a0aaa00052
:10b50400aaa0aa00a0aaa000aaa0aa00a0aaa0007b
:10b51400aaa0aa00a0000000fc1500004000000042
:10b5240000000000ce140000e00000000000000055
:10b534006017000012000000020000001201000069
:10b544000200000000089400260000000000010032
:10b5540002000100940800008205000002000000bf
:10b564000400010000000000008016000e0200002c
:10b5740001000000000000001a0e08000000000096
:10b5840002000000801c0e00020001000002000006
:10b59400008024000e010000010002000000800071
:10b5a400260e0100000100000200000080270e00aa
:10b5b4000100010000020000008028000e010000cc
:10b5c4000100020000008000290e010000010000bb
:10b5d40002000000802a0e000100010000020000a9
:10b5e40000802b000e040000010002000000800017
:10b5f4002c0e0400000100000200000080300e0048
:10b604000400010000020000008034000e04000069
:10b614000100020000008000380e04000001000058
:10b6240002000000803c0e00040001000002000043
:10b63400008040000e0400000100020000008000b1
:10b64400440e0200000100000100000080480e00ca
:10b65400020001000001000000804a000e02000008
:10b6640001000100000080004c0e020000010000f7
:10b6740001000000804e0e000100010000010000e6
:10b68400008050000e010000010001000000800055
:10b69400510e0100000100000100000080520e0064
:10b6a4000100010000010000008053000e010000b1
:10b6b4000100010000008000540e010000010000a0
:10b6c4000100000080550e0001000100000100008f
:10b6d400008056000e0100000100010000008000ff
:10b6e400570e0100000100000100000080580e0008
:10b6f4000100010000010000008059000e06000056
:10b7040001000300000000005a0e040000010000c4
:10b714000300000000600e000400010000030000ac
:10b72400008064000e04000001000300000080009b
:10b73400680e06000001000003000000806c0e008b
:10b744000400010000030000008072000e300000bd
:10b754000100030000000000760e3000000100002c
:10b764000300000000a60e003000010000030000ea
:10b774000000d6000e0600000100030000000000d7
:10b78400060f02000001000003000000800c0f00ff
:10b79400060001000003000000800e000f060000f8
:10b7a4000100030000008000140f040000010000e9
:10b7b40003000000801a0f000200010000030000d3
:10b7c40000801e000f0100000100020000000000c4
:10b7d400200f0400000100000200000080220f007e
:10b7e4000400010000020000008026000f04000095
:10b7f40001000200000080002a0f04000001000084
:10b8040002000000802e0f00010001000002000071
:10b81400000032000f04000001000100000080005d
:10b82400340f0400000100000100000080380f0004
:10b83400040001000001000000803c000f0400002f
:10b844000100010000008000400f0400000100001e
:10b854000100000080440f0004000100000100000a
:10b86400008048000f040000010001000000800077
:10b874004c0f0400000100000100000080500f0084
:10b884000400010000010000008054000f010000ca
:10b894000100010000008000580f020000010000b8
:10b8a40001000000805a0f000200010000010000a6
:10b8b40000805c000f0c000001000200000080000a
:10b8c4005e0f01000001000002000000006a0f008a
:10b8d400080000000002000000006c000f6400007b
:10b8e4000000010000008000740f0200000100004d
:10b8f4000100000080d80f000200010000010000d8
:10b904000080da000f020000010001000000800046
:10b91400dc0f0200000100000100000080de0f00c7
:10b9240002000100000100000080e0000f0200009e
:10b934000100010000008000e20f18000000000078
:10b944000100000080e40f00180000000002000065
:10b954000080fc000f640000000002000000800072
:10b9640014104f0000000000020000008078100056
:10b9740002000100000300000080c8001002000063
:10b984000100030000008000ca104f000000000006
:10b994000300000080cc1000180000000003000029
:10b9a40000801c00110100000100020000000000e2
:10b9b40034110100000100000200000000351100f4
:10b9c4000200010000050000000036001104000020
:10b9d40001000a000000000038110200000100000c
:10b9e40005000000803c110001000100000500007a
:10b9f40000003e001106000001000a000000800063
:10ba040040110200000100000a00000080461100fd
:10ba140001000100000a000000804800110200003b
:10ba240001000a00000080004a110100000100002a
:10ba340003000000004c110002000100000100009e
:10ba440000804e001102000001000100000080008f
:10ba5400501101000001000001000000005211001b
:10ba64000100010000020000000053001101000069
:10ba74000100020000000000541101000001000058
:10ba84000500000000551100010001000002000043
:10ba9400000056001102000001000a0000008000ae
:10baa400581102000001000003000000805a110038
:10bab400020001000003000000805c00110a000085
:10bac40001000d00000000005e110c0000010000e8
:10bad4000d0000008068110001000100000f00004b
:10bae400000074001101000001000f00000080003c
:10baf4007511010000010000010000000076110032
:10bb04000200010000030000008078001102000020
:10bb140001000200000000007a1102000001000090
:10bb240002000000807c11000100010000010000ff
:10bb340000807e00110100000100020000000000ee
:10bb44007f110200000100001200000000801100bb
:10bb54000200010000120000000082001102000037
:10bb64000100120000000000841101000001000027
:10bb74001200000000861100020001000003000012
:10bb84000080880011010000010005000000000091
:10bb94008a110100000100000a000000008b11005e
:10bba400010001000001000000008c0011010000f0
:10bbb40001001400000000008d11010000010000cc
:10bbc40014000000008e11000200010000140000a7
:10bbd400008090001101000001001400000000002a
:10bbe4009211010000010000140000008093110074
:10bbf4000100010000030000000094001102000095
:10bc04000100030000008000961102000001000002
:10bc140003000000809811000200010000030000ee
:10bc240000809a001102000001000300000080005f
:10bc34009c1102000001000003000000809e11001e
:10bc440002000100000300000080a00011020000b7
:10bc54000100030000008000a211020000010000a6
:10bc64000300000080a41100020001000003000092
:10bc74000080a60011020000010003000000800003
:10bc8400a8110200000100000300000080aa1100b6
:10bc940002000100000300000080ac00110200005b
:10bca4000100030000008000ae110000000000004d
:10bcb4000000000000000000160e00009a030000bf
:10bcc40000000000ae13000020010000000000008e
:10bcd4006a0800001200000002000000042920008d
:10bce400000000000000ae0013000100000000008e
:10bcf40000ce13007e1700000600000002000000c2
:10bd0400102700000000000092080000020000005c
:10bd140000000000ae1500004e000000000000000e
:04bd2400000000001b
:020000040000fa
:10bd28000600fa0010079800414798004e4090001e
:10bd38000080fb00cf80de006204200003002000aa
:10bd4800820f5000838f58001e023e0000600100e1
:10bd5800460037001d023700510037001b0237002c
:10bd68005c003700190237006700370017023700f8
:10bd780072003700150237007d00370013023700c4
:10bd88008800370011023700930037000f02370090
:10bd98009e0037000d023700a90037000b0237005c
:10bda800b200370009023700bd003700070237002c
:10bdb800c800370005023700d300370003023700f8
:10bdc800de00370001023700e9003700ff013700c5
:10bdd800f4003700fd013700ff003700fb01370092
:10bde8000a013700f901370015013700f70137005c
:10bdf80020013700f50137002b013700f301370028
:10be080036013700f101370041013700ef013700f3
:10be18004c013700ed01370059013700eb013700bd
:10be280066013700e901370071013700e701370083
:10be38007c013700e501370087013700e30137004f
:10be480092013700e10137009d013700df0137001b
:10be5800a8013700dd013700b3013700db013700e7
:10be6800be013700d9013700c9013700f1788000d9
:10be7800010f78001e0078004800de00804078003e
:10be88001e009000014878001e0090000000e800a5
:10be98009e0078008140780001487800cc01370086
:10bea80020738000000f78001e0078004800de0034
:10beb800804078001e009000014878001e00900025
:10bec8000000e8009e007800814078000148780072
:10bed800bf01370030738000000f78001e00780023
:10bee8004800de00804078001e009000014878007d
:10bef8001e0090000000e8009e0078008140780055
:10bf080001487800b201370040738000000f7800c4
:10bf18001e0078004800de00804078001e00900077
:10bf2800014878001e0090000000e8009e0078009c
:10bf38008140780001487800a501370050738000df
:10bf4800000f78001e0078004800de00804078006e
:10bf58001e009000014878001e0090000000e800d4
:10bf68009e007800814078000148780098013700e9
:10bf780060738000000f78001e0078004800de0023
:10bf8800804078001e009000014878001e00900054
:10bf98000000e8009e0078008140780001487800a1
:10bfa8008b01370070738000000f78001e00780046
:10bfb8004800de00804078001e00900001487800ac
:10bfc8001e0090000000e8009e0078008140780084
:10bfd800014878007e01370090738000000f7800d8
:10bfe8001e0078004800de00804078001e009000a7
:10bff800014878001e0090000000e8009e007800cc
:10c00800814078000148780071013700a0738000f2
:10c01800000f78001e0078004800de00804078009d
:10c028001e009000014878001e0090000000e80003
:10c038009e0078008140780001487800640137004c
:10c04800c0f0200010407800804078001e0090006a
:10c05800014878001e0090000000e800d1f02000a0
:10c0680091407800014878005901370070788000c5
:10c07800000f78001e0078004800de00804078003d
:10c088001e009000014878001e0090000000e800a3
:10c098009e00780081407800014878004c01370004
:10c0a80080788000000f78001e0078004800de00cd
:10c0b800804078001e009000014878001e00900023
:10c0c8000000e8009e007800814078000148780070
:10c0d8003f013700d0788000000f78001e007800fc
:10c0e8004800de00804078001e009000014878007b
:10c0f8001e0090000000e8009e0078008140780053
:10c108000148780032013700e0788000000f78009d
:10c118001e0078004800de00804078001e00900075
:10c12800014878001e0090000000e8009e0078009a
:10c13800814078000148780025013700518d800042
:10c14800010f78001e0078004800de00804078006b
:10c158001e009000014878001e0090000000e800d2
:10c168009e00780081407800014878001801370067
:10c17800618d8000010f78001e0078004800de0005
:10c18800804078001e009000014878001e00900052
:10c198000000e8009e00780081407800014878009f
:10c1a8000b013700718d8000010f78001e007800a8
:10c1b8004800de00804078001e00900001487800aa
:10c1c8001e0090000000e8009e0078008140780082
:10c1d80001487800fe00370040868000000f780094
:10c1e8001e0078004800de00804078001e009000a5
:10c1f800014878001e0090000000e8009e007800ca
:10c208008140780001487800f100370050868000ae
:10c21800000f78001e0078004800de00804078009b
:10c228001e009000014878001e0090000000e80001
:10c238009e0078008140780001487800e4003700cb
:10c24800418c8000010f78001e0078004800de0055
:10c25800804078001e009000014878001e00900081
:10c268000000e8009e0078008140780001487800ce
:10c27800d700370051438000010f78001e00780076
:10c288004800de00804078001e00900001487800d9
:10c298001e0090000000e8009e00780081407800b1
:10c2a80001487800ca003700d18a8000010f780061
:10c2b8001e0078004800de00804078001e009000d4
:10c2c800014878001e0090000000e8009e007800f9
:10c2d8008140780001487800bd003700e18a80007d
:10c2e800010f78001e0078004800de0080407800ca
:10c2f8001e009000014878001e0090000000e80031
:10c308009e0078008140780001487800b00037002e
:10c31800c18b8000010f78001e0078004800de0005
:10c32800804078001e009000014878001e009000b0
:10c338000000e8009e0078008140780001487800fd
:10c34800a3003700c0142100104078000080fb00d3
:10c35800000f78001e0078004800de00804078005a
:10c368001e009000014878001e0090000000e800c0
:10c378009e007800814078000148780094003700da
:10c3880040192100104078000080fb00000f780061
:10c398001e0078004800de00804078001e009000f3
:10c3a800014878001e0090000000e8009e00780018
:10c3b800814078000148780085003700b18c800002
:10c3c800010f78001e0078004800de0080407800e9
:10c3d8001e009000014878001e0090000000e80050
:10c3e8009e00780081407800014878007800370086
:10c3f800c18c8000010f78001e0078004800de0024
:10c40800804078001e009000014878001e009000cf
:10c418000000e8009e00780081407800014878001c
:10c428006b003700d18c8000010f78001e00780067
:10c438004800de00804078001e0090000148780027
:10c448001e0090000000e8009e00780081407800ff
:10c45800014878005e003700e18c8000010f780009
:10c468001e0078004800de00804078001e00900022
:10c47800014878001e0090000000e8009e00780047
:10c48800814078000148780051003700f18c800025
:10c49800010f78001e0078004800de008040780018
:10c4a8001e009000014878001e0090000000e8007f
:10c4b8009e007800814078000148780044003700e9
:10c4c800018d8000010f78001e0078004800de0012
:10c4d800804078001e009000014878001e009000ff
:10c4e8000000e8009e00780081407800014878004c
:10c4f80037003700318d8000010f78001e0078006a
:10c508004800de00804078001e0090000148780056
:10c518001e0090000000e8009e007800814078002e
:10c52800014878002a003700418d8000010f78000b
:10c538001e0078004800de00804078001e00900051
:10c54800014878001e0090000000e8009e00780076
:10c5580081407800014878001d003700108d800068
:10c56800000f78001e0078004800de008040780048
:10c578001e009000014878001e0090000000e800ae
:10c588009e0078008140780001487800100037004c
:10c59800208d8000000f78001e0078004800de0023
:10c5a800804078001e009000014878001e0090002e
:10c5b8000000e8009e00780081407800014878007b
:10c5c80003003700000000000100370000000000f1
:08c5d8000080fa0000000600db
:020000040000fa
:10c5e0001400fa004047980031079800d1a4860053
:10c5f000010f78004e4090000004e000050032007a
:10c60000304280000000e000010032003a1e0700c6
:10c610004628ef0030428000cf80de007205200007
:10c6200003002000820f5000838f5800c4013e0099
:10c630000060010057003700c1013700c00137001a
:10c64000bf013700be013700bd013700bc01370014
:10c65000bb013700ba013700b9013700b801370014
:10c66000b7013700b6013700b5013700b401370014
:10c67000b3013700b2013700b1013700b001370014
:10c68000af013700ae013700ad013700ac01370014
:10c69000ab013700aa013700a9013700a801370014
:10c6a000a7013700a6013700a5013700a401370014
:10c6b000a3013700a2013700a1013700a001370014
:10c6c0009f0137009e0137009d0137009c01370014
:10c6d0009b0137009a013700990137004700370066
:10c6e0009701370096013700950137009401370014
:10c6f000930137006d00370091013700900137003a
:10c700008f0137008e0137008d013700960037000a
:10c710008b0137008a013700b500370088013700e8
:10c720008701370086013700850137008401370013
:10c73000d6003700820137008101370080013700c1
:10c740007f0137007e013700f70037007c0137009a
:10c750007b0137007a013700790137007801370013
:10c760001801370076013700750137007401370072
:10c77000730137007201370039013700700137004b
:10c780006f0137006e0137006d0137006c01370013
:10c790005a01370068004700838420000041eb0005
:10c7a00081c1b300131d07006800470041752100d7
:10c7b000b0187800a0107800e480400064004000c9
:10c7c000b0187800a0107800e480400064004000b9
:10c7d000b0187800a0107800e480400064004000a9
:10c7e000a48420006000b8006011b800009abe0068
:10c7f0000292be00a002200030428800a2842000e5
:10c80000417521001e0078004f01070010079800b5
:10c810001e0090000000e000490132001e00900060
:10c820000000a20000f0a7000000ea000000e900fc
:10c830004f00de00a078880048c8bf000080fb00e1
:10c8400070788800680047008384200012c0b3001d
:10c8500081c1b300e71c0700680047004175210053
:10c86000b0187800a0107800e48040006400400018
:10c87000b0187800a0107800e48040006400400008
:10c88000b0187800a0107800e480400064004000f8
:10c89000a48420006000b8006011b800009abe00b7
:10c8a0000292be000003200030428800a2842000d3
:10c8b000417521001e007800230107001007980031
:10c8c0001e0090000000e0001d0132001e009000dc
:10c8d0000000a20000f0a7000000ea000000e9004c
:10c8e0004f00de00b078880048c8bf000080fb0021
:10c8f00080788800c01421001040780048e8b70014
:10c900006800470083842000b2c0b30081c1b30037
:10c91000d81c07006800470041752100b018780056
:10c92000a0107800e480400064004000b018780057
:10c93000a0107800e480400064004000b018780047
:10c94000a0107800e480400064004000a48420002f
:10c950006000b8006011b800009abe000292be00ec
:10c960006003200030428800a2842000417521002d
:10c970001e007800f4000700100798001e009000c9
:10c980000000e000ee003200680047002385200030
:10c99000d2c0b300b1c0b300a61c070068004700b6
:10c9a00041752100b0187800a0107800e4804000a4
:10c9b00064004000b0187800a0107800e4804000c7
:10c9c00064004000b0187800a0107800e4804000b7
:10c9d00064004000a48420006000b8006011b8002a
:10c9e000009abe000292be009003200030428800f0
:10c9f000a2842000417521001e007800d2000700ab
:10ca0000100798001e0090000000e000cc003200eb
:10ca10001e009000e10f500002003a00904280009a
:10ca200040868800680047002385200062c1b3006b
:10ca3000b1c0b3007f1c07006800470041752100aa
:10ca4000b0187800a0107800e48040006400400036
:10ca5000b0187800a0107800e48040006400400026
:10ca6000b0187800a0107800e48040006400400016
:10ca7000a48420006000b8006011b800009abe00d5
:10ca80000292be00f003200030428800a284200001
:10ca9000417521001e007800ab00070010079800c8
:10caa0001e0090000000e000a50032001e00900073
:10cab000e10f500002003a0090428000b08c8800e4
:10cac000680047002385200032c0b300b1c0b30026
:10cad000581c07006800470041752100b018780015
:10cae000a0107800e480400064004000b018780096
:10caf000a0107800e480400064004000b018780086
:10cb0000a0107800e480400064004000a48420006d
:10cb10006000b8006011b800009abe000292be002a
:10cb20005004200030428800a2842000417521007a
:10cb30001e00780084000700100798001e00900077
:10cb40000000e0007e0032001e009000e10f500067
:10cb500002003a0090428000d08c880068004700b4
:10cb60002385200082c0b300b1c0b300311c070090
:10cb70006800470041752100b0187800a0107800c7
:10cb8000e480400064004000b0187800a0107800f5
:10cb9000e480400064004000b0187800a0107800e5
:10cba000e480400064004000a48420006000b800dd
:10cbb0006011b800009abe000292be00b0042000ce
:10cbc00030428800a2842000417521001e007800b8
:10cbd0005d000700100798001e0090000000e000b4
:10cbe000570032001e009000e10f500002003a0092
:10cbf00090428000f08c8800680047002385200068
:10cc000092c0b300b1c0b3000a1c0700680047001f
:10cc100041752100b0187800a0107800e480400031
:10cc200064004000b0187800a0107800e480400054
:10cc300064004000b0187800a0107800e480400044
:10cc400064004000a48420006000b8006011b800b7
:10cc5000009abe000292be001005200030428800fb
:10cc6000a2842000417521001e00780036000700d4
:10cc7000100798001e0090000000e0003000320015
:10cc80001e009000e10f500002003a009042800028
:10cc9000308d88006800470023852000a2c0b300c3
:10cca000b1c0b300e31b07006800470041752100d5
:10ccb000b0187800a0107800e480400064004000c4
:10ccc000b0187800a0107800e480400064004000b4
:10ccd000b0187800a0107800e480400064004000a4
:10cce000a48420006000b8006011b800009abe0063
:10ccf0000292be007005200030428800a28420000d
:10cd0000417521001e0078000f00070010079800f1
:10cd10001e0090000000e000090032001e0090009c
:10cd2000e10f500002003a0090428000108d880010
:10cd30003e00900011c0b300014878004628ef0083
:08cd40000080fa00000006006b
:020000040000fa
:10cd48000800fa0010079800210798003207980099
:10cd58003e009000100078008000eb00e200200008
:10cd680003002000820f5000838f580097013e0077
:10cd7800006001000e0037001c0037003e0037003d
:10cd88006400370088003700a9003700d100370059
:10cd9800da003700fb0037000401370021013700b3
:10cda8002b01370034013700530137005d0137008c
:10cdb8003e0090008040eb00214098003e0090002b
:10cdc8008040eb00414098003e0090008040eb001e
:10cdd800314098003e0090008000eb003100980040
:10cde8003e00900011002000010878001e0090000d
:10cdf80072170700000f78001e007800e10f50003e
:10ce080057013a002e009000104090000004a20044
:10ce18000004e000040032003e00900021002000e1
:10ce280001087800690137002e009000404090000a
:10ce38000004e000040032003e00900021002000c1
:10ce480001087800610137002e009000104890001a
:10ce58000004e000040032003e0090007100200051
:10ce680001087800590137003e009000e1002000d9
:10ce780001087800550137002e0090001040780016
:10ce88000001eb00804078001e009000c7140700e6
:10ce9800000f78001e007800e10f500032013a00c0
:10cea8002e009000104090000004a2000004e00052
:10ceb800040032003e009000310020000108780094
:10cec800420137002e009000404090000004e0002e
:10ced800040032003e009000510020000108780054
:10cee8003a0137002e009000104890000004e0003e
:10cef800040032003e009000610020000108780024
:10cf0800320137003e009000e1002000010878005f
:10cf18002e0137002e0090002040900080407800bd
:10cf28001e00900003150700000f78001e0078000f
:10cf3800e10f50000e013a002e00900030409000a2
:10cf48000004e000040032003e0090004100200090
:10cf5800010878001d0137002e0090004040900025
:10cf68000004e000040032003e0090005100200060
:10cf780001087800150137002e0090001048900035
:10cf88000004e000040032003e0090006100200030
:10cf9800010878000d0137003e009000e1002000f4
:10cfa80001087800090137002e009000b0009000b9
:10cfb8002e009000404090000080fb000080400060
:10cfc80010407800804078001e009000d9140700b7
:10cfd800000f78001e007800e10f5000e6003a00cc
:10cfe8002e009000404090000004e0000400320051
:10cff8003e0090005100200001087800f30037003f
:10d008002e009000104890000004e0000400320058
:10d018003e0090006100200001087800eb00370016
:10d028003e009000e100200001087800e70037008a
:10d038002e009000b00090003e009000204090002c
:10d048000080fb000080400010407800804078009d
:10d058001e009000b7140700000f78001e0078002b
:10d06800e10f5000c6003a003e00900020409000ba
:10d078008040e8003e009000214098003e0090006b
:10d08800a04090002e0090004040900080cf5000bb
:10d09800040031003e009000510020000108780093
:10d0a800ca0037002e009000104890000004e000ed
:10d0b800040032003e009000610020000108780062
:10d0c800c20037003e009000e1002000010878000f
:10d0d800be0037001e009000d9160700000f780028
:10d0e8001e007800e10f5000a7003a003e009000b3
:10d0f8007100200001087800b40037002e0090006d
:10d108001040780012002000804078001e00900037
:10d1180026140700000f78001e007800e10f500069
:10d128009b003a002e009000004890000004e000a8
:10d13800040032003e0090008100200001087800c1
:10d14800a20037002e009000104890000004e00074
:10d15800080032002e009000904890003e00900099
:10d16800314098003e009000b1002000010878008e
:10d17800960037003e009000e1002000010878008a
:10d18800920037001e00900047160700000f780035
:10d198001e007800e10f50007f003a003e0090002a
:10d1a8009100200001087800880037003e009000b8
:10d1b80063004000800078001e00900023170700dd
:10d1c800000f78001e007800e10f500074003a004c
:10d1d8003e00900030409000ae00900091489000d2
:10d1e800814f50000100360001407800be009000d9
:10d1f800b04098003e00900030409000e14f500051
:10d20800040036003e009000a100200001087800cc
:10d218006e0037003e009000d10020000108780021
:10d228006a0037008000eb001e009000c41707005a
:10d23800000f78001e007800e10f50005a003a00f5
:10d248003e009000b1002000010878005f00370020
:10d258001e00900014160700000f78001e007800ca
:10d26800e10f500052003a003e009000c10020003b
:10d2780001087800550037002e009000d00090007b
:10d288003e009000404090000080fb00008040007d
:10d29800800078001e009000ec160700000f780050
:10d2a8001e007800e10f500043003a003e00900055
:10d2b800404090008040e8003e00900041409800c7
:10d2c8003e009000c04090003e009000304090002a
:10d2d80080cf5000040031003e009000a1002000e3
:10d2e80001087800390037003e009000d100200086
:10d2f8000108780035003700110020001e0090005a
:10d308008f170700000f78001e007800e10f50000b
:10d318002b003a003e009000e10020000108780050
:10d328002a0037001e009000a8160700000f78009a
:10d338001e007800e10f500023003a003e009000e4
:10d34800300090000000e00002003a0010002000c9
:10d358002f0037003e009000300090002c0037006e
:10d368000000000019003700000000001700370017
:10d37800000000001500370000000000130037000f
:10d388000000000011003700000000000f00370007
:10d39800000000000d003700000000000b003700ff
:10d3a80000000000090037000000000007003700f7
:10d3b80000000000050037000000000003003700ef
:10d3c8000000000001003700000000001e00780087
:10d3d8000000e00002003a000000eb000c003700fb
:10d3e8001e007800e10f500001003a0007003700e6
:10d3f8003e0090009e007800310098003e009000aa
:10d40800e1002000010878000000000050fe37000d
:08d418000080fa00000006008c
:020000040000fa
:10d420001400fa00881f78002057980032c0bf000f
:10d430000080fb00600798000000eb00000f780000
:10d44000010037001e0fe8001e007800e40f5000b6
:10d4500008003c001e0078000040780032c1b30094
:10d46000804078002e50900022100700e10f5000fd
:10d47000f4ff32001e007800e50f500006003a006d
:10d480006e0090000040780032e0b7009068a8007d
:10d4900030002000640137001e00e80010079800eb
:10d4a0001e009000e50f500014003a000000eb0051
:10d4b00010079800120037001e0090000000e800de
:10d4c000100798001e009000e50f500002003a007f
:10d4d0000000eb00100798001e0090009e0f500007
:10d4e00007003a006e0090000040780032e0b7007c
:10d4f0009028a800100020004b0137000000000019
:10d500001e0090000040780042c1b30080407800c7
:10d510002e509000f70f07000000e000e6ff3200f9
:10d5200002c02200030020002e5090008080fb00eb
:10d53000004021000088b900000078008000eb0066
:10d5400002014000838148001e0090004a00dd0077
:10d550008000eb0002004000838048004008de00ad
:10d560000040780032e0b70000c022000100200037
:10d57000000178002e5090000080fb006500b9008b
:10d58000800078001e009000008040004a00dd000e
:10d5900000004100200798002e509000380f07002f
:10d5a0000000e000010032009048a800018920003e
:10d5b00091407800614f98009008a9000000eb00ae
:10d5c0003007980010002400003b8800ae00900057
:10d5d0000080eb0083180700ae009000f00f2000e1
:10d5e0007c1807002e0090000080e80020079800bb
:10d5f0000040eb00004f98003e0090000000e80063
:10d6000030079800340037002e5090008080fb00d7
:10d61000f00f20000088b900800078000e489000cc
:10d620000080fb0000804000ec0b070050079800d2
:10d6300080448000610060000000e00002003200d1
:10d640009008a9000d0037005e009000ae00900029
:10d65000641807000e4890000080fb00ae009000a8
:10d660005c1807002e0090000080e800200798005a
:10d670003e0090000000e800300798000e4890003f
:10d680000040e800004f98000c003700ae0090000a
:10d690000080eb0053180700ae009000f00f200050
:10d6a0004c1807002e0090000080e800200798002a
:10d6b0003e0090000000e800300798000e489000ff
:10d6c000e14f400004003a00be009000f00320004b
:10d6d000808f5000edff34000e489000e14f400075
:10d6e00004003200be009000f0032000808f500044
:10d6f000c5ff34000c1807000000eb00300798004d
:10d700000e489000e14f4000f3ff3a00ee489000d1
:10d71000028920000149780002c022000300200095
:10d720002e5090008080fb00004021000088b9004e
:10d73000000078008000eb00020140008381480077
:10d740001e0090004a00dd008000eb000200400057
:10d75000838048004008de000040780032e0b700d7
:10d7600000c0220001002000000178002e5090002f
:10d770000080fb006500b900800078001e0090006a
:10d78000008040004a00dd00000041000080e80009
:10d79000200798002e009000ae0090008100e80065
:10d7a00021079800fa170700004f98002e009000fc
:10d7b000ae0090008100e80021079800f6170700ee
:10d7c000500798001e0037002e5090008080fb000c
:10d7d000f00f20000088b900800078000e4890000b
:10d7e0000080fb00008040007c0b0700de00900002
:10d7f000810f5000060032006e009000004078005b
:10d8000032e0b70090e8a8007000200086003700e2
:10d810002e009000ae0090008100e80021079800e3
:10d82000db170700004f98002e009000ae0090001c
:10d830008100e80021079800d717070050079800db
:10d840000e489000e14f4000dfff3a0000c0220088
:10d8500001002000000178002e5090000080fb00a5
:10d860006500b900800078001e007800008040004c
:10d870004a00dd0000004100000f980000c02200b7
:10d8800001002000000178002e5090000080fb0075
:10d890006500b900800078001e0090000080400004
:10d8a0004a00dd00000041002007980002c022006d
:10d8b000030020002e5090008080fb0000402100db
:10d8c0000088b900000078008000eb0002014000f1
:10d8d000838148001e0078004a00dd008000eb00d4
:10d8e00002004000838048004008de0000407800cd
:10d8f00032e0b7000e089000a71707005007980005
:10d900000e089000a2170700004f98001e0090001c
:10d910000000e00003003a005e0090000000e80014
:10d92000500798005e009000e30f5000040036009e
:10d930009028a8000e4890000044a100004f9800d5
:10d9400002c02200030020002e5090008080fb00c7
:10d95000004021000088b900000078008000eb0042
:10d9600002014000838148001e0090004a00dd0053
:10d970008000eb0002004000838048004008de0089
:10d980000040780032e0b7000e4890000080fb00b5
:10d99000ae0090008f1707005e009000ae00900070
:10d9a0009017070030002400003b88005e17070036
:10d9b0000e4890000084fb002e00900074170700b2
:10d9c000800f540006003a002e00900072170700e6
:10d9d000800078005e009000808f500006003200ca
:10d9e0006e0090000040780032e0b70090e8a80098
:10d9f000700020000c0037001e0078000040780006
:10da0000804078002e509000b91107006e00900001
:10da10000040780032e0b700804480000000d10070
:10da2000614060000080fb004f0478000080fa0035
:04da300000000600ec
:020000040000fa
:10da34001400fa004047980031079800e1a48600da
:10da4400010f78004e4090000004e0000500320011
:10da5400d04180000000e0000100320030190700ce
:10da64003a28ef00d041800021082000810f5000a7
:10da74008800320021082000810f500009003c007a
:10da840031072000810f500031003200a10720002f
:10da9400810f5000550032000000e00012003200f7
:10daa40029013700e1082000810f5000c70032002f
:10dab400e1082000810f500004003c008108200090
:10dac400810f50009a0032001f01370041092000e5
:10dad400810f5000e4003200a1092000810f5000a2
:10dae400080132001801370068004700c383200092
:10daf400d2c0b300b1c0b3004d180700680047009e
:10db040081742100b0187800a0107800e4804000ef
:10db140064004000b0187800a0107800e480400051
:10db240064004000b0187800a0107800e480400041
:10db340064004000e48320006000b8006011b80075
:10db4400009abe000292be0030072000d041880037
:10db5400e2832000817421001e00780079fc070014
:10db6400100798001e0090000000e000f60032004c
:10db74001e009000e10f500002003a00e0418000d6
:10db84005086880068004700c3832000a2ccb300fd
:10db9400c1c0b30026180700680047008174210043
:10dba400b0187800a0107800e480400064004000c1
:10dbb400b0187800a0107800e480400064004000b1
:10dbc400b0187800a0107800e480400064004000a1
:10dbd400e48320006000b8006011b800009abe0021
:10dbe4000292be00a0072000d0418800e2832000fa
:10dbf400817421001e00780052fc07001007980071
:10dc04001e0090000000e000cf0032001e009000d3
:10dc1400e10f500003003a00e0418000408c88008e
:10dc2400020037000000eb00408c880068004700c9
:10dc3400c383200062c1b300b1c0b300fc17070066
:10dc44006800470081742100b0187800a0107800a3
:10dc5400e480400064004000b0187800a010780010
:10dc6400e480400064004000b0187800a010780000
:10dc7400e480400064004000e48320006000b800b9
:10dc84006011b800009abe000292be002008200075
:10dc9400d0418800e2832000817421001e007800b6
:10dca40028fc0700100798001e0090000000e00008
:10dcb400a50032001e009000e10f500002003a005f
:10dcc400e0418000c08c880068004700c3832000c6
:10dcd40032c0b300b1c0b300d517070068004700d5
:10dce40081742100b0187800a0107800e48040000e
:10dcf40064004000b0187800a0107800e480400070
:10dd040064004000b0187800a0107800e48040005f
:10dd140064004000e48320006000b8006011b80093
:10dd2400009abe000292be0080082000d041880004
:10dd3400e2832000817421001e00780001fc0700aa
:10dd4400100798001e0090000000e0007e003200e2
:10dd54001e009000e10f500002003a00e0418000f4
:10dd6400e08c880068004700c383200082c0b300b1
:10dd7400b1c0b300ae1707006800470081742100ea
:10dd8400b0187800a0107800e480400064004000df
:10dd9400b0187800a0107800e480400064004000cf
:10dda400b0187800a0107800e480400064004000bf
:10ddb400e48320006000b8006011b800009abe003f
:10ddc4000292be00e0082000d0418800e2832000d7
:10ddd400817421001e007800dafb07001007980008
:10dde4001e0090000000e000570032001e0090006a
:10ddf400e10f500002003a00e0418000008d8800ed
:10de040068004700c383200092c0b300b1c0b300d0
:10de1400871707006800470081742100b018780054
:10de2400a0107800e480400064004000b01878003e
:10de3400a0107800e480400064004000b01878002e
:10de4400a0107800e480400064004000e4832000d7
:10de54006000b8006011b800009abe000292be00d3
:10de640040092000d0418800e28320008174210011
:10de74001e007800b3fb0700100798001e009000f6
:10de84000000e000300032001e009000e10f50005e
:10de940002003a00e0418000408d8800680047009d
:10dea400c3832000a2c0b300b1c0b3006017070051
:10deb4006800470081742100b0187800a010780031
:10dec400e480400064004000b0187800a01078009e
:10ded400e480400064004000b0187800a01078008e
:10dee400e480400064004000e48320006000b80047
:10def4006011b800009abe000292be00a009200082
:10df0400d0418800e2832000817421001e00780043
:10df14008cfb0700100798001e0090000000e00032
:10df2400090032001e009000e10f500002003a0088
:10df3400e0418000208d88003e00900011c0b300b5
:10df4400014878003a28ef000080fa00000006003b
:020000040000fa
:10df54001a00fa00889fbe008a1f7800404f98007c
:10df640072079800030f9800140f9800250f98006b
:10df7400360f9800470f98006000b800008fbe006d
:10df84004e4890000080fb00c200dd00e0582100f4
:10df9400008040001000be000001be007e00900022
:10dfa4008e08900062da0700200798003107980075
:10dfb4004e4890000085fb004e4890000080fb0016
:10dfc400c200dd00e0562100008040001004be00c5
:10dfd4004e4890000080fb007400b90000007800f7
:10dfe400ec004000e04c2100008040001000be0026
:10dff4002e019000be01900094db07000001be00da
:10e004000800be004bda0700c251dd00e2562100d1
:10e01400028141000089be004e4890000080fb0050
:10e02400c200dd00e0582100008040001000be0066
:10e034000001be001e089000ae0890003cda070004
:10e0440040079800510798004e4890000084fb0058
:10e054004e4890000080fb007400b90080007800f6
:10e06400e04c2100008040001001be004e489000aa
:10e074000080fb007400b90000007800e400400058
:10e08400e04c2100008040001000be004e4a900089
:10e094000482fb00c222dd00e45621000482420017
:10e0a4001403be000202be000001be000600be0052
:10e0b400ed110700c241dd00e2562100028141005a
:10e0c4000089be004e4890000080fb007400b90037
:10e0d40000007800e8004000e04c2100008040008f
:10e0e4001000be002e019000be01900057db070017
:10e0f4000002be004e4890000080fb00c200dd001c
:10e10400e0562100008040001000be000001be0067
:10e114000400be0007da07000004be004e48900069
:10e124000080fb007400b90000007800f00040009b
:10e13400e04c2100008040001000be004e01900021
:10e14400de01900041db07000001be000800be00b4
:10e15400f7d907003e099000ce099000f5d90700d1
:10e16400008fbe004e4890000080fb007400b90090
